{
	"contracts/test.sol": {
		"KipuBank": {
			"abi": [
				{
					"inputs": [
						{
							"internalType": "uint256",
							"name": "_umbralRetiros",
							"type": "uint256"
						},
						{
							"internalType": "uint256",
							"name": "_bankCap",
							"type": "uint256"
						}
					],
					"stateMutability": "nonpayable",
					"type": "constructor"
				},
				{
					"inputs": [
						{
							"internalType": "bytes",
							"name": "motivo",
							"type": "bytes"
						}
					],
					"name": "BalanceInsuficiente",
					"type": "error"
				},
				{
					"inputs": [],
					"name": "BancoLleno",
					"type": "error"
				},
				{
					"inputs": [],
					"name": "InvalidValue",
					"type": "error"
				},
				{
					"inputs": [
						{
							"internalType": "bytes",
							"name": "motivo",
							"type": "bytes"
						}
					],
					"name": "RetiroInvalido",
					"type": "error"
				},
				{
					"anonymous": false,
					"inputs": [
						{
							"indexed": true,
							"internalType": "address",
							"name": "desde",
							"type": "address"
						},
						{
							"indexed": false,
							"internalType": "uint256",
							"name": "cantidad",
							"type": "uint256"
						}
					],
					"name": "DepositoExitoso",
					"type": "event"
				},
				{
					"anonymous": false,
					"inputs": [
						{
							"indexed": true,
							"internalType": "address",
							"name": "desde",
							"type": "address"
						},
						{
							"indexed": false,
							"internalType": "uint256",
							"name": "cantidad",
							"type": "uint256"
						}
					],
					"name": "RetiroExitoso",
					"type": "event"
				},
				{
					"inputs": [
						{
							"internalType": "address",
							"name": "",
							"type": "address"
						}
					],
					"name": "balance",
					"outputs": [
						{
							"internalType": "uint256",
							"name": "",
							"type": "uint256"
						}
					],
					"stateMutability": "view",
					"type": "function"
				},
				{
					"inputs": [],
					"name": "bankCap",
					"outputs": [
						{
							"internalType": "uint256",
							"name": "",
							"type": "uint256"
						}
					],
					"stateMutability": "view",
					"type": "function"
				},
				{
					"inputs": [],
					"name": "conteoDeposito",
					"outputs": [
						{
							"internalType": "uint256",
							"name": "",
							"type": "uint256"
						}
					],
					"stateMutability": "view",
					"type": "function"
				},
				{
					"inputs": [],
					"name": "conteoRetiro",
					"outputs": [
						{
							"internalType": "uint256",
							"name": "",
							"type": "uint256"
						}
					],
					"stateMutability": "view",
					"type": "function"
				},
				{
					"inputs": [],
					"name": "depositar",
					"outputs": [],
					"stateMutability": "payable",
					"type": "function"
				},
				{
					"inputs": [],
					"name": "getMyBalance",
					"outputs": [
						{
							"internalType": "uint256",
							"name": "myBalance",
							"type": "uint256"
						}
					],
					"stateMutability": "view",
					"type": "function"
				},
				{
					"inputs": [
						{
							"internalType": "uint256",
							"name": "cantidad",
							"type": "uint256"
						}
					],
					"name": "retirar",
					"outputs": [],
					"stateMutability": "nonpayable",
					"type": "function"
				},
				{
					"inputs": [],
					"name": "totalBanco",
					"outputs": [
						{
							"internalType": "uint256",
							"name": "",
							"type": "uint256"
						}
					],
					"stateMutability": "view",
					"type": "function"
				},
				{
					"inputs": [],
					"name": "totalDepositado",
					"outputs": [
						{
							"internalType": "uint256",
							"name": "",
							"type": "uint256"
						}
					],
					"stateMutability": "view",
					"type": "function"
				},
				{
					"inputs": [],
					"name": "umbralRetiros",
					"outputs": [
						{
							"internalType": "uint256",
							"name": "",
							"type": "uint256"
						}
					],
					"stateMutability": "view",
					"type": "function"
				}
			],
			"devdoc": {
				"kind": "dev",
				"methods": {},
				"version": 1
			},
			"evm": {
				"assembly": "    /* \"contracts/test.sol\":1225:4164  contract KipuBank {... */\n  mstore(0x40, 0xc0)\n    /* \"contracts/test.sol\":2656:2868  constructor(uint _umbralRetiros, uint _bankCap){... */\n  callvalue\n  dup1\n  iszero\n  tag_1\n  jumpi\n  revert(0x00, 0x00)\ntag_1:\n  pop\n  mload(0x40)\n  sub(codesize, bytecodeSize)\n  dup1\n  bytecodeSize\n  dup4\n  codecopy\n  dup2\n  dup2\n  add\n  0x40\n  mstore\n  dup2\n  add\n  swap1\n  tag_2\n  swap2\n  swap1\n  tag_3\n  jump\t// in\ntag_2:\n    /* \"contracts/test.sol\":2729:2743  _umbralRetiros */\n  dup2\n    /* \"contracts/test.sol\":2713:2743  umbralRetiros = _umbralRetiros */\n  0x80\n  dup2\n  dup2\n  mstore\n  pop\n  pop\n    /* \"contracts/test.sol\":2763:2771  _bankCap */\n  dup1\n    /* \"contracts/test.sol\":2753:2771  bankCap = _bankCap */\n  0xa0\n  dup2\n  dup2\n  mstore\n  pop\n  pop\n    /* \"contracts/test.sol\":2794:2795  0 */\n  0x00\n    /* \"contracts/test.sol\":2781:2791  totalBanco */\n  0x00\n    /* \"contracts/test.sol\":2781:2795  totalBanco = 0 */\n  dup2\n  swap1\n  sstore\n  pop\n    /* \"contracts/test.sol\":2656:2868  constructor(uint _umbralRetiros, uint _bankCap){... */\n  pop\n  pop\n    /* \"contracts/test.sol\":1225:4164  contract KipuBank {... */\n  jump(tag_6)\n    /* \"#utility.yul\":88:205   */\ntag_8:\n    /* \"#utility.yul\":197:198   */\n  0x00\n    /* \"#utility.yul\":194:195   */\n  0x00\n    /* \"#utility.yul\":187:199   */\n  revert\n    /* \"#utility.yul\":334:411   */\ntag_10:\n    /* \"#utility.yul\":371:378   */\n  0x00\n    /* \"#utility.yul\":400:405   */\n  dup2\n    /* \"#utility.yul\":389:405   */\n  swap1\n  pop\n    /* \"#utility.yul\":334:411   */\n  swap2\n  swap1\n  pop\n  jump\t// out\n    /* \"#utility.yul\":417:539   */\ntag_11:\n    /* \"#utility.yul\":490:514   */\n  tag_19\n    /* \"#utility.yul\":508:513   */\n  dup2\n    /* \"#utility.yul\":490:514   */\n  tag_10\n  jump\t// in\ntag_19:\n    /* \"#utility.yul\":483:488   */\n  dup2\n    /* \"#utility.yul\":480:515   */\n  eq\n    /* \"#utility.yul\":470:533   */\n  tag_20\n  jumpi\n    /* \"#utility.yul\":529:530   */\n  0x00\n    /* \"#utility.yul\":526:527   */\n  0x00\n    /* \"#utility.yul\":519:531   */\n  revert\n    /* \"#utility.yul\":470:533   */\ntag_20:\n    /* \"#utility.yul\":417:539   */\n  pop\n  jump\t// out\n    /* \"#utility.yul\":545:688   */\ntag_12:\n    /* \"#utility.yul\":602:607   */\n  0x00\n    /* \"#utility.yul\":633:639   */\n  dup2\n    /* \"#utility.yul\":627:640   */\n  mload\n    /* \"#utility.yul\":618:640   */\n  swap1\n  pop\n    /* \"#utility.yul\":649:682   */\n  tag_22\n    /* \"#utility.yul\":676:681   */\n  dup2\n    /* \"#utility.yul\":649:682   */\n  tag_11\n  jump\t// in\ntag_22:\n    /* \"#utility.yul\":545:688   */\n  swap3\n  swap2\n  pop\n  pop\n  jump\t// out\n    /* \"#utility.yul\":694:1201   */\ntag_3:\n    /* \"#utility.yul\":773:779   */\n  0x00\n    /* \"#utility.yul\":781:787   */\n  0x00\n    /* \"#utility.yul\":830:832   */\n  0x40\n    /* \"#utility.yul\":818:827   */\n  dup4\n    /* \"#utility.yul\":809:816   */\n  dup6\n    /* \"#utility.yul\":805:828   */\n  sub\n    /* \"#utility.yul\":801:833   */\n  slt\n    /* \"#utility.yul\":798:917   */\n  iszero\n  tag_24\n  jumpi\n    /* \"#utility.yul\":836:915   */\n  tag_25\n  tag_8\n  jump\t// in\ntag_25:\n    /* \"#utility.yul\":798:917   */\ntag_24:\n    /* \"#utility.yul\":956:957   */\n  0x00\n    /* \"#utility.yul\":981:1045   */\n  tag_26\n    /* \"#utility.yul\":1037:1044   */\n  dup6\n    /* \"#utility.yul\":1028:1034   */\n  dup3\n    /* \"#utility.yul\":1017:1026   */\n  dup7\n    /* \"#utility.yul\":1013:1035   */\n  add\n    /* \"#utility.yul\":981:1045   */\n  tag_12\n  jump\t// in\ntag_26:\n    /* \"#utility.yul\":971:1045   */\n  swap3\n  pop\n    /* \"#utility.yul\":927:1055   */\n  pop\n    /* \"#utility.yul\":1094:1096   */\n  0x20\n    /* \"#utility.yul\":1120:1184   */\n  tag_27\n    /* \"#utility.yul\":1176:1183   */\n  dup6\n    /* \"#utility.yul\":1167:1173   */\n  dup3\n    /* \"#utility.yul\":1156:1165   */\n  dup7\n    /* \"#utility.yul\":1152:1174   */\n  add\n    /* \"#utility.yul\":1120:1184   */\n  tag_12\n  jump\t// in\ntag_27:\n    /* \"#utility.yul\":1110:1184   */\n  swap2\n  pop\n    /* \"#utility.yul\":1065:1194   */\n  pop\n    /* \"#utility.yul\":694:1201   */\n  swap3\n  pop\n  swap3\n  swap1\n  pop\n  jump\t// out\n    /* \"contracts/test.sol\":1225:4164  contract KipuBank {... */\ntag_6:\n  mload(0x80)\n  mload(0xa0)\n  codecopy(0x00, dataOffset(sub_0), dataSize(sub_0))\n  0x00\n  assignImmutable(\"0x8e8fab5f003314da8d1873ea7720e8d9f47650136d916064d1edb8a11d682624\")\n  0x00\n  assignImmutable(\"0x1d3be50b2bb17407dd170f1d5da128d1def30c6b1598d6a629e79b4775265526\")\n  return(0x00, dataSize(sub_0))\nstop\n\nsub_0: assembly {\n        /* \"contracts/test.sol\":1225:4164  contract KipuBank {... */\n      mstore(0x40, 0x80)\n      jumpi(tag_1, lt(calldatasize, 0x04))\n      shr(0xe0, calldataload(0x00))\n      dup1\n      0xc9578e1b\n      gt\n      tag_12\n      jumpi\n      dup1\n      0xc9578e1b\n      eq\n      tag_7\n      jumpi\n      dup1\n      0xcee90292\n      eq\n      tag_8\n      jumpi\n      dup1\n      0xe3d670d7\n      eq\n      tag_9\n      jumpi\n      dup1\n      0xe8b1298f\n      eq\n      tag_10\n      jumpi\n      dup1\n      0xecbea24d\n      eq\n      tag_11\n      jumpi\n      jump(tag_1)\n    tag_12:\n      dup1\n      0x3d922f90\n      eq\n      tag_2\n      jumpi\n      dup1\n      0x42cc9fdb\n      eq\n      tag_3\n      jumpi\n      dup1\n      0x4c738909\n      eq\n      tag_4\n      jumpi\n      dup1\n      0x5f0073d0\n      eq\n      tag_5\n      jumpi\n      dup1\n      0x8559126f\n      eq\n      tag_6\n      jumpi\n    tag_1:\n      revert(0x00, 0x00)\n        /* \"contracts/test.sol\":2875:3330  function depositar() external payable {... */\n    tag_2:\n      tag_13\n      tag_14\n      jump\t// in\n    tag_13:\n      stop\n        /* \"contracts/test.sol\":1770:1805  uint immutable public umbralRetiros */\n    tag_3:\n      callvalue\n      dup1\n      iszero\n      tag_15\n      jumpi\n      revert(0x00, 0x00)\n    tag_15:\n      pop\n      tag_16\n      tag_17\n      jump\t// in\n    tag_16:\n      mload(0x40)\n      tag_18\n      swap2\n      swap1\n      tag_19\n      jump\t// in\n    tag_18:\n      mload(0x40)\n      dup1\n      swap2\n      sub\n      swap1\n      return\n        /* \"contracts/test.sol\":4052:4161  function getMyBalance() public view returns(uint myBalance) {... */\n    tag_4:\n      callvalue\n      dup1\n      iszero\n      tag_20\n      jumpi\n      revert(0x00, 0x00)\n    tag_20:\n      pop\n      tag_21\n      tag_22\n      jump\t// in\n    tag_21:\n      mload(0x40)\n      tag_23\n      swap2\n      swap1\n      tag_19\n      jump\t// in\n    tag_23:\n      mload(0x40)\n      dup1\n      swap2\n      sub\n      swap1\n      return\n        /* \"contracts/test.sol\":1400:1427  uint public totalDepositado */\n    tag_5:\n      callvalue\n      dup1\n      iszero\n      tag_24\n      jumpi\n      revert(0x00, 0x00)\n    tag_24:\n      pop\n      tag_25\n      tag_26\n      jump\t// in\n    tag_25:\n      mload(0x40)\n      tag_27\n      swap2\n      swap1\n      tag_19\n      jump\t// in\n    tag_27:\n      mload(0x40)\n      dup1\n      swap2\n      sub\n      swap1\n      return\n        /* \"contracts/test.sol\":1372:1394  uint public totalBanco */\n    tag_6:\n      callvalue\n      dup1\n      iszero\n      tag_28\n      jumpi\n      revert(0x00, 0x00)\n    tag_28:\n      pop\n      tag_29\n      tag_30\n      jump\t// in\n    tag_29:\n      mload(0x40)\n      tag_31\n      swap2\n      swap1\n      tag_19\n      jump\t// in\n    tag_31:\n      mload(0x40)\n      dup1\n      swap2\n      sub\n      swap1\n      return\n        /* \"contracts/test.sol\":1625:1654  uint256 public conteoDeposito */\n    tag_7:\n      callvalue\n      dup1\n      iszero\n      tag_32\n      jumpi\n      revert(0x00, 0x00)\n    tag_32:\n      pop\n      tag_33\n      tag_34\n      jump\t// in\n    tag_33:\n      mload(0x40)\n      tag_35\n      swap2\n      swap1\n      tag_19\n      jump\t// in\n    tag_35:\n      mload(0x40)\n      dup1\n      swap2\n      sub\n      swap1\n      return\n        /* \"contracts/test.sol\":1660:1687  uint256 public conteoRetiro */\n    tag_8:\n      callvalue\n      dup1\n      iszero\n      tag_36\n      jumpi\n      revert(0x00, 0x00)\n    tag_36:\n      pop\n      tag_37\n      tag_38\n      jump\t// in\n    tag_37:\n      mload(0x40)\n      tag_39\n      swap2\n      swap1\n      tag_19\n      jump\t// in\n    tag_39:\n      mload(0x40)\n      dup1\n      swap2\n      sub\n      swap1\n      return\n        /* \"contracts/test.sol\":1473:1516  mapping (address => uint256) public balance */\n    tag_9:\n      callvalue\n      dup1\n      iszero\n      tag_40\n      jumpi\n      revert(0x00, 0x00)\n    tag_40:\n      pop\n      tag_41\n      0x04\n      dup1\n      calldatasize\n      sub\n      dup2\n      add\n      swap1\n      tag_42\n      swap2\n      swap1\n      tag_43\n      jump\t// in\n    tag_42:\n      tag_44\n      jump\t// in\n    tag_41:\n      mload(0x40)\n      tag_45\n      swap2\n      swap1\n      tag_19\n      jump\t// in\n    tag_45:\n      mload(0x40)\n      dup1\n      swap2\n      sub\n      swap1\n      return\n        /* \"contracts/test.sol\":3336:3845  function retirar (uint cantidad) external {... */\n    tag_10:\n      callvalue\n      dup1\n      iszero\n      tag_46\n      jumpi\n      revert(0x00, 0x00)\n    tag_46:\n      pop\n      tag_47\n      0x04\n      dup1\n      calldatasize\n      sub\n      dup2\n      add\n      swap1\n      tag_48\n      swap2\n      swap1\n      tag_49\n      jump\t// in\n    tag_48:\n      tag_50\n      jump\t// in\n    tag_47:\n      stop\n        /* \"contracts/test.sol\":1908:1940  uint256 public immutable bankCap */\n    tag_11:\n      callvalue\n      dup1\n      iszero\n      tag_51\n      jumpi\n      revert(0x00, 0x00)\n    tag_51:\n      pop\n      tag_52\n      tag_53\n      jump\t// in\n    tag_52:\n      mload(0x40)\n      tag_54\n      swap2\n      swap1\n      tag_19\n      jump\t// in\n    tag_54:\n      mload(0x40)\n      dup1\n      swap2\n      sub\n      swap1\n      return\n        /* \"contracts/test.sol\":2875:3330  function depositar() external payable {... */\n    tag_14:\n        /* \"contracts/test.sol\":2952:2959  bankCap */\n      immutable(\"0x8e8fab5f003314da8d1873ea7720e8d9f47650136d916064d1edb8a11d682624\")\n        /* \"contracts/test.sol\":2939:2949  totalBanco */\n      sload(0x00)\n        /* \"contracts/test.sol\":2927:2936  msg.value */\n      callvalue\n        /* \"contracts/test.sol\":2927:2949  msg.value + totalBanco */\n      tag_56\n      swap2\n      swap1\n      tag_57\n      jump\t// in\n    tag_56:\n        /* \"contracts/test.sol\":2927:2959  msg.value + totalBanco > bankCap */\n      gt\n        /* \"contracts/test.sol\":2923:2980  if (msg.value + totalBanco > bankCap) revert BancoLleno() */\n      iszero\n      tag_58\n      jumpi\n        /* \"contracts/test.sol\":2968:2980  BancoLleno() */\n      mload(0x40)\n      0x1fe673dd00000000000000000000000000000000000000000000000000000000\n      dup2\n      mstore\n      0x04\n      add\n      mload(0x40)\n      dup1\n      swap2\n      sub\n      swap1\n      revert\n        /* \"contracts/test.sol\":2923:2980  if (msg.value + totalBanco > bankCap) revert BancoLleno() */\n    tag_58:\n        /* \"contracts/test.sol\":3081:3090  msg.value */\n      callvalue\n        /* \"contracts/test.sol\":3058:3065  balance */\n      0x02\n        /* \"contracts/test.sol\":3058:3077  balance[msg.sender] */\n      0x00\n        /* \"contracts/test.sol\":3066:3076  msg.sender */\n      caller\n        /* \"contracts/test.sol\":3058:3077  balance[msg.sender] */\n      0xffffffffffffffffffffffffffffffffffffffff\n      and\n      0xffffffffffffffffffffffffffffffffffffffff\n      and\n      dup2\n      mstore\n      0x20\n      add\n      swap1\n      dup2\n      mstore\n      0x20\n      add\n      0x00\n      keccak256\n      0x00\n        /* \"contracts/test.sol\":3058:3090  balance[msg.sender] += msg.value */\n      dup3\n      dup3\n      sload\n      tag_59\n      swap2\n      swap1\n      tag_57\n      jump\t// in\n    tag_59:\n      swap3\n      pop\n      pop\n      dup2\n      swap1\n      sstore\n      pop\n        /* \"contracts/test.sol\":3153:3162  msg.value */\n      callvalue\n        /* \"contracts/test.sol\":3139:3149  totalBanco */\n      0x00\n      0x00\n        /* \"contracts/test.sol\":3139:3162  totalBanco += msg.value */\n      dup3\n      dup3\n      sload\n      tag_60\n      swap2\n      swap1\n      tag_57\n      jump\t// in\n    tag_60:\n      swap3\n      pop\n      pop\n      dup2\n      swap1\n      sstore\n      pop\n        /* \"contracts/test.sol\":3236:3246  msg.sender */\n      caller\n        /* \"contracts/test.sol\":3220:3258  DepositoExitoso(msg.sender, msg.value) */\n      0xffffffffffffffffffffffffffffffffffffffff\n      and\n      0x8e13c232b6ad491513c1540f8bc226e1c5072f2f8b9bcd13088a478c67fd5a49\n        /* \"contracts/test.sol\":3248:3257  msg.value */\n      callvalue\n        /* \"contracts/test.sol\":3220:3258  DepositoExitoso(msg.sender, msg.value) */\n      mload(0x40)\n      tag_61\n      swap2\n      swap1\n      tag_19\n      jump\t// in\n    tag_61:\n      mload(0x40)\n      dup1\n      swap2\n      sub\n      swap1\n      log2\n        /* \"contracts/test.sol\":3287:3301  conteoDeposito */\n      0x03\n      0x00\n        /* \"contracts/test.sol\":3287:3303  conteoDeposito++ */\n      dup2\n      sload\n      dup1\n      swap3\n      swap2\n      swap1\n      tag_62\n      swap1\n      tag_63\n      jump\t// in\n    tag_62:\n      swap2\n      swap1\n      pop\n      sstore\n      pop\n        /* \"contracts/test.sol\":2875:3330  function depositar() external payable {... */\n      jump\t// out\n        /* \"contracts/test.sol\":1770:1805  uint immutable public umbralRetiros */\n    tag_17:\n      immutable(\"0x1d3be50b2bb17407dd170f1d5da128d1def30c6b1598d6a629e79b4775265526\")\n      dup2\n      jump\t// out\n        /* \"contracts/test.sol\":4052:4161  function getMyBalance() public view returns(uint myBalance) {... */\n    tag_22:\n        /* \"contracts/test.sol\":4096:4110  uint myBalance */\n      0x00\n        /* \"contracts/test.sol\":4134:4141  balance */\n      0x02\n        /* \"contracts/test.sol\":4134:4153  balance[msg.sender] */\n      0x00\n        /* \"contracts/test.sol\":4142:4152  msg.sender */\n      caller\n        /* \"contracts/test.sol\":4134:4153  balance[msg.sender] */\n      0xffffffffffffffffffffffffffffffffffffffff\n      and\n      0xffffffffffffffffffffffffffffffffffffffff\n      and\n      dup2\n      mstore\n      0x20\n      add\n      swap1\n      dup2\n      mstore\n      0x20\n      add\n      0x00\n      keccak256\n      sload\n        /* \"contracts/test.sol\":4122:4153  myBalance = balance[msg.sender] */\n      swap1\n      pop\n        /* \"contracts/test.sol\":4052:4161  function getMyBalance() public view returns(uint myBalance) {... */\n      swap1\n      jump\t// out\n        /* \"contracts/test.sol\":1400:1427  uint public totalDepositado */\n    tag_26:\n      sload(0x01)\n      dup2\n      jump\t// out\n        /* \"contracts/test.sol\":1372:1394  uint public totalBanco */\n    tag_30:\n      sload(0x00)\n      dup2\n      jump\t// out\n        /* \"contracts/test.sol\":1625:1654  uint256 public conteoDeposito */\n    tag_34:\n      sload(0x03)\n      dup2\n      jump\t// out\n        /* \"contracts/test.sol\":1660:1687  uint256 public conteoRetiro */\n    tag_38:\n      sload(0x04)\n      dup2\n      jump\t// out\n        /* \"contracts/test.sol\":1473:1516  mapping (address => uint256) public balance */\n    tag_44:\n      mstore(0x20, 0x02)\n      dup1\n      0x00\n      mstore\n      keccak256(0x00, 0x40)\n      0x00\n      swap2\n      pop\n      swap1\n      pop\n      sload\n      dup2\n      jump\t// out\n        /* \"contracts/test.sol\":3336:3845  function retirar (uint cantidad) external {... */\n    tag_50:\n        /* \"contracts/test.sol\":3423:3436  umbralRetiros */\n      immutable(\"0x1d3be50b2bb17407dd170f1d5da128d1def30c6b1598d6a629e79b4775265526\")\n        /* \"contracts/test.sol\":3412:3420  cantidad */\n      dup2\n        /* \"contracts/test.sol\":3412:3436  cantidad > umbralRetiros */\n      gt\n        /* \"contracts/test.sol\":3408:3487  if (cantidad > umbralRetiros) revert RetiroInvalido(\"Cantidad mayor al umbral\") */\n      iszero\n      tag_66\n      jumpi\n        /* \"contracts/test.sol\":3445:3487  RetiroInvalido(\"Cantidad mayor al umbral\") */\n      mload(0x40)\n      0xe1edb10e00000000000000000000000000000000000000000000000000000000\n      dup2\n      mstore\n      0x04\n      add\n      tag_67\n      swap1\n      tag_68\n      jump\t// in\n    tag_67:\n      mload(0x40)\n      dup1\n      swap2\n      sub\n      swap1\n      revert\n        /* \"contracts/test.sol\":3408:3487  if (cantidad > umbralRetiros) revert RetiroInvalido(\"Cantidad mayor al umbral\") */\n    tag_66:\n        /* \"contracts/test.sol\":3512:3519  balance */\n      0x02\n        /* \"contracts/test.sol\":3512:3531  balance[msg.sender] */\n      0x00\n        /* \"contracts/test.sol\":3520:3530  msg.sender */\n      caller\n        /* \"contracts/test.sol\":3512:3531  balance[msg.sender] */\n      0xffffffffffffffffffffffffffffffffffffffff\n      and\n      0xffffffffffffffffffffffffffffffffffffffff\n      and\n      dup2\n      mstore\n      0x20\n      add\n      swap1\n      dup2\n      mstore\n      0x20\n      add\n      0x00\n      keccak256\n      sload\n        /* \"contracts/test.sol\":3501:3509  cantidad */\n      dup2\n        /* \"contracts/test.sol\":3501:3531  cantidad > balance[msg.sender] */\n      gt\n        /* \"contracts/test.sol\":3497:3583  if (cantidad > balance[msg.sender]) revert BalanceInsuficiente(\"Balance insuficiente\") */\n      iszero\n      tag_69\n      jumpi\n        /* \"contracts/test.sol\":3540:3583  BalanceInsuficiente(\"Balance insuficiente\") */\n      mload(0x40)\n      0x08fe34f500000000000000000000000000000000000000000000000000000000\n      dup2\n      mstore\n      0x04\n      add\n      tag_70\n      swap1\n      tag_71\n      jump\t// in\n    tag_70:\n      mload(0x40)\n      dup1\n      swap2\n      sub\n      swap1\n      revert\n        /* \"contracts/test.sol\":3497:3583  if (cantidad > balance[msg.sender]) revert BalanceInsuficiente(\"Balance insuficiente\") */\n    tag_69:\n        /* \"contracts/test.sol\":3674:3682  cantidad */\n      dup1\n        /* \"contracts/test.sol\":3651:3658  balance */\n      0x02\n        /* \"contracts/test.sol\":3651:3670  balance[msg.sender] */\n      0x00\n        /* \"contracts/test.sol\":3659:3669  msg.sender */\n      caller\n        /* \"contracts/test.sol\":3651:3670  balance[msg.sender] */\n      0xffffffffffffffffffffffffffffffffffffffff\n      and\n      0xffffffffffffffffffffffffffffffffffffffff\n      and\n      dup2\n      mstore\n      0x20\n      add\n      swap1\n      dup2\n      mstore\n      0x20\n      add\n      0x00\n      keccak256\n      0x00\n        /* \"contracts/test.sol\":3651:3682  balance[msg.sender] -= cantidad */\n      dup3\n      dup3\n      sload\n      tag_72\n      swap2\n      swap1\n      tag_73\n      jump\t// in\n    tag_72:\n      swap3\n      pop\n      pop\n      dup2\n      swap1\n      sstore\n      pop\n        /* \"contracts/test.sol\":3706:3714  cantidad */\n      dup1\n        /* \"contracts/test.sol\":3692:3702  totalBanco */\n      0x00\n      0x00\n        /* \"contracts/test.sol\":3692:3714  totalBanco -= cantidad */\n      dup3\n      dup3\n      sload\n      tag_74\n      swap2\n      swap1\n      tag_73\n      jump\t// in\n    tag_74:\n      swap3\n      pop\n      pop\n      dup2\n      swap1\n      sstore\n      pop\n        /* \"contracts/test.sol\":3724:3736  conteoRetiro */\n      0x04\n      0x00\n        /* \"contracts/test.sol\":3724:3738  conteoRetiro++ */\n      dup2\n      sload\n      dup1\n      swap3\n      swap2\n      swap1\n      tag_75\n      swap1\n      tag_63\n      jump\t// in\n    tag_75:\n      swap2\n      swap1\n      pop\n      sstore\n      pop\n        /* \"contracts/test.sol\":3773:3806  _transferir(msg.sender, cantidad) */\n      tag_76\n        /* \"contracts/test.sol\":3785:3795  msg.sender */\n      caller\n        /* \"contracts/test.sol\":3797:3805  cantidad */\n      dup3\n        /* \"contracts/test.sol\":3773:3784  _transferir */\n      tag_77\n        /* \"contracts/test.sol\":3773:3806  _transferir(msg.sender, cantidad) */\n      jump\t// in\n    tag_76:\n        /* \"contracts/test.sol\":3336:3845  function retirar (uint cantidad) external {... */\n      pop\n      jump\t// out\n        /* \"contracts/test.sol\":1908:1940  uint256 public immutable bankCap */\n    tag_53:\n      immutable(\"0x8e8fab5f003314da8d1873ea7720e8d9f47650136d916064d1edb8a11d682624\")\n      dup2\n      jump\t// out\n        /* \"contracts/test.sol\":3851:4046  function _transferir(address destinatario, uint256 cantidad) private {... */\n    tag_77:\n        /* \"contracts/test.sol\":3931:3943  bool success */\n      0x00\n        /* \"contracts/test.sol\":3949:3961  destinatario */\n      dup3\n        /* \"contracts/test.sol\":3949:3966  destinatario.call */\n      0xffffffffffffffffffffffffffffffffffffffff\n      and\n        /* \"contracts/test.sol\":3974:3982  cantidad */\n      dup3\n        /* \"contracts/test.sol\":3949:3987  destinatario.call{value: cantidad}(\"\") */\n      mload(0x40)\n      tag_79\n      swap1\n      tag_80\n      jump\t// in\n    tag_79:\n      0x00\n      mload(0x40)\n      dup1\n      dup4\n      sub\n      dup2\n      dup6\n      dup8\n      gas\n      call\n      swap3\n      pop\n      pop\n      pop\n      returndatasize\n      dup1\n      0x00\n      dup2\n      eq\n      tag_83\n      jumpi\n      mload(0x40)\n      swap2\n      pop\n      and(add(returndatasize, 0x3f), not(0x1f))\n      dup3\n      add\n      0x40\n      mstore\n      returndatasize\n      dup3\n      mstore\n      returndatasize\n      0x00\n      0x20\n      dup5\n      add\n      returndatacopy\n      jump(tag_82)\n    tag_83:\n      0x60\n      swap2\n      pop\n    tag_82:\n      pop\n        /* \"contracts/test.sol\":3930:3987  (bool success, ) = destinatario.call{value: cantidad}(\"\") */\n      pop\n      swap1\n      pop\n        /* \"contracts/test.sol\":4005:4012  success */\n      dup1\n        /* \"contracts/test.sol\":3997:4039  require(success, \"Fallo la transferencia\") */\n      tag_84\n      jumpi\n      mload(0x40)\n      0x08c379a000000000000000000000000000000000000000000000000000000000\n      dup2\n      mstore\n      0x04\n      add\n      tag_85\n      swap1\n      tag_86\n      jump\t// in\n    tag_85:\n      mload(0x40)\n      dup1\n      swap2\n      sub\n      swap1\n      revert\n    tag_84:\n        /* \"contracts/test.sol\":3920:4046  {... */\n      pop\n        /* \"contracts/test.sol\":3851:4046  function _transferir(address destinatario, uint256 cantidad) private {... */\n      pop\n      pop\n      jump\t// out\n        /* \"#utility.yul\":7:84   */\n    tag_87:\n        /* \"#utility.yul\":44:51   */\n      0x00\n        /* \"#utility.yul\":73:78   */\n      dup2\n        /* \"#utility.yul\":62:78   */\n      swap1\n      pop\n        /* \"#utility.yul\":7:84   */\n      swap2\n      swap1\n      pop\n      jump\t// out\n        /* \"#utility.yul\":90:208   */\n    tag_88:\n        /* \"#utility.yul\":177:201   */\n      tag_113\n        /* \"#utility.yul\":195:200   */\n      dup2\n        /* \"#utility.yul\":177:201   */\n      tag_87\n      jump\t// in\n    tag_113:\n        /* \"#utility.yul\":172:175   */\n      dup3\n        /* \"#utility.yul\":165:202   */\n      mstore\n        /* \"#utility.yul\":90:208   */\n      pop\n      pop\n      jump\t// out\n        /* \"#utility.yul\":214:436   */\n    tag_19:\n        /* \"#utility.yul\":307:311   */\n      0x00\n        /* \"#utility.yul\":345:347   */\n      0x20\n        /* \"#utility.yul\":334:343   */\n      dup3\n        /* \"#utility.yul\":330:348   */\n      add\n        /* \"#utility.yul\":322:348   */\n      swap1\n      pop\n        /* \"#utility.yul\":358:429   */\n      tag_115\n        /* \"#utility.yul\":426:427   */\n      0x00\n        /* \"#utility.yul\":415:424   */\n      dup4\n        /* \"#utility.yul\":411:428   */\n      add\n        /* \"#utility.yul\":402:408   */\n      dup5\n        /* \"#utility.yul\":358:429   */\n      tag_88\n      jump\t// in\n    tag_115:\n        /* \"#utility.yul\":214:436   */\n      swap3\n      swap2\n      pop\n      pop\n      jump\t// out\n        /* \"#utility.yul\":523:640   */\n    tag_90:\n        /* \"#utility.yul\":632:633   */\n      0x00\n        /* \"#utility.yul\":629:630   */\n      0x00\n        /* \"#utility.yul\":622:634   */\n      revert\n        /* \"#utility.yul\":769:895   */\n    tag_92:\n        /* \"#utility.yul\":806:813   */\n      0x00\n        /* \"#utility.yul\":846:888   */\n      0xffffffffffffffffffffffffffffffffffffffff\n        /* \"#utility.yul\":839:844   */\n      dup3\n        /* \"#utility.yul\":835:889   */\n      and\n        /* \"#utility.yul\":824:889   */\n      swap1\n      pop\n        /* \"#utility.yul\":769:895   */\n      swap2\n      swap1\n      pop\n      jump\t// out\n        /* \"#utility.yul\":901:997   */\n    tag_93:\n        /* \"#utility.yul\":938:945   */\n      0x00\n        /* \"#utility.yul\":967:991   */\n      tag_121\n        /* \"#utility.yul\":985:990   */\n      dup3\n        /* \"#utility.yul\":967:991   */\n      tag_92\n      jump\t// in\n    tag_121:\n        /* \"#utility.yul\":956:991   */\n      swap1\n      pop\n        /* \"#utility.yul\":901:997   */\n      swap2\n      swap1\n      pop\n      jump\t// out\n        /* \"#utility.yul\":1003:1125   */\n    tag_94:\n        /* \"#utility.yul\":1076:1100   */\n      tag_123\n        /* \"#utility.yul\":1094:1099   */\n      dup2\n        /* \"#utility.yul\":1076:1100   */\n      tag_93\n      jump\t// in\n    tag_123:\n        /* \"#utility.yul\":1069:1074   */\n      dup2\n        /* \"#utility.yul\":1066:1101   */\n      eq\n        /* \"#utility.yul\":1056:1119   */\n      tag_124\n      jumpi\n        /* \"#utility.yul\":1115:1116   */\n      0x00\n        /* \"#utility.yul\":1112:1113   */\n      0x00\n        /* \"#utility.yul\":1105:1117   */\n      revert\n        /* \"#utility.yul\":1056:1119   */\n    tag_124:\n        /* \"#utility.yul\":1003:1125   */\n      pop\n      jump\t// out\n        /* \"#utility.yul\":1131:1270   */\n    tag_95:\n        /* \"#utility.yul\":1177:1182   */\n      0x00\n        /* \"#utility.yul\":1215:1221   */\n      dup2\n        /* \"#utility.yul\":1202:1222   */\n      calldataload\n        /* \"#utility.yul\":1193:1222   */\n      swap1\n      pop\n        /* \"#utility.yul\":1231:1264   */\n      tag_126\n        /* \"#utility.yul\":1258:1263   */\n      dup2\n        /* \"#utility.yul\":1231:1264   */\n      tag_94\n      jump\t// in\n    tag_126:\n        /* \"#utility.yul\":1131:1270   */\n      swap3\n      swap2\n      pop\n      pop\n      jump\t// out\n        /* \"#utility.yul\":1276:1605   */\n    tag_43:\n        /* \"#utility.yul\":1335:1341   */\n      0x00\n        /* \"#utility.yul\":1384:1386   */\n      0x20\n        /* \"#utility.yul\":1372:1381   */\n      dup3\n        /* \"#utility.yul\":1363:1370   */\n      dup5\n        /* \"#utility.yul\":1359:1382   */\n      sub\n        /* \"#utility.yul\":1355:1387   */\n      slt\n        /* \"#utility.yul\":1352:1471   */\n      iszero\n      tag_128\n      jumpi\n        /* \"#utility.yul\":1390:1469   */\n      tag_129\n      tag_90\n      jump\t// in\n    tag_129:\n        /* \"#utility.yul\":1352:1471   */\n    tag_128:\n        /* \"#utility.yul\":1510:1511   */\n      0x00\n        /* \"#utility.yul\":1535:1588   */\n      tag_130\n        /* \"#utility.yul\":1580:1587   */\n      dup5\n        /* \"#utility.yul\":1571:1577   */\n      dup3\n        /* \"#utility.yul\":1560:1569   */\n      dup6\n        /* \"#utility.yul\":1556:1578   */\n      add\n        /* \"#utility.yul\":1535:1588   */\n      tag_95\n      jump\t// in\n    tag_130:\n        /* \"#utility.yul\":1525:1588   */\n      swap2\n      pop\n        /* \"#utility.yul\":1481:1598   */\n      pop\n        /* \"#utility.yul\":1276:1605   */\n      swap3\n      swap2\n      pop\n      pop\n      jump\t// out\n        /* \"#utility.yul\":1611:1733   */\n    tag_96:\n        /* \"#utility.yul\":1684:1708   */\n      tag_132\n        /* \"#utility.yul\":1702:1707   */\n      dup2\n        /* \"#utility.yul\":1684:1708   */\n      tag_87\n      jump\t// in\n    tag_132:\n        /* \"#utility.yul\":1677:1682   */\n      dup2\n        /* \"#utility.yul\":1674:1709   */\n      eq\n        /* \"#utility.yul\":1664:1727   */\n      tag_133\n      jumpi\n        /* \"#utility.yul\":1723:1724   */\n      0x00\n        /* \"#utility.yul\":1720:1721   */\n      0x00\n        /* \"#utility.yul\":1713:1725   */\n      revert\n        /* \"#utility.yul\":1664:1727   */\n    tag_133:\n        /* \"#utility.yul\":1611:1733   */\n      pop\n      jump\t// out\n        /* \"#utility.yul\":1739:1878   */\n    tag_97:\n        /* \"#utility.yul\":1785:1790   */\n      0x00\n        /* \"#utility.yul\":1823:1829   */\n      dup2\n        /* \"#utility.yul\":1810:1830   */\n      calldataload\n        /* \"#utility.yul\":1801:1830   */\n      swap1\n      pop\n        /* \"#utility.yul\":1839:1872   */\n      tag_135\n        /* \"#utility.yul\":1866:1871   */\n      dup2\n        /* \"#utility.yul\":1839:1872   */\n      tag_96\n      jump\t// in\n    tag_135:\n        /* \"#utility.yul\":1739:1878   */\n      swap3\n      swap2\n      pop\n      pop\n      jump\t// out\n        /* \"#utility.yul\":1884:2213   */\n    tag_49:\n        /* \"#utility.yul\":1943:1949   */\n      0x00\n        /* \"#utility.yul\":1992:1994   */\n      0x20\n        /* \"#utility.yul\":1980:1989   */\n      dup3\n        /* \"#utility.yul\":1971:1978   */\n      dup5\n        /* \"#utility.yul\":1967:1990   */\n      sub\n        /* \"#utility.yul\":1963:1995   */\n      slt\n        /* \"#utility.yul\":1960:2079   */\n      iszero\n      tag_137\n      jumpi\n        /* \"#utility.yul\":1998:2077   */\n      tag_138\n      tag_90\n      jump\t// in\n    tag_138:\n        /* \"#utility.yul\":1960:2079   */\n    tag_137:\n        /* \"#utility.yul\":2118:2119   */\n      0x00\n        /* \"#utility.yul\":2143:2196   */\n      tag_139\n        /* \"#utility.yul\":2188:2195   */\n      dup5\n        /* \"#utility.yul\":2179:2185   */\n      dup3\n        /* \"#utility.yul\":2168:2177   */\n      dup6\n        /* \"#utility.yul\":2164:2186   */\n      add\n        /* \"#utility.yul\":2143:2196   */\n      tag_97\n      jump\t// in\n    tag_139:\n        /* \"#utility.yul\":2133:2196   */\n      swap2\n      pop\n        /* \"#utility.yul\":2089:2206   */\n      pop\n        /* \"#utility.yul\":1884:2213   */\n      swap3\n      swap2\n      pop\n      pop\n      jump\t// out\n        /* \"#utility.yul\":2219:2399   */\n    tag_98:\n        /* \"#utility.yul\":2267:2344   */\n      0x4e487b7100000000000000000000000000000000000000000000000000000000\n        /* \"#utility.yul\":2264:2265   */\n      0x00\n        /* \"#utility.yul\":2257:2345   */\n      mstore\n        /* \"#utility.yul\":2364:2368   */\n      0x11\n        /* \"#utility.yul\":2361:2362   */\n      0x04\n        /* \"#utility.yul\":2354:2369   */\n      mstore\n        /* \"#utility.yul\":2388:2392   */\n      0x24\n        /* \"#utility.yul\":2385:2386   */\n      0x00\n        /* \"#utility.yul\":2378:2393   */\n      revert\n        /* \"#utility.yul\":2405:2596   */\n    tag_57:\n        /* \"#utility.yul\":2445:2448   */\n      0x00\n        /* \"#utility.yul\":2464:2484   */\n      tag_142\n        /* \"#utility.yul\":2482:2483   */\n      dup3\n        /* \"#utility.yul\":2464:2484   */\n      tag_87\n      jump\t// in\n    tag_142:\n        /* \"#utility.yul\":2459:2484   */\n      swap2\n      pop\n        /* \"#utility.yul\":2498:2518   */\n      tag_143\n        /* \"#utility.yul\":2516:2517   */\n      dup4\n        /* \"#utility.yul\":2498:2518   */\n      tag_87\n      jump\t// in\n    tag_143:\n        /* \"#utility.yul\":2493:2518   */\n      swap3\n      pop\n        /* \"#utility.yul\":2541:2542   */\n      dup3\n        /* \"#utility.yul\":2538:2539   */\n      dup3\n        /* \"#utility.yul\":2534:2543   */\n      add\n        /* \"#utility.yul\":2527:2543   */\n      swap1\n      pop\n        /* \"#utility.yul\":2562:2565   */\n      dup1\n        /* \"#utility.yul\":2559:2560   */\n      dup3\n        /* \"#utility.yul\":2556:2566   */\n      gt\n        /* \"#utility.yul\":2553:2589   */\n      iszero\n      tag_144\n      jumpi\n        /* \"#utility.yul\":2569:2587   */\n      tag_145\n      tag_98\n      jump\t// in\n    tag_145:\n        /* \"#utility.yul\":2553:2589   */\n    tag_144:\n        /* \"#utility.yul\":2405:2596   */\n      swap3\n      swap2\n      pop\n      pop\n      jump\t// out\n        /* \"#utility.yul\":2602:2835   */\n    tag_63:\n        /* \"#utility.yul\":2641:2644   */\n      0x00\n        /* \"#utility.yul\":2664:2688   */\n      tag_147\n        /* \"#utility.yul\":2682:2687   */\n      dup3\n        /* \"#utility.yul\":2664:2688   */\n      tag_87\n      jump\t// in\n    tag_147:\n        /* \"#utility.yul\":2655:2688   */\n      swap2\n      pop\n        /* \"#utility.yul\":2710:2776   */\n      0xffffffffffffffffffffffffffffffffffffffffffffffffffffffffffffffff\n        /* \"#utility.yul\":2703:2708   */\n      dup3\n        /* \"#utility.yul\":2700:2777   */\n      sub\n        /* \"#utility.yul\":2697:2800   */\n      tag_148\n      jumpi\n        /* \"#utility.yul\":2780:2798   */\n      tag_149\n      tag_98\n      jump\t// in\n    tag_149:\n        /* \"#utility.yul\":2697:2800   */\n    tag_148:\n        /* \"#utility.yul\":2827:2828   */\n      0x01\n        /* \"#utility.yul\":2820:2825   */\n      dup3\n        /* \"#utility.yul\":2816:2829   */\n      add\n        /* \"#utility.yul\":2809:2829   */\n      swap1\n      pop\n        /* \"#utility.yul\":2602:2835   */\n      swap2\n      swap1\n      pop\n      jump\t// out\n        /* \"#utility.yul\":2841:3009   */\n    tag_99:\n        /* \"#utility.yul\":2924:2935   */\n      0x00\n        /* \"#utility.yul\":2958:2964   */\n      dup3\n        /* \"#utility.yul\":2953:2956   */\n      dup3\n        /* \"#utility.yul\":2946:2965   */\n      mstore\n        /* \"#utility.yul\":2998:3002   */\n      0x20\n        /* \"#utility.yul\":2993:2996   */\n      dup3\n        /* \"#utility.yul\":2989:3003   */\n      add\n        /* \"#utility.yul\":2974:3003   */\n      swap1\n      pop\n        /* \"#utility.yul\":2841:3009   */\n      swap3\n      swap2\n      pop\n      pop\n      jump\t// out\n        /* \"#utility.yul\":3015:3189   */\n    tag_100:\n        /* \"#utility.yul\":3155:3181   */\n      0x43616e7469646164206d61796f7220616c20756d6272616c0000000000000000\n        /* \"#utility.yul\":3151:3152   */\n      0x00\n        /* \"#utility.yul\":3143:3149   */\n      dup3\n        /* \"#utility.yul\":3139:3153   */\n      add\n        /* \"#utility.yul\":3132:3182   */\n      mstore\n        /* \"#utility.yul\":3015:3189   */\n      pop\n      jump\t// out\n        /* \"#utility.yul\":3195:3559   */\n    tag_101:\n        /* \"#utility.yul\":3336:3339   */\n      0x00\n        /* \"#utility.yul\":3357:3423   */\n      tag_153\n        /* \"#utility.yul\":3420:3422   */\n      0x18\n        /* \"#utility.yul\":3415:3418   */\n      dup4\n        /* \"#utility.yul\":3357:3423   */\n      tag_99\n      jump\t// in\n    tag_153:\n        /* \"#utility.yul\":3350:3423   */\n      swap2\n      pop\n        /* \"#utility.yul\":3432:3525   */\n      tag_154\n        /* \"#utility.yul\":3521:3524   */\n      dup3\n        /* \"#utility.yul\":3432:3525   */\n      tag_100\n      jump\t// in\n    tag_154:\n        /* \"#utility.yul\":3550:3552   */\n      0x20\n        /* \"#utility.yul\":3545:3548   */\n      dup3\n        /* \"#utility.yul\":3541:3553   */\n      add\n        /* \"#utility.yul\":3534:3553   */\n      swap1\n      pop\n        /* \"#utility.yul\":3195:3559   */\n      swap2\n      swap1\n      pop\n      jump\t// out\n        /* \"#utility.yul\":3565:3982   */\n    tag_68:\n        /* \"#utility.yul\":3730:3734   */\n      0x00\n        /* \"#utility.yul\":3768:3770   */\n      0x20\n        /* \"#utility.yul\":3757:3766   */\n      dup3\n        /* \"#utility.yul\":3753:3771   */\n      add\n        /* \"#utility.yul\":3745:3771   */\n      swap1\n      pop\n        /* \"#utility.yul\":3817:3826   */\n      dup2\n        /* \"#utility.yul\":3811:3815   */\n      dup2\n        /* \"#utility.yul\":3807:3827   */\n      sub\n        /* \"#utility.yul\":3803:3804   */\n      0x00\n        /* \"#utility.yul\":3792:3801   */\n      dup4\n        /* \"#utility.yul\":3788:3805   */\n      add\n        /* \"#utility.yul\":3781:3828   */\n      mstore\n        /* \"#utility.yul\":3845:3975   */\n      tag_156\n        /* \"#utility.yul\":3970:3974   */\n      dup2\n        /* \"#utility.yul\":3845:3975   */\n      tag_101\n      jump\t// in\n    tag_156:\n        /* \"#utility.yul\":3837:3975   */\n      swap1\n      pop\n        /* \"#utility.yul\":3565:3982   */\n      swap2\n      swap1\n      pop\n      jump\t// out\n        /* \"#utility.yul\":3988:4158   */\n    tag_102:\n        /* \"#utility.yul\":4128:4150   */\n      0x42616c616e636520696e737566696369656e7465000000000000000000000000\n        /* \"#utility.yul\":4124:4125   */\n      0x00\n        /* \"#utility.yul\":4116:4122   */\n      dup3\n        /* \"#utility.yul\":4112:4126   */\n      add\n        /* \"#utility.yul\":4105:4151   */\n      mstore\n        /* \"#utility.yul\":3988:4158   */\n      pop\n      jump\t// out\n        /* \"#utility.yul\":4164:4528   */\n    tag_103:\n        /* \"#utility.yul\":4305:4308   */\n      0x00\n        /* \"#utility.yul\":4326:4392   */\n      tag_159\n        /* \"#utility.yul\":4389:4391   */\n      0x14\n        /* \"#utility.yul\":4384:4387   */\n      dup4\n        /* \"#utility.yul\":4326:4392   */\n      tag_99\n      jump\t// in\n    tag_159:\n        /* \"#utility.yul\":4319:4392   */\n      swap2\n      pop\n        /* \"#utility.yul\":4401:4494   */\n      tag_160\n        /* \"#utility.yul\":4490:4493   */\n      dup3\n        /* \"#utility.yul\":4401:4494   */\n      tag_102\n      jump\t// in\n    tag_160:\n        /* \"#utility.yul\":4519:4521   */\n      0x20\n        /* \"#utility.yul\":4514:4517   */\n      dup3\n        /* \"#utility.yul\":4510:4522   */\n      add\n        /* \"#utility.yul\":4503:4522   */\n      swap1\n      pop\n        /* \"#utility.yul\":4164:4528   */\n      swap2\n      swap1\n      pop\n      jump\t// out\n        /* \"#utility.yul\":4534:4951   */\n    tag_71:\n        /* \"#utility.yul\":4699:4703   */\n      0x00\n        /* \"#utility.yul\":4737:4739   */\n      0x20\n        /* \"#utility.yul\":4726:4735   */\n      dup3\n        /* \"#utility.yul\":4722:4740   */\n      add\n        /* \"#utility.yul\":4714:4740   */\n      swap1\n      pop\n        /* \"#utility.yul\":4786:4795   */\n      dup2\n        /* \"#utility.yul\":4780:4784   */\n      dup2\n        /* \"#utility.yul\":4776:4796   */\n      sub\n        /* \"#utility.yul\":4772:4773   */\n      0x00\n        /* \"#utility.yul\":4761:4770   */\n      dup4\n        /* \"#utility.yul\":4757:4774   */\n      add\n        /* \"#utility.yul\":4750:4797   */\n      mstore\n        /* \"#utility.yul\":4814:4944   */\n      tag_162\n        /* \"#utility.yul\":4939:4943   */\n      dup2\n        /* \"#utility.yul\":4814:4944   */\n      tag_103\n      jump\t// in\n    tag_162:\n        /* \"#utility.yul\":4806:4944   */\n      swap1\n      pop\n        /* \"#utility.yul\":4534:4951   */\n      swap2\n      swap1\n      pop\n      jump\t// out\n        /* \"#utility.yul\":4957:5151   */\n    tag_73:\n        /* \"#utility.yul\":4997:5001   */\n      0x00\n        /* \"#utility.yul\":5017:5037   */\n      tag_164\n        /* \"#utility.yul\":5035:5036   */\n      dup3\n        /* \"#utility.yul\":5017:5037   */\n      tag_87\n      jump\t// in\n    tag_164:\n        /* \"#utility.yul\":5012:5037   */\n      swap2\n      pop\n        /* \"#utility.yul\":5051:5071   */\n      tag_165\n        /* \"#utility.yul\":5069:5070   */\n      dup4\n        /* \"#utility.yul\":5051:5071   */\n      tag_87\n      jump\t// in\n    tag_165:\n        /* \"#utility.yul\":5046:5071   */\n      swap3\n      pop\n        /* \"#utility.yul\":5095:5096   */\n      dup3\n        /* \"#utility.yul\":5092:5093   */\n      dup3\n        /* \"#utility.yul\":5088:5097   */\n      sub\n        /* \"#utility.yul\":5080:5097   */\n      swap1\n      pop\n        /* \"#utility.yul\":5119:5120   */\n      dup2\n        /* \"#utility.yul\":5113:5117   */\n      dup2\n        /* \"#utility.yul\":5110:5121   */\n      gt\n        /* \"#utility.yul\":5107:5144   */\n      iszero\n      tag_166\n      jumpi\n        /* \"#utility.yul\":5124:5142   */\n      tag_167\n      tag_98\n      jump\t// in\n    tag_167:\n        /* \"#utility.yul\":5107:5144   */\n    tag_166:\n        /* \"#utility.yul\":4957:5151   */\n      swap3\n      swap2\n      pop\n      pop\n      jump\t// out\n        /* \"#utility.yul\":5157:5304   */\n    tag_104:\n        /* \"#utility.yul\":5258:5269   */\n      0x00\n        /* \"#utility.yul\":5295:5298   */\n      dup2\n        /* \"#utility.yul\":5280:5298   */\n      swap1\n      pop\n        /* \"#utility.yul\":5157:5304   */\n      swap3\n      swap2\n      pop\n      pop\n      jump\t// out\n        /* \"#utility.yul\":5310:5424   */\n    tag_105:\n      pop\n      jump\t// out\n        /* \"#utility.yul\":5430:5828   */\n    tag_106:\n        /* \"#utility.yul\":5589:5592   */\n      0x00\n        /* \"#utility.yul\":5610:5693   */\n      tag_171\n        /* \"#utility.yul\":5691:5692   */\n      0x00\n        /* \"#utility.yul\":5686:5689   */\n      dup4\n        /* \"#utility.yul\":5610:5693   */\n      tag_104\n      jump\t// in\n    tag_171:\n        /* \"#utility.yul\":5603:5693   */\n      swap2\n      pop\n        /* \"#utility.yul\":5702:5795   */\n      tag_172\n        /* \"#utility.yul\":5791:5794   */\n      dup3\n        /* \"#utility.yul\":5702:5795   */\n      tag_105\n      jump\t// in\n    tag_172:\n        /* \"#utility.yul\":5820:5821   */\n      0x00\n        /* \"#utility.yul\":5815:5818   */\n      dup3\n        /* \"#utility.yul\":5811:5822   */\n      add\n        /* \"#utility.yul\":5804:5822   */\n      swap1\n      pop\n        /* \"#utility.yul\":5430:5828   */\n      swap2\n      swap1\n      pop\n      jump\t// out\n        /* \"#utility.yul\":5834:6213   */\n    tag_80:\n        /* \"#utility.yul\":6018:6021   */\n      0x00\n        /* \"#utility.yul\":6040:6187   */\n      tag_174\n        /* \"#utility.yul\":6183:6186   */\n      dup3\n        /* \"#utility.yul\":6040:6187   */\n      tag_106\n      jump\t// in\n    tag_174:\n        /* \"#utility.yul\":6033:6187   */\n      swap2\n      pop\n        /* \"#utility.yul\":6204:6207   */\n      dup2\n        /* \"#utility.yul\":6197:6207   */\n      swap1\n      pop\n        /* \"#utility.yul\":5834:6213   */\n      swap2\n      swap1\n      pop\n      jump\t// out\n        /* \"#utility.yul\":6219:6388   */\n    tag_107:\n        /* \"#utility.yul\":6303:6314   */\n      0x00\n        /* \"#utility.yul\":6337:6343   */\n      dup3\n        /* \"#utility.yul\":6332:6335   */\n      dup3\n        /* \"#utility.yul\":6325:6344   */\n      mstore\n        /* \"#utility.yul\":6377:6381   */\n      0x20\n        /* \"#utility.yul\":6372:6375   */\n      dup3\n        /* \"#utility.yul\":6368:6382   */\n      add\n        /* \"#utility.yul\":6353:6382   */\n      swap1\n      pop\n        /* \"#utility.yul\":6219:6388   */\n      swap3\n      swap2\n      pop\n      pop\n      jump\t// out\n        /* \"#utility.yul\":6394:6566   */\n    tag_108:\n        /* \"#utility.yul\":6534:6558   */\n      0x46616c6c6f206c61207472616e73666572656e63696100000000000000000000\n        /* \"#utility.yul\":6530:6531   */\n      0x00\n        /* \"#utility.yul\":6522:6528   */\n      dup3\n        /* \"#utility.yul\":6518:6532   */\n      add\n        /* \"#utility.yul\":6511:6559   */\n      mstore\n        /* \"#utility.yul\":6394:6566   */\n      pop\n      jump\t// out\n        /* \"#utility.yul\":6572:6938   */\n    tag_109:\n        /* \"#utility.yul\":6714:6717   */\n      0x00\n        /* \"#utility.yul\":6735:6802   */\n      tag_178\n        /* \"#utility.yul\":6799:6801   */\n      0x16\n        /* \"#utility.yul\":6794:6797   */\n      dup4\n        /* \"#utility.yul\":6735:6802   */\n      tag_107\n      jump\t// in\n    tag_178:\n        /* \"#utility.yul\":6728:6802   */\n      swap2\n      pop\n        /* \"#utility.yul\":6811:6904   */\n      tag_179\n        /* \"#utility.yul\":6900:6903   */\n      dup3\n        /* \"#utility.yul\":6811:6904   */\n      tag_108\n      jump\t// in\n    tag_179:\n        /* \"#utility.yul\":6929:6931   */\n      0x20\n        /* \"#utility.yul\":6924:6927   */\n      dup3\n        /* \"#utility.yul\":6920:6932   */\n      add\n        /* \"#utility.yul\":6913:6932   */\n      swap1\n      pop\n        /* \"#utility.yul\":6572:6938   */\n      swap2\n      swap1\n      pop\n      jump\t// out\n        /* \"#utility.yul\":6944:7363   */\n    tag_86:\n        /* \"#utility.yul\":7110:7114   */\n      0x00\n        /* \"#utility.yul\":7148:7150   */\n      0x20\n        /* \"#utility.yul\":7137:7146   */\n      dup3\n        /* \"#utility.yul\":7133:7151   */\n      add\n        /* \"#utility.yul\":7125:7151   */\n      swap1\n      pop\n        /* \"#utility.yul\":7197:7206   */\n      dup2\n        /* \"#utility.yul\":7191:7195   */\n      dup2\n        /* \"#utility.yul\":7187:7207   */\n      sub\n        /* \"#utility.yul\":7183:7184   */\n      0x00\n        /* \"#utility.yul\":7172:7181   */\n      dup4\n        /* \"#utility.yul\":7168:7185   */\n      add\n        /* \"#utility.yul\":7161:7208   */\n      mstore\n        /* \"#utility.yul\":7225:7356   */\n      tag_181\n        /* \"#utility.yul\":7351:7355   */\n      dup2\n        /* \"#utility.yul\":7225:7356   */\n      tag_109\n      jump\t// in\n    tag_181:\n        /* \"#utility.yul\":7217:7356   */\n      swap1\n      pop\n        /* \"#utility.yul\":6944:7363   */\n      swap2\n      swap1\n      pop\n      jump\t// out\n\n    auxdata: 0xa2646970667358221220268ca9d249e134ecaba8a94e5f068b1872ceed1b86ba38a0539882f14f447fcf64736f6c634300081e0033\n}\n",
				"bytecode": {
					"linkReferences": {},
					"object": "60c060405234801561000f575f5ffd5b50604051610adf380380610adf83398181016040528101906100319190610085565b81608081815250508060a081815250505f5f8190555050506100c3565b5f5ffd5b5f819050919050565b61006481610052565b811461006e575f5ffd5b50565b5f8151905061007f8161005b565b92915050565b5f5f6040838503121561009b5761009a61004e565b5b5f6100a885828601610071565b92505060206100b985828601610071565b9150509250929050565b60805160a0516109ed6100f25f395f818161022a015261056601525f818161036101526103f501526109ed5ff3fe608060405260043610610090575f3560e01c8063c9578e1b11610058578063c9578e1b14610146578063cee9029214610170578063e3d670d71461019a578063e8b1298f146101d6578063ecbea24d146101fe57610090565b80633d922f901461009457806342cc9fdb1461009e5780634c738909146100c85780635f0073d0146100f25780638559126f1461011c575b5f5ffd5b61009c610228565b005b3480156100a9575f5ffd5b506100b261035f565b6040516100bf919061064d565b60405180910390f35b3480156100d3575f5ffd5b506100dc610383565b6040516100e9919061064d565b60405180910390f35b3480156100fd575f5ffd5b506101066103c7565b604051610113919061064d565b60405180910390f35b348015610127575f5ffd5b506101306103cd565b60405161013d919061064d565b60405180910390f35b348015610151575f5ffd5b5061015a6103d2565b604051610167919061064d565b60405180910390f35b34801561017b575f5ffd5b506101846103d8565b604051610191919061064d565b60405180910390f35b3480156101a5575f5ffd5b506101c060048036038101906101bb91906106c4565b6103de565b6040516101cd919061064d565b60405180910390f35b3480156101e1575f5ffd5b506101fc60048036038101906101f79190610719565b6103f3565b005b348015610209575f5ffd5b50610212610564565b60405161021f919061064d565b60405180910390f35b7f00000000000000000000000000000000000000000000000000000000000000005f54346102569190610771565b111561028e576040517f1fe673dd00000000000000000000000000000000000000000000000000000000815260040160405180910390fd5b3460025f3373ffffffffffffffffffffffffffffffffffffffff1673ffffffffffffffffffffffffffffffffffffffff1681526020019081526020015f205f8282546102da9190610771565b92505081905550345f5f8282546102f19190610771565b925050819055503373ffffffffffffffffffffffffffffffffffffffff167f8e13c232b6ad491513c1540f8bc226e1c5072f2f8b9bcd13088a478c67fd5a493460405161033e919061064d565b60405180910390a260035f815480929190610358906107a4565b9190505550565b7f000000000000000000000000000000000000000000000000000000000000000081565b5f60025f3373ffffffffffffffffffffffffffffffffffffffff1673ffffffffffffffffffffffffffffffffffffffff1681526020019081526020015f2054905090565b60015481565b5f5481565b60035481565b60045481565b6002602052805f5260405f205f915090505481565b7f0000000000000000000000000000000000000000000000000000000000000000811115610456576040517fe1edb10e00000000000000000000000000000000000000000000000000000000815260040161044d90610845565b60405180910390fd5b60025f3373ffffffffffffffffffffffffffffffffffffffff1673ffffffffffffffffffffffffffffffffffffffff1681526020019081526020015f20548111156104d6576040517f08fe34f50000000000000000000000000000000000000000000000000000000081526004016104cd906108ad565b60405180910390fd5b8060025f3373ffffffffffffffffffffffffffffffffffffffff1673ffffffffffffffffffffffffffffffffffffffff1681526020019081526020015f205f82825461052291906108cb565b92505081905550805f5f82825461053991906108cb565b9250508190555060045f815480929190610552906107a4565b91905055506105613382610588565b50565b7f000000000000000000000000000000000000000000000000000000000000000081565b5f8273ffffffffffffffffffffffffffffffffffffffff16826040516105ad9061092b565b5f6040518083038185875af1925050503d805f81146105e7576040519150601f19603f3d011682016040523d82523d5f602084013e6105ec565b606091505b5050905080610630576040517f08c379a000000000000000000000000000000000000000000000000000000000815260040161062790610999565b60405180910390fd5b505050565b5f819050919050565b61064781610635565b82525050565b5f6020820190506106605f83018461063e565b92915050565b5f5ffd5b5f73ffffffffffffffffffffffffffffffffffffffff82169050919050565b5f6106938261066a565b9050919050565b6106a381610689565b81146106ad575f5ffd5b50565b5f813590506106be8161069a565b92915050565b5f602082840312156106d9576106d8610666565b5b5f6106e6848285016106b0565b91505092915050565b6106f881610635565b8114610702575f5ffd5b50565b5f81359050610713816106ef565b92915050565b5f6020828403121561072e5761072d610666565b5b5f61073b84828501610705565b91505092915050565b7f4e487b71000000000000000000000000000000000000000000000000000000005f52601160045260245ffd5b5f61077b82610635565b915061078683610635565b925082820190508082111561079e5761079d610744565b5b92915050565b5f6107ae82610635565b91507fffffffffffffffffffffffffffffffffffffffffffffffffffffffffffffffff82036107e0576107df610744565b5b600182019050919050565b5f82825260208201905092915050565b7f43616e7469646164206d61796f7220616c20756d6272616c00000000000000005f82015250565b5f61082f6018836107eb565b915061083a826107fb565b602082019050919050565b5f6020820190508181035f83015261085c81610823565b9050919050565b7f42616c616e636520696e737566696369656e74650000000000000000000000005f82015250565b5f6108976014836107eb565b91506108a282610863565b602082019050919050565b5f6020820190508181035f8301526108c48161088b565b9050919050565b5f6108d582610635565b91506108e083610635565b92508282039050818111156108f8576108f7610744565b5b92915050565b5f81905092915050565b50565b5f6109165f836108fe565b915061092182610908565b5f82019050919050565b5f6109358261090b565b9150819050919050565b5f82825260208201905092915050565b7f46616c6c6f206c61207472616e73666572656e636961000000000000000000005f82015250565b5f61098360168361093f565b915061098e8261094f565b602082019050919050565b5f6020820190508181035f8301526109b081610977565b905091905056fea2646970667358221220268ca9d249e134ecaba8a94e5f068b1872ceed1b86ba38a0539882f14f447fcf64736f6c634300081e0033",
					"opcodes": "PUSH1 0xC0 PUSH1 0x40 MSTORE CALLVALUE DUP1 ISZERO PUSH2 0xF JUMPI PUSH0 PUSH0 REVERT JUMPDEST POP PUSH1 0x40 MLOAD PUSH2 0xADF CODESIZE SUB DUP1 PUSH2 0xADF DUP4 CODECOPY DUP2 DUP2 ADD PUSH1 0x40 MSTORE DUP2 ADD SWAP1 PUSH2 0x31 SWAP2 SWAP1 PUSH2 0x85 JUMP JUMPDEST DUP2 PUSH1 0x80 DUP2 DUP2 MSTORE POP POP DUP1 PUSH1 0xA0 DUP2 DUP2 MSTORE POP POP PUSH0 PUSH0 DUP2 SWAP1 SSTORE POP POP POP PUSH2 0xC3 JUMP JUMPDEST PUSH0 PUSH0 REVERT JUMPDEST PUSH0 DUP2 SWAP1 POP SWAP2 SWAP1 POP JUMP JUMPDEST PUSH2 0x64 DUP2 PUSH2 0x52 JUMP JUMPDEST DUP2 EQ PUSH2 0x6E JUMPI PUSH0 PUSH0 REVERT JUMPDEST POP JUMP JUMPDEST PUSH0 DUP2 MLOAD SWAP1 POP PUSH2 0x7F DUP2 PUSH2 0x5B JUMP JUMPDEST SWAP3 SWAP2 POP POP JUMP JUMPDEST PUSH0 PUSH0 PUSH1 0x40 DUP4 DUP6 SUB SLT ISZERO PUSH2 0x9B JUMPI PUSH2 0x9A PUSH2 0x4E JUMP JUMPDEST JUMPDEST PUSH0 PUSH2 0xA8 DUP6 DUP3 DUP7 ADD PUSH2 0x71 JUMP JUMPDEST SWAP3 POP POP PUSH1 0x20 PUSH2 0xB9 DUP6 DUP3 DUP7 ADD PUSH2 0x71 JUMP JUMPDEST SWAP2 POP POP SWAP3 POP SWAP3 SWAP1 POP JUMP JUMPDEST PUSH1 0x80 MLOAD PUSH1 0xA0 MLOAD PUSH2 0x9ED PUSH2 0xF2 PUSH0 CODECOPY PUSH0 DUP2 DUP2 PUSH2 0x22A ADD MSTORE PUSH2 0x566 ADD MSTORE PUSH0 DUP2 DUP2 PUSH2 0x361 ADD MSTORE PUSH2 0x3F5 ADD MSTORE PUSH2 0x9ED PUSH0 RETURN INVALID PUSH1 0x80 PUSH1 0x40 MSTORE PUSH1 0x4 CALLDATASIZE LT PUSH2 0x90 JUMPI PUSH0 CALLDATALOAD PUSH1 0xE0 SHR DUP1 PUSH4 0xC9578E1B GT PUSH2 0x58 JUMPI DUP1 PUSH4 0xC9578E1B EQ PUSH2 0x146 JUMPI DUP1 PUSH4 0xCEE90292 EQ PUSH2 0x170 JUMPI DUP1 PUSH4 0xE3D670D7 EQ PUSH2 0x19A JUMPI DUP1 PUSH4 0xE8B1298F EQ PUSH2 0x1D6 JUMPI DUP1 PUSH4 0xECBEA24D EQ PUSH2 0x1FE JUMPI PUSH2 0x90 JUMP JUMPDEST DUP1 PUSH4 0x3D922F90 EQ PUSH2 0x94 JUMPI DUP1 PUSH4 0x42CC9FDB EQ PUSH2 0x9E JUMPI DUP1 PUSH4 0x4C738909 EQ PUSH2 0xC8 JUMPI DUP1 PUSH4 0x5F0073D0 EQ PUSH2 0xF2 JUMPI DUP1 PUSH4 0x8559126F EQ PUSH2 0x11C JUMPI JUMPDEST PUSH0 PUSH0 REVERT JUMPDEST PUSH2 0x9C PUSH2 0x228 JUMP JUMPDEST STOP JUMPDEST CALLVALUE DUP1 ISZERO PUSH2 0xA9 JUMPI PUSH0 PUSH0 REVERT JUMPDEST POP PUSH2 0xB2 PUSH2 0x35F JUMP JUMPDEST PUSH1 0x40 MLOAD PUSH2 0xBF SWAP2 SWAP1 PUSH2 0x64D JUMP JUMPDEST PUSH1 0x40 MLOAD DUP1 SWAP2 SUB SWAP1 RETURN JUMPDEST CALLVALUE DUP1 ISZERO PUSH2 0xD3 JUMPI PUSH0 PUSH0 REVERT JUMPDEST POP PUSH2 0xDC PUSH2 0x383 JUMP JUMPDEST PUSH1 0x40 MLOAD PUSH2 0xE9 SWAP2 SWAP1 PUSH2 0x64D JUMP JUMPDEST PUSH1 0x40 MLOAD DUP1 SWAP2 SUB SWAP1 RETURN JUMPDEST CALLVALUE DUP1 ISZERO PUSH2 0xFD JUMPI PUSH0 PUSH0 REVERT JUMPDEST POP PUSH2 0x106 PUSH2 0x3C7 JUMP JUMPDEST PUSH1 0x40 MLOAD PUSH2 0x113 SWAP2 SWAP1 PUSH2 0x64D JUMP JUMPDEST PUSH1 0x40 MLOAD DUP1 SWAP2 SUB SWAP1 RETURN JUMPDEST CALLVALUE DUP1 ISZERO PUSH2 0x127 JUMPI PUSH0 PUSH0 REVERT JUMPDEST POP PUSH2 0x130 PUSH2 0x3CD JUMP JUMPDEST PUSH1 0x40 MLOAD PUSH2 0x13D SWAP2 SWAP1 PUSH2 0x64D JUMP JUMPDEST PUSH1 0x40 MLOAD DUP1 SWAP2 SUB SWAP1 RETURN JUMPDEST CALLVALUE DUP1 ISZERO PUSH2 0x151 JUMPI PUSH0 PUSH0 REVERT JUMPDEST POP PUSH2 0x15A PUSH2 0x3D2 JUMP JUMPDEST PUSH1 0x40 MLOAD PUSH2 0x167 SWAP2 SWAP1 PUSH2 0x64D JUMP JUMPDEST PUSH1 0x40 MLOAD DUP1 SWAP2 SUB SWAP1 RETURN JUMPDEST CALLVALUE DUP1 ISZERO PUSH2 0x17B JUMPI PUSH0 PUSH0 REVERT JUMPDEST POP PUSH2 0x184 PUSH2 0x3D8 JUMP JUMPDEST PUSH1 0x40 MLOAD PUSH2 0x191 SWAP2 SWAP1 PUSH2 0x64D JUMP JUMPDEST PUSH1 0x40 MLOAD DUP1 SWAP2 SUB SWAP1 RETURN JUMPDEST CALLVALUE DUP1 ISZERO PUSH2 0x1A5 JUMPI PUSH0 PUSH0 REVERT JUMPDEST POP PUSH2 0x1C0 PUSH1 0x4 DUP1 CALLDATASIZE SUB DUP2 ADD SWAP1 PUSH2 0x1BB SWAP2 SWAP1 PUSH2 0x6C4 JUMP JUMPDEST PUSH2 0x3DE JUMP JUMPDEST PUSH1 0x40 MLOAD PUSH2 0x1CD SWAP2 SWAP1 PUSH2 0x64D JUMP JUMPDEST PUSH1 0x40 MLOAD DUP1 SWAP2 SUB SWAP1 RETURN JUMPDEST CALLVALUE DUP1 ISZERO PUSH2 0x1E1 JUMPI PUSH0 PUSH0 REVERT JUMPDEST POP PUSH2 0x1FC PUSH1 0x4 DUP1 CALLDATASIZE SUB DUP2 ADD SWAP1 PUSH2 0x1F7 SWAP2 SWAP1 PUSH2 0x719 JUMP JUMPDEST PUSH2 0x3F3 JUMP JUMPDEST STOP JUMPDEST CALLVALUE DUP1 ISZERO PUSH2 0x209 JUMPI PUSH0 PUSH0 REVERT JUMPDEST POP PUSH2 0x212 PUSH2 0x564 JUMP JUMPDEST PUSH1 0x40 MLOAD PUSH2 0x21F SWAP2 SWAP1 PUSH2 0x64D JUMP JUMPDEST PUSH1 0x40 MLOAD DUP1 SWAP2 SUB SWAP1 RETURN JUMPDEST PUSH32 0x0 PUSH0 SLOAD CALLVALUE PUSH2 0x256 SWAP2 SWAP1 PUSH2 0x771 JUMP JUMPDEST GT ISZERO PUSH2 0x28E JUMPI PUSH1 0x40 MLOAD PUSH32 0x1FE673DD00000000000000000000000000000000000000000000000000000000 DUP2 MSTORE PUSH1 0x4 ADD PUSH1 0x40 MLOAD DUP1 SWAP2 SUB SWAP1 REVERT JUMPDEST CALLVALUE PUSH1 0x2 PUSH0 CALLER PUSH20 0xFFFFFFFFFFFFFFFFFFFFFFFFFFFFFFFFFFFFFFFF AND PUSH20 0xFFFFFFFFFFFFFFFFFFFFFFFFFFFFFFFFFFFFFFFF AND DUP2 MSTORE PUSH1 0x20 ADD SWAP1 DUP2 MSTORE PUSH1 0x20 ADD PUSH0 KECCAK256 PUSH0 DUP3 DUP3 SLOAD PUSH2 0x2DA SWAP2 SWAP1 PUSH2 0x771 JUMP JUMPDEST SWAP3 POP POP DUP2 SWAP1 SSTORE POP CALLVALUE PUSH0 PUSH0 DUP3 DUP3 SLOAD PUSH2 0x2F1 SWAP2 SWAP1 PUSH2 0x771 JUMP JUMPDEST SWAP3 POP POP DUP2 SWAP1 SSTORE POP CALLER PUSH20 0xFFFFFFFFFFFFFFFFFFFFFFFFFFFFFFFFFFFFFFFF AND PUSH32 0x8E13C232B6AD491513C1540F8BC226E1C5072F2F8B9BCD13088A478C67FD5A49 CALLVALUE PUSH1 0x40 MLOAD PUSH2 0x33E SWAP2 SWAP1 PUSH2 0x64D JUMP JUMPDEST PUSH1 0x40 MLOAD DUP1 SWAP2 SUB SWAP1 LOG2 PUSH1 0x3 PUSH0 DUP2 SLOAD DUP1 SWAP3 SWAP2 SWAP1 PUSH2 0x358 SWAP1 PUSH2 0x7A4 JUMP JUMPDEST SWAP2 SWAP1 POP SSTORE POP JUMP JUMPDEST PUSH32 0x0 DUP2 JUMP JUMPDEST PUSH0 PUSH1 0x2 PUSH0 CALLER PUSH20 0xFFFFFFFFFFFFFFFFFFFFFFFFFFFFFFFFFFFFFFFF AND PUSH20 0xFFFFFFFFFFFFFFFFFFFFFFFFFFFFFFFFFFFFFFFF AND DUP2 MSTORE PUSH1 0x20 ADD SWAP1 DUP2 MSTORE PUSH1 0x20 ADD PUSH0 KECCAK256 SLOAD SWAP1 POP SWAP1 JUMP JUMPDEST PUSH1 0x1 SLOAD DUP2 JUMP JUMPDEST PUSH0 SLOAD DUP2 JUMP JUMPDEST PUSH1 0x3 SLOAD DUP2 JUMP JUMPDEST PUSH1 0x4 SLOAD DUP2 JUMP JUMPDEST PUSH1 0x2 PUSH1 0x20 MSTORE DUP1 PUSH0 MSTORE PUSH1 0x40 PUSH0 KECCAK256 PUSH0 SWAP2 POP SWAP1 POP SLOAD DUP2 JUMP JUMPDEST PUSH32 0x0 DUP2 GT ISZERO PUSH2 0x456 JUMPI PUSH1 0x40 MLOAD PUSH32 0xE1EDB10E00000000000000000000000000000000000000000000000000000000 DUP2 MSTORE PUSH1 0x4 ADD PUSH2 0x44D SWAP1 PUSH2 0x845 JUMP JUMPDEST PUSH1 0x40 MLOAD DUP1 SWAP2 SUB SWAP1 REVERT JUMPDEST PUSH1 0x2 PUSH0 CALLER PUSH20 0xFFFFFFFFFFFFFFFFFFFFFFFFFFFFFFFFFFFFFFFF AND PUSH20 0xFFFFFFFFFFFFFFFFFFFFFFFFFFFFFFFFFFFFFFFF AND DUP2 MSTORE PUSH1 0x20 ADD SWAP1 DUP2 MSTORE PUSH1 0x20 ADD PUSH0 KECCAK256 SLOAD DUP2 GT ISZERO PUSH2 0x4D6 JUMPI PUSH1 0x40 MLOAD PUSH32 0x8FE34F500000000000000000000000000000000000000000000000000000000 DUP2 MSTORE PUSH1 0x4 ADD PUSH2 0x4CD SWAP1 PUSH2 0x8AD JUMP JUMPDEST PUSH1 0x40 MLOAD DUP1 SWAP2 SUB SWAP1 REVERT JUMPDEST DUP1 PUSH1 0x2 PUSH0 CALLER PUSH20 0xFFFFFFFFFFFFFFFFFFFFFFFFFFFFFFFFFFFFFFFF AND PUSH20 0xFFFFFFFFFFFFFFFFFFFFFFFFFFFFFFFFFFFFFFFF AND DUP2 MSTORE PUSH1 0x20 ADD SWAP1 DUP2 MSTORE PUSH1 0x20 ADD PUSH0 KECCAK256 PUSH0 DUP3 DUP3 SLOAD PUSH2 0x522 SWAP2 SWAP1 PUSH2 0x8CB JUMP JUMPDEST SWAP3 POP POP DUP2 SWAP1 SSTORE POP DUP1 PUSH0 PUSH0 DUP3 DUP3 SLOAD PUSH2 0x539 SWAP2 SWAP1 PUSH2 0x8CB JUMP JUMPDEST SWAP3 POP POP DUP2 SWAP1 SSTORE POP PUSH1 0x4 PUSH0 DUP2 SLOAD DUP1 SWAP3 SWAP2 SWAP1 PUSH2 0x552 SWAP1 PUSH2 0x7A4 JUMP JUMPDEST SWAP2 SWAP1 POP SSTORE POP PUSH2 0x561 CALLER DUP3 PUSH2 0x588 JUMP JUMPDEST POP JUMP JUMPDEST PUSH32 0x0 DUP2 JUMP JUMPDEST PUSH0 DUP3 PUSH20 0xFFFFFFFFFFFFFFFFFFFFFFFFFFFFFFFFFFFFFFFF AND DUP3 PUSH1 0x40 MLOAD PUSH2 0x5AD SWAP1 PUSH2 0x92B JUMP JUMPDEST PUSH0 PUSH1 0x40 MLOAD DUP1 DUP4 SUB DUP2 DUP6 DUP8 GAS CALL SWAP3 POP POP POP RETURNDATASIZE DUP1 PUSH0 DUP2 EQ PUSH2 0x5E7 JUMPI PUSH1 0x40 MLOAD SWAP2 POP PUSH1 0x1F NOT PUSH1 0x3F RETURNDATASIZE ADD AND DUP3 ADD PUSH1 0x40 MSTORE RETURNDATASIZE DUP3 MSTORE RETURNDATASIZE PUSH0 PUSH1 0x20 DUP5 ADD RETURNDATACOPY PUSH2 0x5EC JUMP JUMPDEST PUSH1 0x60 SWAP2 POP JUMPDEST POP POP SWAP1 POP DUP1 PUSH2 0x630 JUMPI PUSH1 0x40 MLOAD PUSH32 0x8C379A000000000000000000000000000000000000000000000000000000000 DUP2 MSTORE PUSH1 0x4 ADD PUSH2 0x627 SWAP1 PUSH2 0x999 JUMP JUMPDEST PUSH1 0x40 MLOAD DUP1 SWAP2 SUB SWAP1 REVERT JUMPDEST POP POP POP JUMP JUMPDEST PUSH0 DUP2 SWAP1 POP SWAP2 SWAP1 POP JUMP JUMPDEST PUSH2 0x647 DUP2 PUSH2 0x635 JUMP JUMPDEST DUP3 MSTORE POP POP JUMP JUMPDEST PUSH0 PUSH1 0x20 DUP3 ADD SWAP1 POP PUSH2 0x660 PUSH0 DUP4 ADD DUP5 PUSH2 0x63E JUMP JUMPDEST SWAP3 SWAP2 POP POP JUMP JUMPDEST PUSH0 PUSH0 REVERT JUMPDEST PUSH0 PUSH20 0xFFFFFFFFFFFFFFFFFFFFFFFFFFFFFFFFFFFFFFFF DUP3 AND SWAP1 POP SWAP2 SWAP1 POP JUMP JUMPDEST PUSH0 PUSH2 0x693 DUP3 PUSH2 0x66A JUMP JUMPDEST SWAP1 POP SWAP2 SWAP1 POP JUMP JUMPDEST PUSH2 0x6A3 DUP2 PUSH2 0x689 JUMP JUMPDEST DUP2 EQ PUSH2 0x6AD JUMPI PUSH0 PUSH0 REVERT JUMPDEST POP JUMP JUMPDEST PUSH0 DUP2 CALLDATALOAD SWAP1 POP PUSH2 0x6BE DUP2 PUSH2 0x69A JUMP JUMPDEST SWAP3 SWAP2 POP POP JUMP JUMPDEST PUSH0 PUSH1 0x20 DUP3 DUP5 SUB SLT ISZERO PUSH2 0x6D9 JUMPI PUSH2 0x6D8 PUSH2 0x666 JUMP JUMPDEST JUMPDEST PUSH0 PUSH2 0x6E6 DUP5 DUP3 DUP6 ADD PUSH2 0x6B0 JUMP JUMPDEST SWAP2 POP POP SWAP3 SWAP2 POP POP JUMP JUMPDEST PUSH2 0x6F8 DUP2 PUSH2 0x635 JUMP JUMPDEST DUP2 EQ PUSH2 0x702 JUMPI PUSH0 PUSH0 REVERT JUMPDEST POP JUMP JUMPDEST PUSH0 DUP2 CALLDATALOAD SWAP1 POP PUSH2 0x713 DUP2 PUSH2 0x6EF JUMP JUMPDEST SWAP3 SWAP2 POP POP JUMP JUMPDEST PUSH0 PUSH1 0x20 DUP3 DUP5 SUB SLT ISZERO PUSH2 0x72E JUMPI PUSH2 0x72D PUSH2 0x666 JUMP JUMPDEST JUMPDEST PUSH0 PUSH2 0x73B DUP5 DUP3 DUP6 ADD PUSH2 0x705 JUMP JUMPDEST SWAP2 POP POP SWAP3 SWAP2 POP POP JUMP JUMPDEST PUSH32 0x4E487B7100000000000000000000000000000000000000000000000000000000 PUSH0 MSTORE PUSH1 0x11 PUSH1 0x4 MSTORE PUSH1 0x24 PUSH0 REVERT JUMPDEST PUSH0 PUSH2 0x77B DUP3 PUSH2 0x635 JUMP JUMPDEST SWAP2 POP PUSH2 0x786 DUP4 PUSH2 0x635 JUMP JUMPDEST SWAP3 POP DUP3 DUP3 ADD SWAP1 POP DUP1 DUP3 GT ISZERO PUSH2 0x79E JUMPI PUSH2 0x79D PUSH2 0x744 JUMP JUMPDEST JUMPDEST SWAP3 SWAP2 POP POP JUMP JUMPDEST PUSH0 PUSH2 0x7AE DUP3 PUSH2 0x635 JUMP JUMPDEST SWAP2 POP PUSH32 0xFFFFFFFFFFFFFFFFFFFFFFFFFFFFFFFFFFFFFFFFFFFFFFFFFFFFFFFFFFFFFFFF DUP3 SUB PUSH2 0x7E0 JUMPI PUSH2 0x7DF PUSH2 0x744 JUMP JUMPDEST JUMPDEST PUSH1 0x1 DUP3 ADD SWAP1 POP SWAP2 SWAP1 POP JUMP JUMPDEST PUSH0 DUP3 DUP3 MSTORE PUSH1 0x20 DUP3 ADD SWAP1 POP SWAP3 SWAP2 POP POP JUMP JUMPDEST PUSH32 0x43616E7469646164206D61796F7220616C20756D6272616C0000000000000000 PUSH0 DUP3 ADD MSTORE POP JUMP JUMPDEST PUSH0 PUSH2 0x82F PUSH1 0x18 DUP4 PUSH2 0x7EB JUMP JUMPDEST SWAP2 POP PUSH2 0x83A DUP3 PUSH2 0x7FB JUMP JUMPDEST PUSH1 0x20 DUP3 ADD SWAP1 POP SWAP2 SWAP1 POP JUMP JUMPDEST PUSH0 PUSH1 0x20 DUP3 ADD SWAP1 POP DUP2 DUP2 SUB PUSH0 DUP4 ADD MSTORE PUSH2 0x85C DUP2 PUSH2 0x823 JUMP JUMPDEST SWAP1 POP SWAP2 SWAP1 POP JUMP JUMPDEST PUSH32 0x42616C616E636520696E737566696369656E7465000000000000000000000000 PUSH0 DUP3 ADD MSTORE POP JUMP JUMPDEST PUSH0 PUSH2 0x897 PUSH1 0x14 DUP4 PUSH2 0x7EB JUMP JUMPDEST SWAP2 POP PUSH2 0x8A2 DUP3 PUSH2 0x863 JUMP JUMPDEST PUSH1 0x20 DUP3 ADD SWAP1 POP SWAP2 SWAP1 POP JUMP JUMPDEST PUSH0 PUSH1 0x20 DUP3 ADD SWAP1 POP DUP2 DUP2 SUB PUSH0 DUP4 ADD MSTORE PUSH2 0x8C4 DUP2 PUSH2 0x88B JUMP JUMPDEST SWAP1 POP SWAP2 SWAP1 POP JUMP JUMPDEST PUSH0 PUSH2 0x8D5 DUP3 PUSH2 0x635 JUMP JUMPDEST SWAP2 POP PUSH2 0x8E0 DUP4 PUSH2 0x635 JUMP JUMPDEST SWAP3 POP DUP3 DUP3 SUB SWAP1 POP DUP2 DUP2 GT ISZERO PUSH2 0x8F8 JUMPI PUSH2 0x8F7 PUSH2 0x744 JUMP JUMPDEST JUMPDEST SWAP3 SWAP2 POP POP JUMP JUMPDEST PUSH0 DUP2 SWAP1 POP SWAP3 SWAP2 POP POP JUMP JUMPDEST POP JUMP JUMPDEST PUSH0 PUSH2 0x916 PUSH0 DUP4 PUSH2 0x8FE JUMP JUMPDEST SWAP2 POP PUSH2 0x921 DUP3 PUSH2 0x908 JUMP JUMPDEST PUSH0 DUP3 ADD SWAP1 POP SWAP2 SWAP1 POP JUMP JUMPDEST PUSH0 PUSH2 0x935 DUP3 PUSH2 0x90B JUMP JUMPDEST SWAP2 POP DUP2 SWAP1 POP SWAP2 SWAP1 POP JUMP JUMPDEST PUSH0 DUP3 DUP3 MSTORE PUSH1 0x20 DUP3 ADD SWAP1 POP SWAP3 SWAP2 POP POP JUMP JUMPDEST PUSH32 0x46616C6C6F206C61207472616E73666572656E63696100000000000000000000 PUSH0 DUP3 ADD MSTORE POP JUMP JUMPDEST PUSH0 PUSH2 0x983 PUSH1 0x16 DUP4 PUSH2 0x93F JUMP JUMPDEST SWAP2 POP PUSH2 0x98E DUP3 PUSH2 0x94F JUMP JUMPDEST PUSH1 0x20 DUP3 ADD SWAP1 POP SWAP2 SWAP1 POP JUMP JUMPDEST PUSH0 PUSH1 0x20 DUP3 ADD SWAP1 POP DUP2 DUP2 SUB PUSH0 DUP4 ADD MSTORE PUSH2 0x9B0 DUP2 PUSH2 0x977 JUMP JUMPDEST SWAP1 POP SWAP2 SWAP1 POP JUMP INVALID LOG2 PUSH5 0x6970667358 0x22 SLT KECCAK256 0x26 DUP13 0xA9 0xD2 BLOBHASH RJUMPI 0x34EC 0xAB 0xA8 0xA9 0x4E PUSH0 MOD DUP12 XOR PUSH19 0xCEED1B86BA38A0539882F14F447FCF64736F6C PUSH4 0x4300081E STOP CALLER "
				},
				"gasEstimates": {
					"creation": {
						"codeDepositCost": "508200",
						"executionCost": "infinite",
						"totalCost": "infinite"
					},
					"external": {
						"balance(address)": "2846",
						"bankCap()": "infinite",
						"conteoDeposito()": "2425",
						"conteoRetiro()": "2447",
						"depositar()": "infinite",
						"getMyBalance()": "2564",
						"retirar(uint256)": "infinite",
						"totalBanco()": "2513",
						"totalDepositado()": "2492",
						"umbralRetiros()": "infinite"
					},
					"internal": {
						"_transferir(address,uint256)": "infinite"
					}
				},
				"methodIdentifiers": {
					"balance(address)": "e3d670d7",
					"bankCap()": "ecbea24d",
					"conteoDeposito()": "c9578e1b",
					"conteoRetiro()": "cee90292",
					"depositar()": "3d922f90",
					"getMyBalance()": "4c738909",
					"retirar(uint256)": "e8b1298f",
					"totalBanco()": "8559126f",
					"totalDepositado()": "5f0073d0",
					"umbralRetiros()": "42cc9fdb"
				}
			},
			"storageLayout": {
				"storage": [
					{
						"astId": 3,
						"contract": "contracts/test.sol:KipuBank",
						"label": "totalBanco",
						"offset": 0,
						"slot": "0",
						"type": "t_uint256"
					},
					{
						"astId": 5,
						"contract": "contracts/test.sol:KipuBank",
						"label": "totalDepositado",
						"offset": 0,
						"slot": "1",
						"type": "t_uint256"
					},
					{
						"astId": 9,
						"contract": "contracts/test.sol:KipuBank",
						"label": "balance",
						"offset": 0,
						"slot": "2",
						"type": "t_mapping(t_address,t_uint256)"
					},
					{
						"astId": 11,
						"contract": "contracts/test.sol:KipuBank",
						"label": "conteoDeposito",
						"offset": 0,
						"slot": "3",
						"type": "t_uint256"
					},
					{
						"astId": 13,
						"contract": "contracts/test.sol:KipuBank",
						"label": "conteoRetiro",
						"offset": 0,
						"slot": "4",
						"type": "t_uint256"
					}
				],
				"types": {
					"t_address": {
						"encoding": "inplace",
						"label": "address",
						"numberOfBytes": "20"
					},
					"t_mapping(t_address,t_uint256)": {
						"encoding": "mapping",
						"key": "t_address",
						"label": "mapping(address => uint256)",
						"numberOfBytes": "32",
						"value": "t_uint256"
					},
					"t_uint256": {
						"encoding": "inplace",
						"label": "uint256",
						"numberOfBytes": "32"
					}
				}
			},
			"userdoc": {
				"kind": "user",
				"methods": {},
				"version": 1
			}
		}
	}
}