{
	"contracts/KipuBank.sol": {
		"KipuBank": {
			"abi": [
				{
					"inputs": [
						{
							"internalType": "uint256",
							"name": "_withdrawLimit",
							"type": "uint256"
						},
						{
							"internalType": "uint256",
							"name": "_bankCap",
							"type": "uint256"
						}
					],
					"stateMutability": "nonpayable",
					"type": "constructor"
				},
				{
					"inputs": [
						{
							"internalType": "uint256",
							"name": "attempted",
							"type": "uint256"
						},
						{
							"internalType": "uint256",
							"name": "remaining",
							"type": "uint256"
						}
					],
					"name": "BankCapExceeded",
					"type": "error"
				},
				{
					"inputs": [
						{
							"internalType": "uint256",
							"name": "requested",
							"type": "uint256"
						},
						{
							"internalType": "uint256",
							"name": "max",
							"type": "uint256"
						}
					],
					"name": "ExceedsPerTxWithdrawLimit",
					"type": "error"
				},
				{
					"inputs": [
						{
							"internalType": "uint256",
							"name": "available",
							"type": "uint256"
						},
						{
							"internalType": "uint256",
							"name": "requested",
							"type": "uint256"
						}
					],
					"name": "InsufficientBalance",
					"type": "error"
				},
				{
					"inputs": [],
					"name": "ZeroDeposit",
					"type": "error"
				},
				{
					"inputs": [],
					"name": "ZeroWithdraw",
					"type": "error"
				},
				{
					"anonymous": false,
					"inputs": [
						{
							"indexed": true,
							"internalType": "address",
							"name": "user",
							"type": "address"
						},
						{
							"indexed": false,
							"internalType": "uint256",
							"name": "amount",
							"type": "uint256"
						}
					],
					"name": "Deposited",
					"type": "event"
				},
				{
					"anonymous": false,
					"inputs": [
						{
							"indexed": true,
							"internalType": "address",
							"name": "user",
							"type": "address"
						},
						{
							"indexed": false,
							"internalType": "uint256",
							"name": "amount",
							"type": "uint256"
						}
					],
					"name": "Withdrawn",
					"type": "event"
				},
				{
					"inputs": [],
					"name": "bankCap",
					"outputs": [
						{
							"internalType": "uint256",
							"name": "",
							"type": "uint256"
						}
					],
					"stateMutability": "view",
					"type": "function"
				},
				{
					"inputs": [],
					"name": "deposit",
					"outputs": [],
					"stateMutability": "payable",
					"type": "function"
				},
				{
					"inputs": [],
					"name": "depositCount",
					"outputs": [
						{
							"internalType": "uint256",
							"name": "",
							"type": "uint256"
						}
					],
					"stateMutability": "view",
					"type": "function"
				},
				{
					"inputs": [],
					"name": "getMyBalance",
					"outputs": [
						{
							"internalType": "uint256",
							"name": "balance",
							"type": "uint256"
						}
					],
					"stateMutability": "view",
					"type": "function"
				},
				{
					"inputs": [
						{
							"internalType": "uint256",
							"name": "amount",
							"type": "uint256"
						}
					],
					"name": "withdraw",
					"outputs": [],
					"stateMutability": "nonpayable",
					"type": "function"
				},
				{
					"inputs": [],
					"name": "withdrawCount",
					"outputs": [
						{
							"internalType": "uint256",
							"name": "",
							"type": "uint256"
						}
					],
					"stateMutability": "view",
					"type": "function"
				},
				{
					"inputs": [],
					"name": "withdrawLimit",
					"outputs": [
						{
							"internalType": "uint256",
							"name": "",
							"type": "uint256"
						}
					],
					"stateMutability": "view",
					"type": "function"
				}
			],
			"devdoc": {
				"author": "cristhereum",
				"details": "Sigue patrones de seguridad de Solidity como CEI, errores personalizados y más.",
				"kind": "dev",
				"methods": {
					"constructor": {
						"params": {
							"_bankCap": "Capacidad total de depósitos del banco",
							"_withdrawLimit": "Máximo que se puede retirar por transacción"
						}
					},
					"deposit()": {
						"custom:error": "ZeroDeposit, BankCapExceeded",
						"details": "Sigue el patrón checks-effects-interactions"
					},
					"getMyBalance()": {
						"returns": {
							"balance": "ETH disponible del usuario"
						}
					},
					"withdraw(uint256)": {
						"custom:error": "ExceedsPerTxWithdrawLimit, InsufficientBalance, ZeroWithdraw",
						"params": {
							"amount": "Cantidad a retirar"
						}
					}
				},
				"title": "KipuBank - Bóveda personal con límites de retiro y depósito.",
				"version": 1
			},
			"evm": {
				"assembly": "    /* \"contracts/KipuBank.sol\":334:4098  contract KipuBank {... */\n  mstore(0x40, 0xc0)\n    /* \"contracts/KipuBank.sol\":1666:1917  constructor(uint256 _withdrawLimit, uint256 _bankCap) {... */\n  callvalue\n  dup1\n  iszero\n  tag_1\n  jumpi\n  revert(0x00, 0x00)\ntag_1:\n  pop\n  mload(0x40)\n  sub(codesize, bytecodeSize)\n  dup1\n  bytecodeSize\n  dup4\n  codecopy\n  dup2\n  dup2\n  add\n  0x40\n  mstore\n  dup2\n  add\n  swap1\n  tag_2\n  swap2\n  swap1\n  tag_3\n  jump\t// in\ntag_2:\n    /* \"contracts/KipuBank.sol\":1755:1756  0 */\n  0x00\n    /* \"contracts/KipuBank.sol\":1738:1752  _withdrawLimit */\n  dup3\n    /* \"contracts/KipuBank.sol\":1738:1756  _withdrawLimit > 0 */\n  gt\n    /* \"contracts/KipuBank.sol\":1730:1787  require(_withdrawLimit > 0, \"Withdraw limit must be > 0\") */\n  tag_6\n  jumpi\n  mload(0x40)\n  0x08c379a000000000000000000000000000000000000000000000000000000000\n  dup2\n  mstore\n  0x04\n  add\n  tag_7\n  swap1\n  tag_8\n  jump\t// in\ntag_7:\n  mload(0x40)\n  dup1\n  swap2\n  sub\n  swap1\n  revert\ntag_6:\n    /* \"contracts/KipuBank.sol\":1816:1817  0 */\n  0x00\n    /* \"contracts/KipuBank.sol\":1805:1813  _bankCap */\n  dup2\n    /* \"contracts/KipuBank.sol\":1805:1817  _bankCap > 0 */\n  gt\n    /* \"contracts/KipuBank.sol\":1797:1842  require(_bankCap > 0, \"Bank cap must be > 0\") */\n  tag_9\n  jumpi\n  mload(0x40)\n  0x08c379a000000000000000000000000000000000000000000000000000000000\n  dup2\n  mstore\n  0x04\n  add\n  tag_10\n  swap1\n  tag_11\n  jump\t// in\ntag_10:\n  mload(0x40)\n  dup1\n  swap2\n  sub\n  swap1\n  revert\ntag_9:\n    /* \"contracts/KipuBank.sol\":1868:1882  _withdrawLimit */\n  dup2\n    /* \"contracts/KipuBank.sol\":1852:1882  withdrawLimit = _withdrawLimit */\n  0x80\n  dup2\n  dup2\n  mstore\n  pop\n  pop\n    /* \"contracts/KipuBank.sol\":1902:1910  _bankCap */\n  dup1\n    /* \"contracts/KipuBank.sol\":1892:1910  bankCap = _bankCap */\n  0xa0\n  dup2\n  dup2\n  mstore\n  pop\n  pop\n    /* \"contracts/KipuBank.sol\":1666:1917  constructor(uint256 _withdrawLimit, uint256 _bankCap) {... */\n  pop\n  pop\n    /* \"contracts/KipuBank.sol\":334:4098  contract KipuBank {... */\n  jump(tag_12)\n    /* \"#utility.yul\":88:205   */\ntag_14:\n    /* \"#utility.yul\":197:198   */\n  0x00\n    /* \"#utility.yul\":194:195   */\n  0x00\n    /* \"#utility.yul\":187:199   */\n  revert\n    /* \"#utility.yul\":334:411   */\ntag_16:\n    /* \"#utility.yul\":371:378   */\n  0x00\n    /* \"#utility.yul\":400:405   */\n  dup2\n    /* \"#utility.yul\":389:405   */\n  swap1\n  pop\n    /* \"#utility.yul\":334:411   */\n  swap2\n  swap1\n  pop\n  jump\t// out\n    /* \"#utility.yul\":417:539   */\ntag_17:\n    /* \"#utility.yul\":490:514   */\n  tag_30\n    /* \"#utility.yul\":508:513   */\n  dup2\n    /* \"#utility.yul\":490:514   */\n  tag_16\n  jump\t// in\ntag_30:\n    /* \"#utility.yul\":483:488   */\n  dup2\n    /* \"#utility.yul\":480:515   */\n  eq\n    /* \"#utility.yul\":470:533   */\n  tag_31\n  jumpi\n    /* \"#utility.yul\":529:530   */\n  0x00\n    /* \"#utility.yul\":526:527   */\n  0x00\n    /* \"#utility.yul\":519:531   */\n  revert\n    /* \"#utility.yul\":470:533   */\ntag_31:\n    /* \"#utility.yul\":417:539   */\n  pop\n  jump\t// out\n    /* \"#utility.yul\":545:688   */\ntag_18:\n    /* \"#utility.yul\":602:607   */\n  0x00\n    /* \"#utility.yul\":633:639   */\n  dup2\n    /* \"#utility.yul\":627:640   */\n  mload\n    /* \"#utility.yul\":618:640   */\n  swap1\n  pop\n    /* \"#utility.yul\":649:682   */\n  tag_33\n    /* \"#utility.yul\":676:681   */\n  dup2\n    /* \"#utility.yul\":649:682   */\n  tag_17\n  jump\t// in\ntag_33:\n    /* \"#utility.yul\":545:688   */\n  swap3\n  swap2\n  pop\n  pop\n  jump\t// out\n    /* \"#utility.yul\":694:1201   */\ntag_3:\n    /* \"#utility.yul\":773:779   */\n  0x00\n    /* \"#utility.yul\":781:787   */\n  0x00\n    /* \"#utility.yul\":830:832   */\n  0x40\n    /* \"#utility.yul\":818:827   */\n  dup4\n    /* \"#utility.yul\":809:816   */\n  dup6\n    /* \"#utility.yul\":805:828   */\n  sub\n    /* \"#utility.yul\":801:833   */\n  slt\n    /* \"#utility.yul\":798:917   */\n  iszero\n  tag_35\n  jumpi\n    /* \"#utility.yul\":836:915   */\n  tag_36\n  tag_14\n  jump\t// in\ntag_36:\n    /* \"#utility.yul\":798:917   */\ntag_35:\n    /* \"#utility.yul\":956:957   */\n  0x00\n    /* \"#utility.yul\":981:1045   */\n  tag_37\n    /* \"#utility.yul\":1037:1044   */\n  dup6\n    /* \"#utility.yul\":1028:1034   */\n  dup3\n    /* \"#utility.yul\":1017:1026   */\n  dup7\n    /* \"#utility.yul\":1013:1035   */\n  add\n    /* \"#utility.yul\":981:1045   */\n  tag_18\n  jump\t// in\ntag_37:\n    /* \"#utility.yul\":971:1045   */\n  swap3\n  pop\n    /* \"#utility.yul\":927:1055   */\n  pop\n    /* \"#utility.yul\":1094:1096   */\n  0x20\n    /* \"#utility.yul\":1120:1184   */\n  tag_38\n    /* \"#utility.yul\":1176:1183   */\n  dup6\n    /* \"#utility.yul\":1167:1173   */\n  dup3\n    /* \"#utility.yul\":1156:1165   */\n  dup7\n    /* \"#utility.yul\":1152:1174   */\n  add\n    /* \"#utility.yul\":1120:1184   */\n  tag_18\n  jump\t// in\ntag_38:\n    /* \"#utility.yul\":1110:1184   */\n  swap2\n  pop\n    /* \"#utility.yul\":1065:1194   */\n  pop\n    /* \"#utility.yul\":694:1201   */\n  swap3\n  pop\n  swap3\n  swap1\n  pop\n  jump\t// out\n    /* \"#utility.yul\":1207:1376   */\ntag_19:\n    /* \"#utility.yul\":1291:1302   */\n  0x00\n    /* \"#utility.yul\":1325:1331   */\n  dup3\n    /* \"#utility.yul\":1320:1323   */\n  dup3\n    /* \"#utility.yul\":1313:1332   */\n  mstore\n    /* \"#utility.yul\":1365:1369   */\n  0x20\n    /* \"#utility.yul\":1360:1363   */\n  dup3\n    /* \"#utility.yul\":1356:1370   */\n  add\n    /* \"#utility.yul\":1341:1370   */\n  swap1\n  pop\n    /* \"#utility.yul\":1207:1376   */\n  swap3\n  swap2\n  pop\n  pop\n  jump\t// out\n    /* \"#utility.yul\":1382:1558   */\ntag_20:\n    /* \"#utility.yul\":1522:1550   */\n  0x5769746864726177206c696d6974206d757374206265203e2030000000000000\n    /* \"#utility.yul\":1518:1519   */\n  0x00\n    /* \"#utility.yul\":1510:1516   */\n  dup3\n    /* \"#utility.yul\":1506:1520   */\n  add\n    /* \"#utility.yul\":1499:1551   */\n  mstore\n    /* \"#utility.yul\":1382:1558   */\n  pop\n  jump\t// out\n    /* \"#utility.yul\":1564:1930   */\ntag_21:\n    /* \"#utility.yul\":1706:1709   */\n  0x00\n    /* \"#utility.yul\":1727:1794   */\n  tag_42\n    /* \"#utility.yul\":1791:1793   */\n  0x1a\n    /* \"#utility.yul\":1786:1789   */\n  dup4\n    /* \"#utility.yul\":1727:1794   */\n  tag_19\n  jump\t// in\ntag_42:\n    /* \"#utility.yul\":1720:1794   */\n  swap2\n  pop\n    /* \"#utility.yul\":1803:1896   */\n  tag_43\n    /* \"#utility.yul\":1892:1895   */\n  dup3\n    /* \"#utility.yul\":1803:1896   */\n  tag_20\n  jump\t// in\ntag_43:\n    /* \"#utility.yul\":1921:1923   */\n  0x20\n    /* \"#utility.yul\":1916:1919   */\n  dup3\n    /* \"#utility.yul\":1912:1924   */\n  add\n    /* \"#utility.yul\":1905:1924   */\n  swap1\n  pop\n    /* \"#utility.yul\":1564:1930   */\n  swap2\n  swap1\n  pop\n  jump\t// out\n    /* \"#utility.yul\":1936:2355   */\ntag_8:\n    /* \"#utility.yul\":2102:2106   */\n  0x00\n    /* \"#utility.yul\":2140:2142   */\n  0x20\n    /* \"#utility.yul\":2129:2138   */\n  dup3\n    /* \"#utility.yul\":2125:2143   */\n  add\n    /* \"#utility.yul\":2117:2143   */\n  swap1\n  pop\n    /* \"#utility.yul\":2189:2198   */\n  dup2\n    /* \"#utility.yul\":2183:2187   */\n  dup2\n    /* \"#utility.yul\":2179:2199   */\n  sub\n    /* \"#utility.yul\":2175:2176   */\n  0x00\n    /* \"#utility.yul\":2164:2173   */\n  dup4\n    /* \"#utility.yul\":2160:2177   */\n  add\n    /* \"#utility.yul\":2153:2200   */\n  mstore\n    /* \"#utility.yul\":2217:2348   */\n  tag_45\n    /* \"#utility.yul\":2343:2347   */\n  dup2\n    /* \"#utility.yul\":2217:2348   */\n  tag_21\n  jump\t// in\ntag_45:\n    /* \"#utility.yul\":2209:2348   */\n  swap1\n  pop\n    /* \"#utility.yul\":1936:2355   */\n  swap2\n  swap1\n  pop\n  jump\t// out\n    /* \"#utility.yul\":2361:2531   */\ntag_22:\n    /* \"#utility.yul\":2501:2523   */\n  0x42616e6b20636170206d757374206265203e2030000000000000000000000000\n    /* \"#utility.yul\":2497:2498   */\n  0x00\n    /* \"#utility.yul\":2489:2495   */\n  dup3\n    /* \"#utility.yul\":2485:2499   */\n  add\n    /* \"#utility.yul\":2478:2524   */\n  mstore\n    /* \"#utility.yul\":2361:2531   */\n  pop\n  jump\t// out\n    /* \"#utility.yul\":2537:2903   */\ntag_23:\n    /* \"#utility.yul\":2679:2682   */\n  0x00\n    /* \"#utility.yul\":2700:2767   */\n  tag_48\n    /* \"#utility.yul\":2764:2766   */\n  0x14\n    /* \"#utility.yul\":2759:2762   */\n  dup4\n    /* \"#utility.yul\":2700:2767   */\n  tag_19\n  jump\t// in\ntag_48:\n    /* \"#utility.yul\":2693:2767   */\n  swap2\n  pop\n    /* \"#utility.yul\":2776:2869   */\n  tag_49\n    /* \"#utility.yul\":2865:2868   */\n  dup3\n    /* \"#utility.yul\":2776:2869   */\n  tag_22\n  jump\t// in\ntag_49:\n    /* \"#utility.yul\":2894:2896   */\n  0x20\n    /* \"#utility.yul\":2889:2892   */\n  dup3\n    /* \"#utility.yul\":2885:2897   */\n  add\n    /* \"#utility.yul\":2878:2897   */\n  swap1\n  pop\n    /* \"#utility.yul\":2537:2903   */\n  swap2\n  swap1\n  pop\n  jump\t// out\n    /* \"#utility.yul\":2909:3328   */\ntag_11:\n    /* \"#utility.yul\":3075:3079   */\n  0x00\n    /* \"#utility.yul\":3113:3115   */\n  0x20\n    /* \"#utility.yul\":3102:3111   */\n  dup3\n    /* \"#utility.yul\":3098:3116   */\n  add\n    /* \"#utility.yul\":3090:3116   */\n  swap1\n  pop\n    /* \"#utility.yul\":3162:3171   */\n  dup2\n    /* \"#utility.yul\":3156:3160   */\n  dup2\n    /* \"#utility.yul\":3152:3172   */\n  sub\n    /* \"#utility.yul\":3148:3149   */\n  0x00\n    /* \"#utility.yul\":3137:3146   */\n  dup4\n    /* \"#utility.yul\":3133:3150   */\n  add\n    /* \"#utility.yul\":3126:3173   */\n  mstore\n    /* \"#utility.yul\":3190:3321   */\n  tag_51\n    /* \"#utility.yul\":3316:3320   */\n  dup2\n    /* \"#utility.yul\":3190:3321   */\n  tag_23\n  jump\t// in\ntag_51:\n    /* \"#utility.yul\":3182:3321   */\n  swap1\n  pop\n    /* \"#utility.yul\":2909:3328   */\n  swap2\n  swap1\n  pop\n  jump\t// out\n    /* \"contracts/KipuBank.sol\":334:4098  contract KipuBank {... */\ntag_12:\n  mload(0x80)\n  mload(0xa0)\n  codecopy(0x00, dataOffset(sub_0), dataSize(sub_0))\n  0x00\n  assignImmutable(\"0x2e9b7c94e032d8b3b8b30bd825717a5ac74958b53e7c37a892a4fd7dc56e4975\")\n  0x00\n  assignImmutable(\"0x6bcaf047ba4c8ac400fca43393035242dd1aabda2d6068a0c51242b97224de8d\")\n  return(0x00, dataSize(sub_0))\nstop\n\nsub_0: assembly {\n        /* \"contracts/KipuBank.sol\":334:4098  contract KipuBank {... */\n      mstore(0x40, 0x80)\n      jumpi(tag_1, lt(calldatasize, 0x04))\n      shr(0xe0, calldataload(0x00))\n      dup1\n      0x4cc05a71\n      gt\n      tag_9\n      jumpi\n      dup1\n      0x4cc05a71\n      eq\n      tag_5\n      jumpi\n      dup1\n      0xd0e30db0\n      eq\n      tag_6\n      jumpi\n      dup1\n      0xecbea24d\n      eq\n      tag_7\n      jumpi\n      dup1\n      0xf848d541\n      eq\n      tag_8\n      jumpi\n      jump(tag_1)\n    tag_9:\n      dup1\n      0x2dfdf0b5\n      eq\n      tag_2\n      jumpi\n      dup1\n      0x2e1a7d4d\n      eq\n      tag_3\n      jumpi\n      dup1\n      0x4c738909\n      eq\n      tag_4\n      jumpi\n    tag_1:\n      revert(0x00, 0x00)\n        /* \"contracts/KipuBank.sol\":1423:1450  uint256 public depositCount */\n    tag_2:\n      callvalue\n      dup1\n      iszero\n      tag_10\n      jumpi\n      revert(0x00, 0x00)\n    tag_10:\n      pop\n      tag_11\n      tag_12\n      jump\t// in\n    tag_11:\n      mload(0x40)\n      tag_13\n      swap2\n      swap1\n      tag_14\n      jump\t// in\n    tag_13:\n      mload(0x40)\n      dup1\n      swap2\n      sub\n      swap1\n      return\n        /* \"contracts/KipuBank.sol\":2888:3516  function withdraw(uint256 amount) external {... */\n    tag_3:\n      callvalue\n      dup1\n      iszero\n      tag_15\n      jumpi\n      revert(0x00, 0x00)\n    tag_15:\n      pop\n      tag_16\n      0x04\n      dup1\n      calldatasize\n      sub\n      dup2\n      add\n      swap1\n      tag_17\n      swap2\n      swap1\n      tag_18\n      jump\t// in\n    tag_17:\n      tag_19\n      jump\t// in\n    tag_16:\n      stop\n        /* \"contracts/KipuBank.sol\":3628:3736  function getMyBalance() external view returns (uint256 balance) {... */\n    tag_4:\n      callvalue\n      dup1\n      iszero\n      tag_20\n      jumpi\n      revert(0x00, 0x00)\n    tag_20:\n      pop\n      tag_21\n      tag_22\n      jump\t// in\n    tag_21:\n      mload(0x40)\n      tag_23\n      swap2\n      swap1\n      tag_14\n      jump\t// in\n    tag_23:\n      mload(0x40)\n      dup1\n      swap2\n      sub\n      swap1\n      return\n        /* \"contracts/KipuBank.sol\":1456:1484  uint256 public withdrawCount */\n    tag_5:\n      callvalue\n      dup1\n      iszero\n      tag_24\n      jumpi\n      revert(0x00, 0x00)\n    tag_24:\n      pop\n      tag_25\n      tag_26\n      jump\t// in\n    tag_25:\n      mload(0x40)\n      tag_27\n      swap2\n      swap1\n      tag_14\n      jump\t// in\n    tag_27:\n      mload(0x40)\n      dup1\n      swap2\n      sub\n      swap1\n      return\n        /* \"contracts/KipuBank.sol\":2398:2689  function deposit() external payable withinCap(msg.value) {... */\n    tag_6:\n      tag_28\n      tag_29\n      jump\t// in\n    tag_28:\n      stop\n        /* \"contracts/KipuBank.sol\":1115:1147  uint256 public immutable bankCap */\n    tag_7:\n      callvalue\n      dup1\n      iszero\n      tag_30\n      jumpi\n      revert(0x00, 0x00)\n    tag_30:\n      pop\n      tag_31\n      tag_32\n      jump\t// in\n    tag_31:\n      mload(0x40)\n      tag_33\n      swap2\n      swap1\n      tag_14\n      jump\t// in\n    tag_33:\n      mload(0x40)\n      dup1\n      swap2\n      sub\n      swap1\n      return\n        /* \"contracts/KipuBank.sol\":1020:1058  uint256 public immutable withdrawLimit */\n    tag_8:\n      callvalue\n      dup1\n      iszero\n      tag_34\n      jumpi\n      revert(0x00, 0x00)\n    tag_34:\n      pop\n      tag_35\n      tag_36\n      jump\t// in\n    tag_35:\n      mload(0x40)\n      tag_37\n      swap2\n      swap1\n      tag_14\n      jump\t// in\n    tag_37:\n      mload(0x40)\n      dup1\n      swap2\n      sub\n      swap1\n      return\n        /* \"contracts/KipuBank.sol\":1423:1450  uint256 public depositCount */\n    tag_12:\n      sload(0x02)\n      dup2\n      jump\t// out\n        /* \"contracts/KipuBank.sol\":2888:3516  function withdraw(uint256 amount) external {... */\n    tag_19:\n        /* \"contracts/KipuBank.sol\":2955:2956  0 */\n      0x00\n        /* \"contracts/KipuBank.sol\":2945:2951  amount */\n      dup2\n        /* \"contracts/KipuBank.sol\":2945:2956  amount == 0 */\n      sub\n        /* \"contracts/KipuBank.sol\":2941:3004  if (amount == 0) {... */\n      tag_39\n      jumpi\n        /* \"contracts/KipuBank.sol\":2979:2993  ZeroWithdraw() */\n      mload(0x40)\n      0xb8cb621900000000000000000000000000000000000000000000000000000000\n      dup2\n      mstore\n      0x04\n      add\n      mload(0x40)\n      dup1\n      swap2\n      sub\n      swap1\n      revert\n        /* \"contracts/KipuBank.sol\":2941:3004  if (amount == 0) {... */\n    tag_39:\n        /* \"contracts/KipuBank.sol\":3027:3040  withdrawLimit */\n      immutable(\"0x6bcaf047ba4c8ac400fca43393035242dd1aabda2d6068a0c51242b97224de8d\")\n        /* \"contracts/KipuBank.sol\":3018:3024  amount */\n      dup2\n        /* \"contracts/KipuBank.sol\":3018:3040  amount > withdrawLimit */\n      gt\n        /* \"contracts/KipuBank.sol\":3014:3122  if (amount > withdrawLimit) {... */\n      iszero\n      tag_40\n      jumpi\n        /* \"contracts/KipuBank.sol\":3089:3095  amount */\n      dup1\n        /* \"contracts/KipuBank.sol\":3097:3110  withdrawLimit */\n      immutable(\"0x6bcaf047ba4c8ac400fca43393035242dd1aabda2d6068a0c51242b97224de8d\")\n        /* \"contracts/KipuBank.sol\":3063:3111  ExceedsPerTxWithdrawLimit(amount, withdrawLimit) */\n      mload(0x40)\n      0x49eef9fd00000000000000000000000000000000000000000000000000000000\n      dup2\n      mstore\n      0x04\n      add\n      tag_41\n      swap3\n      swap2\n      swap1\n      tag_42\n      jump\t// in\n    tag_41:\n      mload(0x40)\n      dup1\n      swap2\n      sub\n      swap1\n      revert\n        /* \"contracts/KipuBank.sol\":3014:3122  if (amount > withdrawLimit) {... */\n    tag_40:\n        /* \"contracts/KipuBank.sol\":3132:3151  uint256 userBalance */\n      0x00\n        /* \"contracts/KipuBank.sol\":3154:3162  balances */\n      0x00\n        /* \"contracts/KipuBank.sol\":3154:3174  balances[msg.sender] */\n      0x00\n        /* \"contracts/KipuBank.sol\":3163:3173  msg.sender */\n      caller\n        /* \"contracts/KipuBank.sol\":3154:3174  balances[msg.sender] */\n      0xffffffffffffffffffffffffffffffffffffffff\n      and\n      0xffffffffffffffffffffffffffffffffffffffff\n      and\n      dup2\n      mstore\n      0x20\n      add\n      swap1\n      dup2\n      mstore\n      0x20\n      add\n      0x00\n      keccak256\n      sload\n        /* \"contracts/KipuBank.sol\":3132:3174  uint256 userBalance = balances[msg.sender] */\n      swap1\n      pop\n        /* \"contracts/KipuBank.sol\":3198:3209  userBalance */\n      dup1\n        /* \"contracts/KipuBank.sol\":3189:3195  amount */\n      dup3\n        /* \"contracts/KipuBank.sol\":3189:3209  amount > userBalance */\n      gt\n        /* \"contracts/KipuBank.sol\":3185:3283  if (amount > userBalance) {... */\n      iszero\n      tag_43\n      jumpi\n        /* \"contracts/KipuBank.sol\":3252:3263  userBalance */\n      dup1\n        /* \"contracts/KipuBank.sol\":3265:3271  amount */\n      dup3\n        /* \"contracts/KipuBank.sol\":3232:3272  InsufficientBalance(userBalance, amount) */\n      mload(0x40)\n      0xcf47918100000000000000000000000000000000000000000000000000000000\n      dup2\n      mstore\n      0x04\n      add\n      tag_44\n      swap3\n      swap2\n      swap1\n      tag_42\n      jump\t// in\n    tag_44:\n      mload(0x40)\n      dup1\n      swap2\n      sub\n      swap1\n      revert\n        /* \"contracts/KipuBank.sol\":3185:3283  if (amount > userBalance) {... */\n    tag_43:\n        /* \"contracts/KipuBank.sol\":3356:3362  amount */\n      dup2\n        /* \"contracts/KipuBank.sol\":3332:3340  balances */\n      0x00\n        /* \"contracts/KipuBank.sol\":3332:3352  balances[msg.sender] */\n      0x00\n        /* \"contracts/KipuBank.sol\":3341:3351  msg.sender */\n      caller\n        /* \"contracts/KipuBank.sol\":3332:3352  balances[msg.sender] */\n      0xffffffffffffffffffffffffffffffffffffffff\n      and\n      0xffffffffffffffffffffffffffffffffffffffff\n      and\n      dup2\n      mstore\n      0x20\n      add\n      swap1\n      dup2\n      mstore\n      0x20\n      add\n      0x00\n      keccak256\n      0x00\n        /* \"contracts/KipuBank.sol\":3332:3362  balances[msg.sender] -= amount */\n      dup3\n      dup3\n      sload\n      tag_45\n      swap2\n      swap1\n      tag_46\n      jump\t// in\n    tag_45:\n      swap3\n      pop\n      pop\n      dup2\n      swap1\n      sstore\n      pop\n        /* \"contracts/KipuBank.sol\":3390:3396  amount */\n      dup2\n        /* \"contracts/KipuBank.sol\":3372:3386  totalDeposited */\n      0x01\n      0x00\n        /* \"contracts/KipuBank.sol\":3372:3396  totalDeposited -= amount */\n      dup3\n      dup3\n      sload\n      tag_47\n      swap2\n      swap1\n      tag_46\n      jump\t// in\n    tag_47:\n      swap3\n      pop\n      pop\n      dup2\n      swap1\n      sstore\n      pop\n        /* \"contracts/KipuBank.sol\":3406:3419  withdrawCount */\n      0x03\n      0x00\n        /* \"contracts/KipuBank.sol\":3406:3421  withdrawCount++ */\n      dup2\n      sload\n      dup1\n      swap3\n      swap2\n      swap1\n      tag_48\n      swap1\n      tag_49\n      jump\t// in\n    tag_48:\n      swap2\n      swap1\n      pop\n      sstore\n      pop\n        /* \"contracts/KipuBank.sol\":3432:3465  _safeTransfer(msg.sender, amount) */\n      tag_50\n        /* \"contracts/KipuBank.sol\":3446:3456  msg.sender */\n      caller\n        /* \"contracts/KipuBank.sol\":3458:3464  amount */\n      dup4\n        /* \"contracts/KipuBank.sol\":3432:3445  _safeTransfer */\n      tag_51\n        /* \"contracts/KipuBank.sol\":3432:3465  _safeTransfer(msg.sender, amount) */\n      jump\t// in\n    tag_50:\n        /* \"contracts/KipuBank.sol\":3490:3500  msg.sender */\n      caller\n        /* \"contracts/KipuBank.sol\":3480:3509  Withdrawn(msg.sender, amount) */\n      0xffffffffffffffffffffffffffffffffffffffff\n      and\n      0x7084f5476618d8e60b11ef0d7d3f06914655adb8793e28ff7f018d4c76d505d5\n        /* \"contracts/KipuBank.sol\":3502:3508  amount */\n      dup4\n        /* \"contracts/KipuBank.sol\":3480:3509  Withdrawn(msg.sender, amount) */\n      mload(0x40)\n      tag_52\n      swap2\n      swap1\n      tag_14\n      jump\t// in\n    tag_52:\n      mload(0x40)\n      dup1\n      swap2\n      sub\n      swap1\n      log2\n        /* \"contracts/KipuBank.sol\":2931:3516  {... */\n      pop\n        /* \"contracts/KipuBank.sol\":2888:3516  function withdraw(uint256 amount) external {... */\n      pop\n      jump\t// out\n        /* \"contracts/KipuBank.sol\":3628:3736  function getMyBalance() external view returns (uint256 balance) {... */\n    tag_22:\n        /* \"contracts/KipuBank.sol\":3675:3690  uint256 balance */\n      0x00\n        /* \"contracts/KipuBank.sol\":3709:3717  balances */\n      0x00\n        /* \"contracts/KipuBank.sol\":3709:3729  balances[msg.sender] */\n      0x00\n        /* \"contracts/KipuBank.sol\":3718:3728  msg.sender */\n      caller\n        /* \"contracts/KipuBank.sol\":3709:3729  balances[msg.sender] */\n      0xffffffffffffffffffffffffffffffffffffffff\n      and\n      0xffffffffffffffffffffffffffffffffffffffff\n      and\n      dup2\n      mstore\n      0x20\n      add\n      swap1\n      dup2\n      mstore\n      0x20\n      add\n      0x00\n      keccak256\n      sload\n        /* \"contracts/KipuBank.sol\":3702:3729  return balances[msg.sender] */\n      swap1\n      pop\n        /* \"contracts/KipuBank.sol\":3628:3736  function getMyBalance() external view returns (uint256 balance) {... */\n      swap1\n      jump\t// out\n        /* \"contracts/KipuBank.sol\":1456:1484  uint256 public withdrawCount */\n    tag_26:\n      sload(0x03)\n      dup2\n      jump\t// out\n        /* \"contracts/KipuBank.sol\":2398:2689  function deposit() external payable withinCap(msg.value) {... */\n    tag_29:\n        /* \"contracts/KipuBank.sol\":2444:2453  msg.value */\n      callvalue\n        /* \"contracts/KipuBank.sol\":2104:2111  bankCap */\n      immutable(\"0x2e9b7c94e032d8b3b8b30bd825717a5ac74958b53e7c37a892a4fd7dc56e4975\")\n        /* \"contracts/KipuBank.sol\":2095:2101  amount */\n      dup2\n        /* \"contracts/KipuBank.sol\":2078:2092  totalDeposited */\n      sload(0x01)\n        /* \"contracts/KipuBank.sol\":2078:2101  totalDeposited + amount */\n      tag_55\n      swap2\n      swap1\n      tag_56\n      jump\t// in\n    tag_55:\n        /* \"contracts/KipuBank.sol\":2078:2111  totalDeposited + amount > bankCap */\n      gt\n        /* \"contracts/KipuBank.sol\":2074:2194  if (totalDeposited + amount > bankCap) {... */\n      iszero\n      tag_57\n      jumpi\n        /* \"contracts/KipuBank.sol\":2150:2156  amount */\n      dup1\n        /* \"contracts/KipuBank.sol\":2168:2182  totalDeposited */\n      sload(0x01)\n        /* \"contracts/KipuBank.sol\":2158:2165  bankCap */\n      immutable(\"0x2e9b7c94e032d8b3b8b30bd825717a5ac74958b53e7c37a892a4fd7dc56e4975\")\n        /* \"contracts/KipuBank.sol\":2158:2182  bankCap - totalDeposited */\n      tag_58\n      swap2\n      swap1\n      tag_46\n      jump\t// in\n    tag_58:\n        /* \"contracts/KipuBank.sol\":2134:2183  BankCapExceeded(amount, bankCap - totalDeposited) */\n      mload(0x40)\n      0x31728a0500000000000000000000000000000000000000000000000000000000\n      dup2\n      mstore\n      0x04\n      add\n      tag_59\n      swap3\n      swap2\n      swap1\n      tag_42\n      jump\t// in\n    tag_59:\n      mload(0x40)\n      dup1\n      swap2\n      sub\n      swap1\n      revert\n        /* \"contracts/KipuBank.sol\":2074:2194  if (totalDeposited + amount > bankCap) {... */\n    tag_57:\n        /* \"contracts/KipuBank.sol\":2482:2483  0 */\n      0x00\n        /* \"contracts/KipuBank.sol\":2469:2478  msg.value */\n      callvalue\n        /* \"contracts/KipuBank.sol\":2469:2483  msg.value == 0 */\n      sub\n        /* \"contracts/KipuBank.sol\":2465:2530  if (msg.value == 0) {... */\n      tag_61\n      jumpi\n        /* \"contracts/KipuBank.sol\":2506:2519  ZeroDeposit() */\n      mload(0x40)\n      0x56316e8700000000000000000000000000000000000000000000000000000000\n      dup2\n      mstore\n      0x04\n      add\n      mload(0x40)\n      dup1\n      swap2\n      sub\n      swap1\n      revert\n        /* \"contracts/KipuBank.sol\":2465:2530  if (msg.value == 0) {... */\n    tag_61:\n        /* \"contracts/KipuBank.sol\":2564:2573  msg.value */\n      callvalue\n        /* \"contracts/KipuBank.sol\":2540:2548  balances */\n      0x00\n        /* \"contracts/KipuBank.sol\":2540:2560  balances[msg.sender] */\n      0x00\n        /* \"contracts/KipuBank.sol\":2549:2559  msg.sender */\n      caller\n        /* \"contracts/KipuBank.sol\":2540:2560  balances[msg.sender] */\n      0xffffffffffffffffffffffffffffffffffffffff\n      and\n      0xffffffffffffffffffffffffffffffffffffffff\n      and\n      dup2\n      mstore\n      0x20\n      add\n      swap1\n      dup2\n      mstore\n      0x20\n      add\n      0x00\n      keccak256\n      0x00\n        /* \"contracts/KipuBank.sol\":2540:2573  balances[msg.sender] += msg.value */\n      dup3\n      dup3\n      sload\n      tag_62\n      swap2\n      swap1\n      tag_56\n      jump\t// in\n    tag_62:\n      swap3\n      pop\n      pop\n      dup2\n      swap1\n      sstore\n      pop\n        /* \"contracts/KipuBank.sol\":2601:2610  msg.value */\n      callvalue\n        /* \"contracts/KipuBank.sol\":2583:2597  totalDeposited */\n      0x01\n      0x00\n        /* \"contracts/KipuBank.sol\":2583:2610  totalDeposited += msg.value */\n      dup3\n      dup3\n      sload\n      tag_63\n      swap2\n      swap1\n      tag_56\n      jump\t// in\n    tag_63:\n      swap3\n      pop\n      pop\n      dup2\n      swap1\n      sstore\n      pop\n        /* \"contracts/KipuBank.sol\":2620:2632  depositCount */\n      0x02\n      0x00\n        /* \"contracts/KipuBank.sol\":2620:2634  depositCount++ */\n      dup2\n      sload\n      dup1\n      swap3\n      swap2\n      swap1\n      tag_64\n      swap1\n      tag_49\n      jump\t// in\n    tag_64:\n      swap2\n      swap1\n      pop\n      sstore\n      pop\n        /* \"contracts/KipuBank.sol\":2660:2670  msg.sender */\n      caller\n        /* \"contracts/KipuBank.sol\":2650:2682  Deposited(msg.sender, msg.value) */\n      0xffffffffffffffffffffffffffffffffffffffff\n      and\n      0x2da466a7b24304f47e87fa2e1e5a81b9831ce54fec19055ce277ca2f39ba42c4\n        /* \"contracts/KipuBank.sol\":2672:2681  msg.value */\n      callvalue\n        /* \"contracts/KipuBank.sol\":2650:2682  Deposited(msg.sender, msg.value) */\n      mload(0x40)\n      tag_65\n      swap2\n      swap1\n      tag_14\n      jump\t// in\n    tag_65:\n      mload(0x40)\n      dup1\n      swap2\n      sub\n      swap1\n      log2\n        /* \"contracts/KipuBank.sol\":2398:2689  function deposit() external payable withinCap(msg.value) {... */\n      pop\n      jump\t// out\n        /* \"contracts/KipuBank.sol\":1115:1147  uint256 public immutable bankCap */\n    tag_32:\n      immutable(\"0x2e9b7c94e032d8b3b8b30bd825717a5ac74958b53e7c37a892a4fd7dc56e4975\")\n      dup2\n      jump\t// out\n        /* \"contracts/KipuBank.sol\":1020:1058  uint256 public immutable withdrawLimit */\n    tag_36:\n      immutable(\"0x6bcaf047ba4c8ac400fca43393035242dd1aabda2d6068a0c51242b97224de8d\")\n      dup2\n      jump\t// out\n        /* \"contracts/KipuBank.sol\":3930:4096  function _safeTransfer(address to, uint256 amount) private {... */\n    tag_51:\n        /* \"contracts/KipuBank.sol\":4000:4012  bool success */\n      0x00\n        /* \"contracts/KipuBank.sol\":4018:4020  to */\n      dup3\n        /* \"contracts/KipuBank.sol\":4018:4025  to.call */\n      0xffffffffffffffffffffffffffffffffffffffff\n      and\n        /* \"contracts/KipuBank.sol\":4033:4039  amount */\n      dup3\n        /* \"contracts/KipuBank.sol\":4018:4044  to.call{value: amount}(\"\") */\n      mload(0x40)\n      tag_67\n      swap1\n      tag_68\n      jump\t// in\n    tag_67:\n      0x00\n      mload(0x40)\n      dup1\n      dup4\n      sub\n      dup2\n      dup6\n      dup8\n      gas\n      call\n      swap3\n      pop\n      pop\n      pop\n      returndatasize\n      dup1\n      0x00\n      dup2\n      eq\n      tag_71\n      jumpi\n      mload(0x40)\n      swap2\n      pop\n      and(add(returndatasize, 0x3f), not(0x1f))\n      dup3\n      add\n      0x40\n      mstore\n      returndatasize\n      dup3\n      mstore\n      returndatasize\n      0x00\n      0x20\n      dup5\n      add\n      returndatacopy\n      jump(tag_70)\n    tag_71:\n      0x60\n      swap2\n      pop\n    tag_70:\n      pop\n        /* \"contracts/KipuBank.sol\":3999:4044  (bool success, ) = to.call{value: amount}(\"\") */\n      pop\n      swap1\n      pop\n        /* \"contracts/KipuBank.sol\":4062:4069  success */\n      dup1\n        /* \"contracts/KipuBank.sol\":4054:4089  require(success, \"Transfer failed\") */\n      tag_72\n      jumpi\n      mload(0x40)\n      0x08c379a000000000000000000000000000000000000000000000000000000000\n      dup2\n      mstore\n      0x04\n      add\n      tag_73\n      swap1\n      tag_74\n      jump\t// in\n    tag_73:\n      mload(0x40)\n      dup1\n      swap2\n      sub\n      swap1\n      revert\n    tag_72:\n        /* \"contracts/KipuBank.sol\":3989:4096  {... */\n      pop\n        /* \"contracts/KipuBank.sol\":3930:4096  function _safeTransfer(address to, uint256 amount) private {... */\n      pop\n      pop\n      jump\t// out\n        /* \"#utility.yul\":7:84   */\n    tag_75:\n        /* \"#utility.yul\":44:51   */\n      0x00\n        /* \"#utility.yul\":73:78   */\n      dup2\n        /* \"#utility.yul\":62:78   */\n      swap1\n      pop\n        /* \"#utility.yul\":7:84   */\n      swap2\n      swap1\n      pop\n      jump\t// out\n        /* \"#utility.yul\":90:208   */\n    tag_76:\n        /* \"#utility.yul\":177:201   */\n      tag_92\n        /* \"#utility.yul\":195:200   */\n      dup2\n        /* \"#utility.yul\":177:201   */\n      tag_75\n      jump\t// in\n    tag_92:\n        /* \"#utility.yul\":172:175   */\n      dup3\n        /* \"#utility.yul\":165:202   */\n      mstore\n        /* \"#utility.yul\":90:208   */\n      pop\n      pop\n      jump\t// out\n        /* \"#utility.yul\":214:436   */\n    tag_14:\n        /* \"#utility.yul\":307:311   */\n      0x00\n        /* \"#utility.yul\":345:347   */\n      0x20\n        /* \"#utility.yul\":334:343   */\n      dup3\n        /* \"#utility.yul\":330:348   */\n      add\n        /* \"#utility.yul\":322:348   */\n      swap1\n      pop\n        /* \"#utility.yul\":358:429   */\n      tag_94\n        /* \"#utility.yul\":426:427   */\n      0x00\n        /* \"#utility.yul\":415:424   */\n      dup4\n        /* \"#utility.yul\":411:428   */\n      add\n        /* \"#utility.yul\":402:408   */\n      dup5\n        /* \"#utility.yul\":358:429   */\n      tag_76\n      jump\t// in\n    tag_94:\n        /* \"#utility.yul\":214:436   */\n      swap3\n      swap2\n      pop\n      pop\n      jump\t// out\n        /* \"#utility.yul\":523:640   */\n    tag_78:\n        /* \"#utility.yul\":632:633   */\n      0x00\n        /* \"#utility.yul\":629:630   */\n      0x00\n        /* \"#utility.yul\":622:634   */\n      revert\n        /* \"#utility.yul\":769:891   */\n    tag_80:\n        /* \"#utility.yul\":842:866   */\n      tag_99\n        /* \"#utility.yul\":860:865   */\n      dup2\n        /* \"#utility.yul\":842:866   */\n      tag_75\n      jump\t// in\n    tag_99:\n        /* \"#utility.yul\":835:840   */\n      dup2\n        /* \"#utility.yul\":832:867   */\n      eq\n        /* \"#utility.yul\":822:885   */\n      tag_100\n      jumpi\n        /* \"#utility.yul\":881:882   */\n      0x00\n        /* \"#utility.yul\":878:879   */\n      0x00\n        /* \"#utility.yul\":871:883   */\n      revert\n        /* \"#utility.yul\":822:885   */\n    tag_100:\n        /* \"#utility.yul\":769:891   */\n      pop\n      jump\t// out\n        /* \"#utility.yul\":897:1036   */\n    tag_81:\n        /* \"#utility.yul\":943:948   */\n      0x00\n        /* \"#utility.yul\":981:987   */\n      dup2\n        /* \"#utility.yul\":968:988   */\n      calldataload\n        /* \"#utility.yul\":959:988   */\n      swap1\n      pop\n        /* \"#utility.yul\":997:1030   */\n      tag_102\n        /* \"#utility.yul\":1024:1029   */\n      dup2\n        /* \"#utility.yul\":997:1030   */\n      tag_80\n      jump\t// in\n    tag_102:\n        /* \"#utility.yul\":897:1036   */\n      swap3\n      swap2\n      pop\n      pop\n      jump\t// out\n        /* \"#utility.yul\":1042:1371   */\n    tag_18:\n        /* \"#utility.yul\":1101:1107   */\n      0x00\n        /* \"#utility.yul\":1150:1152   */\n      0x20\n        /* \"#utility.yul\":1138:1147   */\n      dup3\n        /* \"#utility.yul\":1129:1136   */\n      dup5\n        /* \"#utility.yul\":1125:1148   */\n      sub\n        /* \"#utility.yul\":1121:1153   */\n      slt\n        /* \"#utility.yul\":1118:1237   */\n      iszero\n      tag_104\n      jumpi\n        /* \"#utility.yul\":1156:1235   */\n      tag_105\n      tag_78\n      jump\t// in\n    tag_105:\n        /* \"#utility.yul\":1118:1237   */\n    tag_104:\n        /* \"#utility.yul\":1276:1277   */\n      0x00\n        /* \"#utility.yul\":1301:1354   */\n      tag_106\n        /* \"#utility.yul\":1346:1353   */\n      dup5\n        /* \"#utility.yul\":1337:1343   */\n      dup3\n        /* \"#utility.yul\":1326:1335   */\n      dup6\n        /* \"#utility.yul\":1322:1344   */\n      add\n        /* \"#utility.yul\":1301:1354   */\n      tag_81\n      jump\t// in\n    tag_106:\n        /* \"#utility.yul\":1291:1354   */\n      swap2\n      pop\n        /* \"#utility.yul\":1247:1364   */\n      pop\n        /* \"#utility.yul\":1042:1371   */\n      swap3\n      swap2\n      pop\n      pop\n      jump\t// out\n        /* \"#utility.yul\":1377:1709   */\n    tag_42:\n        /* \"#utility.yul\":1498:1502   */\n      0x00\n        /* \"#utility.yul\":1536:1538   */\n      0x40\n        /* \"#utility.yul\":1525:1534   */\n      dup3\n        /* \"#utility.yul\":1521:1539   */\n      add\n        /* \"#utility.yul\":1513:1539   */\n      swap1\n      pop\n        /* \"#utility.yul\":1549:1620   */\n      tag_108\n        /* \"#utility.yul\":1617:1618   */\n      0x00\n        /* \"#utility.yul\":1606:1615   */\n      dup4\n        /* \"#utility.yul\":1602:1619   */\n      add\n        /* \"#utility.yul\":1593:1599   */\n      dup6\n        /* \"#utility.yul\":1549:1620   */\n      tag_76\n      jump\t// in\n    tag_108:\n        /* \"#utility.yul\":1630:1702   */\n      tag_109\n        /* \"#utility.yul\":1698:1700   */\n      0x20\n        /* \"#utility.yul\":1687:1696   */\n      dup4\n        /* \"#utility.yul\":1683:1701   */\n      add\n        /* \"#utility.yul\":1674:1680   */\n      dup5\n        /* \"#utility.yul\":1630:1702   */\n      tag_76\n      jump\t// in\n    tag_109:\n        /* \"#utility.yul\":1377:1709   */\n      swap4\n      swap3\n      pop\n      pop\n      pop\n      jump\t// out\n        /* \"#utility.yul\":1715:1895   */\n    tag_82:\n        /* \"#utility.yul\":1763:1840   */\n      0x4e487b7100000000000000000000000000000000000000000000000000000000\n        /* \"#utility.yul\":1760:1761   */\n      0x00\n        /* \"#utility.yul\":1753:1841   */\n      mstore\n        /* \"#utility.yul\":1860:1864   */\n      0x11\n        /* \"#utility.yul\":1857:1858   */\n      0x04\n        /* \"#utility.yul\":1850:1865   */\n      mstore\n        /* \"#utility.yul\":1884:1888   */\n      0x24\n        /* \"#utility.yul\":1881:1882   */\n      0x00\n        /* \"#utility.yul\":1874:1889   */\n      revert\n        /* \"#utility.yul\":1901:2095   */\n    tag_46:\n        /* \"#utility.yul\":1941:1945   */\n      0x00\n        /* \"#utility.yul\":1961:1981   */\n      tag_112\n        /* \"#utility.yul\":1979:1980   */\n      dup3\n        /* \"#utility.yul\":1961:1981   */\n      tag_75\n      jump\t// in\n    tag_112:\n        /* \"#utility.yul\":1956:1981   */\n      swap2\n      pop\n        /* \"#utility.yul\":1995:2015   */\n      tag_113\n        /* \"#utility.yul\":2013:2014   */\n      dup4\n        /* \"#utility.yul\":1995:2015   */\n      tag_75\n      jump\t// in\n    tag_113:\n        /* \"#utility.yul\":1990:2015   */\n      swap3\n      pop\n        /* \"#utility.yul\":2039:2040   */\n      dup3\n        /* \"#utility.yul\":2036:2037   */\n      dup3\n        /* \"#utility.yul\":2032:2041   */\n      sub\n        /* \"#utility.yul\":2024:2041   */\n      swap1\n      pop\n        /* \"#utility.yul\":2063:2064   */\n      dup2\n        /* \"#utility.yul\":2057:2061   */\n      dup2\n        /* \"#utility.yul\":2054:2065   */\n      gt\n        /* \"#utility.yul\":2051:2088   */\n      iszero\n      tag_114\n      jumpi\n        /* \"#utility.yul\":2068:2086   */\n      tag_115\n      tag_82\n      jump\t// in\n    tag_115:\n        /* \"#utility.yul\":2051:2088   */\n    tag_114:\n        /* \"#utility.yul\":1901:2095   */\n      swap3\n      swap2\n      pop\n      pop\n      jump\t// out\n        /* \"#utility.yul\":2101:2334   */\n    tag_49:\n        /* \"#utility.yul\":2140:2143   */\n      0x00\n        /* \"#utility.yul\":2163:2187   */\n      tag_117\n        /* \"#utility.yul\":2181:2186   */\n      dup3\n        /* \"#utility.yul\":2163:2187   */\n      tag_75\n      jump\t// in\n    tag_117:\n        /* \"#utility.yul\":2154:2187   */\n      swap2\n      pop\n        /* \"#utility.yul\":2209:2275   */\n      0xffffffffffffffffffffffffffffffffffffffffffffffffffffffffffffffff\n        /* \"#utility.yul\":2202:2207   */\n      dup3\n        /* \"#utility.yul\":2199:2276   */\n      sub\n        /* \"#utility.yul\":2196:2299   */\n      tag_118\n      jumpi\n        /* \"#utility.yul\":2279:2297   */\n      tag_119\n      tag_82\n      jump\t// in\n    tag_119:\n        /* \"#utility.yul\":2196:2299   */\n    tag_118:\n        /* \"#utility.yul\":2326:2327   */\n      0x01\n        /* \"#utility.yul\":2319:2324   */\n      dup3\n        /* \"#utility.yul\":2315:2328   */\n      add\n        /* \"#utility.yul\":2308:2328   */\n      swap1\n      pop\n        /* \"#utility.yul\":2101:2334   */\n      swap2\n      swap1\n      pop\n      jump\t// out\n        /* \"#utility.yul\":2340:2531   */\n    tag_56:\n        /* \"#utility.yul\":2380:2383   */\n      0x00\n        /* \"#utility.yul\":2399:2419   */\n      tag_121\n        /* \"#utility.yul\":2417:2418   */\n      dup3\n        /* \"#utility.yul\":2399:2419   */\n      tag_75\n      jump\t// in\n    tag_121:\n        /* \"#utility.yul\":2394:2419   */\n      swap2\n      pop\n        /* \"#utility.yul\":2433:2453   */\n      tag_122\n        /* \"#utility.yul\":2451:2452   */\n      dup4\n        /* \"#utility.yul\":2433:2453   */\n      tag_75\n      jump\t// in\n    tag_122:\n        /* \"#utility.yul\":2428:2453   */\n      swap3\n      pop\n        /* \"#utility.yul\":2476:2477   */\n      dup3\n        /* \"#utility.yul\":2473:2474   */\n      dup3\n        /* \"#utility.yul\":2469:2478   */\n      add\n        /* \"#utility.yul\":2462:2478   */\n      swap1\n      pop\n        /* \"#utility.yul\":2497:2500   */\n      dup1\n        /* \"#utility.yul\":2494:2495   */\n      dup3\n        /* \"#utility.yul\":2491:2501   */\n      gt\n        /* \"#utility.yul\":2488:2524   */\n      iszero\n      tag_123\n      jumpi\n        /* \"#utility.yul\":2504:2522   */\n      tag_124\n      tag_82\n      jump\t// in\n    tag_124:\n        /* \"#utility.yul\":2488:2524   */\n    tag_123:\n        /* \"#utility.yul\":2340:2531   */\n      swap3\n      swap2\n      pop\n      pop\n      jump\t// out\n        /* \"#utility.yul\":2537:2684   */\n    tag_83:\n        /* \"#utility.yul\":2638:2649   */\n      0x00\n        /* \"#utility.yul\":2675:2678   */\n      dup2\n        /* \"#utility.yul\":2660:2678   */\n      swap1\n      pop\n        /* \"#utility.yul\":2537:2684   */\n      swap3\n      swap2\n      pop\n      pop\n      jump\t// out\n        /* \"#utility.yul\":2690:2804   */\n    tag_84:\n      pop\n      jump\t// out\n        /* \"#utility.yul\":2810:3208   */\n    tag_85:\n        /* \"#utility.yul\":2969:2972   */\n      0x00\n        /* \"#utility.yul\":2990:3073   */\n      tag_128\n        /* \"#utility.yul\":3071:3072   */\n      0x00\n        /* \"#utility.yul\":3066:3069   */\n      dup4\n        /* \"#utility.yul\":2990:3073   */\n      tag_83\n      jump\t// in\n    tag_128:\n        /* \"#utility.yul\":2983:3073   */\n      swap2\n      pop\n        /* \"#utility.yul\":3082:3175   */\n      tag_129\n        /* \"#utility.yul\":3171:3174   */\n      dup3\n        /* \"#utility.yul\":3082:3175   */\n      tag_84\n      jump\t// in\n    tag_129:\n        /* \"#utility.yul\":3200:3201   */\n      0x00\n        /* \"#utility.yul\":3195:3198   */\n      dup3\n        /* \"#utility.yul\":3191:3202   */\n      add\n        /* \"#utility.yul\":3184:3202   */\n      swap1\n      pop\n        /* \"#utility.yul\":2810:3208   */\n      swap2\n      swap1\n      pop\n      jump\t// out\n        /* \"#utility.yul\":3214:3593   */\n    tag_68:\n        /* \"#utility.yul\":3398:3401   */\n      0x00\n        /* \"#utility.yul\":3420:3567   */\n      tag_131\n        /* \"#utility.yul\":3563:3566   */\n      dup3\n        /* \"#utility.yul\":3420:3567   */\n      tag_85\n      jump\t// in\n    tag_131:\n        /* \"#utility.yul\":3413:3567   */\n      swap2\n      pop\n        /* \"#utility.yul\":3584:3587   */\n      dup2\n        /* \"#utility.yul\":3577:3587   */\n      swap1\n      pop\n        /* \"#utility.yul\":3214:3593   */\n      swap2\n      swap1\n      pop\n      jump\t// out\n        /* \"#utility.yul\":3599:3768   */\n    tag_86:\n        /* \"#utility.yul\":3683:3694   */\n      0x00\n        /* \"#utility.yul\":3717:3723   */\n      dup3\n        /* \"#utility.yul\":3712:3715   */\n      dup3\n        /* \"#utility.yul\":3705:3724   */\n      mstore\n        /* \"#utility.yul\":3757:3761   */\n      0x20\n        /* \"#utility.yul\":3752:3755   */\n      dup3\n        /* \"#utility.yul\":3748:3762   */\n      add\n        /* \"#utility.yul\":3733:3762   */\n      swap1\n      pop\n        /* \"#utility.yul\":3599:3768   */\n      swap3\n      swap2\n      pop\n      pop\n      jump\t// out\n        /* \"#utility.yul\":3774:3939   */\n    tag_87:\n        /* \"#utility.yul\":3914:3931   */\n      0x5472616e73666572206661696c65640000000000000000000000000000000000\n        /* \"#utility.yul\":3910:3911   */\n      0x00\n        /* \"#utility.yul\":3902:3908   */\n      dup3\n        /* \"#utility.yul\":3898:3912   */\n      add\n        /* \"#utility.yul\":3891:3932   */\n      mstore\n        /* \"#utility.yul\":3774:3939   */\n      pop\n      jump\t// out\n        /* \"#utility.yul\":3945:4311   */\n    tag_88:\n        /* \"#utility.yul\":4087:4090   */\n      0x00\n        /* \"#utility.yul\":4108:4175   */\n      tag_135\n        /* \"#utility.yul\":4172:4174   */\n      0x0f\n        /* \"#utility.yul\":4167:4170   */\n      dup4\n        /* \"#utility.yul\":4108:4175   */\n      tag_86\n      jump\t// in\n    tag_135:\n        /* \"#utility.yul\":4101:4175   */\n      swap2\n      pop\n        /* \"#utility.yul\":4184:4277   */\n      tag_136\n        /* \"#utility.yul\":4273:4276   */\n      dup3\n        /* \"#utility.yul\":4184:4277   */\n      tag_87\n      jump\t// in\n    tag_136:\n        /* \"#utility.yul\":4302:4304   */\n      0x20\n        /* \"#utility.yul\":4297:4300   */\n      dup3\n        /* \"#utility.yul\":4293:4305   */\n      add\n        /* \"#utility.yul\":4286:4305   */\n      swap1\n      pop\n        /* \"#utility.yul\":3945:4311   */\n      swap2\n      swap1\n      pop\n      jump\t// out\n        /* \"#utility.yul\":4317:4736   */\n    tag_74:\n        /* \"#utility.yul\":4483:4487   */\n      0x00\n        /* \"#utility.yul\":4521:4523   */\n      0x20\n        /* \"#utility.yul\":4510:4519   */\n      dup3\n        /* \"#utility.yul\":4506:4524   */\n      add\n        /* \"#utility.yul\":4498:4524   */\n      swap1\n      pop\n        /* \"#utility.yul\":4570:4579   */\n      dup2\n        /* \"#utility.yul\":4564:4568   */\n      dup2\n        /* \"#utility.yul\":4560:4580   */\n      sub\n        /* \"#utility.yul\":4556:4557   */\n      0x00\n        /* \"#utility.yul\":4545:4554   */\n      dup4\n        /* \"#utility.yul\":4541:4558   */\n      add\n        /* \"#utility.yul\":4534:4581   */\n      mstore\n        /* \"#utility.yul\":4598:4729   */\n      tag_138\n        /* \"#utility.yul\":4724:4728   */\n      dup2\n        /* \"#utility.yul\":4598:4729   */\n      tag_88\n      jump\t// in\n    tag_138:\n        /* \"#utility.yul\":4590:4729   */\n      swap1\n      pop\n        /* \"#utility.yul\":4317:4736   */\n      swap2\n      swap1\n      pop\n      jump\t// out\n\n    auxdata: 0xa264697066735822122058e07fe2e58cd7b121e71511c8caeb45ce1c9a323d105442bdfc9c5a044872d964736f6c634300081e0033\n}\n",
				"bytecode": {
					"linkReferences": {},
					"object": "60c060405234801561000f575f5ffd5b50604051610b64380380610b6483398181016040528101906100319190610103565b5f8211610073576040517f08c379a000000000000000000000000000000000000000000000000000000000815260040161006a9061019b565b60405180910390fd5b5f81116100b5576040517f08c379a00000000000000000000000000000000000000000000000000000000081526004016100ac90610203565b60405180910390fd5b81608081815250508060a081815250505050610221565b5f5ffd5b5f819050919050565b6100e2816100d0565b81146100ec575f5ffd5b50565b5f815190506100fd816100d9565b92915050565b5f5f60408385031215610119576101186100cc565b5b5f610126858286016100ef565b9250506020610137858286016100ef565b9150509250929050565b5f82825260208201905092915050565b7f5769746864726177206c696d6974206d757374206265203e20300000000000005f82015250565b5f610185601a83610141565b915061019082610151565b602082019050919050565b5f6020820190508181035f8301526101b281610179565b9050919050565b7f42616e6b20636170206d757374206265203e20300000000000000000000000005f82015250565b5f6101ed601483610141565b91506101f8826101b9565b602082019050919050565b5f6020820190508181035f83015261021a816101e1565b9050919050565b60805160a05161090661025e5f395f81816103ed01528181610426015261059901525f81816101b8015281816101e101526105bd01526109065ff3fe60806040526004361061006f575f3560e01c80634cc05a711161004d5780634cc05a71146100ef578063d0e30db014610119578063ecbea24d14610123578063f848d5411461014d5761006f565b80632dfdf0b5146100735780632e1a7d4d1461009d5780634c738909146100c5575b5f5ffd5b34801561007e575f5ffd5b50610087610177565b60405161009491906106a4565b60405180910390f35b3480156100a8575f5ffd5b506100c360048036038101906100be91906106eb565b61017d565b005b3480156100d0575f5ffd5b506100d96103a1565b6040516100e691906106a4565b60405180910390f35b3480156100fa575f5ffd5b506101036103e4565b60405161011091906106a4565b60405180910390f35b6101216103ea565b005b34801561012e575f5ffd5b50610137610597565b60405161014491906106a4565b60405180910390f35b348015610158575f5ffd5b506101616105bb565b60405161016e91906106a4565b60405180910390f35b60025481565b5f81036101b6576040517fb8cb621900000000000000000000000000000000000000000000000000000000815260040160405180910390fd5b7f000000000000000000000000000000000000000000000000000000000000000081111561023d57807f00000000000000000000000000000000000000000000000000000000000000006040517f49eef9fd000000000000000000000000000000000000000000000000000000008152600401610234929190610716565b60405180910390fd5b5f5f5f3373ffffffffffffffffffffffffffffffffffffffff1673ffffffffffffffffffffffffffffffffffffffff1681526020019081526020015f20549050808211156102c45780826040517fcf4791810000000000000000000000000000000000000000000000000000000081526004016102bb929190610716565b60405180910390fd5b815f5f3373ffffffffffffffffffffffffffffffffffffffff1673ffffffffffffffffffffffffffffffffffffffff1681526020019081526020015f205f82825461030f919061076a565b925050819055508160015f828254610327919061076a565b9250508190555060035f8154809291906103409061079d565b919050555061034f33836105df565b3373ffffffffffffffffffffffffffffffffffffffff167f7084f5476618d8e60b11ef0d7d3f06914655adb8793e28ff7f018d4c76d505d58360405161039591906106a4565b60405180910390a25050565b5f5f5f3373ffffffffffffffffffffffffffffffffffffffff1673ffffffffffffffffffffffffffffffffffffffff1681526020019081526020015f2054905090565b60035481565b347f00000000000000000000000000000000000000000000000000000000000000008160015461041a91906107e4565b111561048c57806001547f000000000000000000000000000000000000000000000000000000000000000061044f919061076a565b6040517f31728a05000000000000000000000000000000000000000000000000000000008152600401610483929190610716565b60405180910390fd5b5f34036104c5576040517f56316e8700000000000000000000000000000000000000000000000000000000815260040160405180910390fd5b345f5f3373ffffffffffffffffffffffffffffffffffffffff1673ffffffffffffffffffffffffffffffffffffffff1681526020019081526020015f205f82825461051091906107e4565b925050819055503460015f82825461052891906107e4565b9250508190555060025f8154809291906105419061079d565b91905055503373ffffffffffffffffffffffffffffffffffffffff167f2da466a7b24304f47e87fa2e1e5a81b9831ce54fec19055ce277ca2f39ba42c43460405161058c91906106a4565b60405180910390a250565b7f000000000000000000000000000000000000000000000000000000000000000081565b7f000000000000000000000000000000000000000000000000000000000000000081565b5f8273ffffffffffffffffffffffffffffffffffffffff168260405161060490610844565b5f6040518083038185875af1925050503d805f811461063e576040519150601f19603f3d011682016040523d82523d5f602084013e610643565b606091505b5050905080610687576040517f08c379a000000000000000000000000000000000000000000000000000000000815260040161067e906108b2565b60405180910390fd5b505050565b5f819050919050565b61069e8161068c565b82525050565b5f6020820190506106b75f830184610695565b92915050565b5f5ffd5b6106ca8161068c565b81146106d4575f5ffd5b50565b5f813590506106e5816106c1565b92915050565b5f60208284031215610700576106ff6106bd565b5b5f61070d848285016106d7565b91505092915050565b5f6040820190506107295f830185610695565b6107366020830184610695565b9392505050565b7f4e487b71000000000000000000000000000000000000000000000000000000005f52601160045260245ffd5b5f6107748261068c565b915061077f8361068c565b92508282039050818111156107975761079661073d565b5b92915050565b5f6107a78261068c565b91507fffffffffffffffffffffffffffffffffffffffffffffffffffffffffffffffff82036107d9576107d861073d565b5b600182019050919050565b5f6107ee8261068c565b91506107f98361068c565b92508282019050808211156108115761081061073d565b5b92915050565b5f81905092915050565b50565b5f61082f5f83610817565b915061083a82610821565b5f82019050919050565b5f61084e82610824565b9150819050919050565b5f82825260208201905092915050565b7f5472616e73666572206661696c656400000000000000000000000000000000005f82015250565b5f61089c600f83610858565b91506108a782610868565b602082019050919050565b5f6020820190508181035f8301526108c981610890565b905091905056fea264697066735822122058e07fe2e58cd7b121e71511c8caeb45ce1c9a323d105442bdfc9c5a044872d964736f6c634300081e0033",
					"opcodes": "PUSH1 0xC0 PUSH1 0x40 MSTORE CALLVALUE DUP1 ISZERO PUSH2 0xF JUMPI PUSH0 PUSH0 REVERT JUMPDEST POP PUSH1 0x40 MLOAD PUSH2 0xB64 CODESIZE SUB DUP1 PUSH2 0xB64 DUP4 CODECOPY DUP2 DUP2 ADD PUSH1 0x40 MSTORE DUP2 ADD SWAP1 PUSH2 0x31 SWAP2 SWAP1 PUSH2 0x103 JUMP JUMPDEST PUSH0 DUP3 GT PUSH2 0x73 JUMPI PUSH1 0x40 MLOAD PUSH32 0x8C379A000000000000000000000000000000000000000000000000000000000 DUP2 MSTORE PUSH1 0x4 ADD PUSH2 0x6A SWAP1 PUSH2 0x19B JUMP JUMPDEST PUSH1 0x40 MLOAD DUP1 SWAP2 SUB SWAP1 REVERT JUMPDEST PUSH0 DUP2 GT PUSH2 0xB5 JUMPI PUSH1 0x40 MLOAD PUSH32 0x8C379A000000000000000000000000000000000000000000000000000000000 DUP2 MSTORE PUSH1 0x4 ADD PUSH2 0xAC SWAP1 PUSH2 0x203 JUMP JUMPDEST PUSH1 0x40 MLOAD DUP1 SWAP2 SUB SWAP1 REVERT JUMPDEST DUP2 PUSH1 0x80 DUP2 DUP2 MSTORE POP POP DUP1 PUSH1 0xA0 DUP2 DUP2 MSTORE POP POP POP POP PUSH2 0x221 JUMP JUMPDEST PUSH0 PUSH0 REVERT JUMPDEST PUSH0 DUP2 SWAP1 POP SWAP2 SWAP1 POP JUMP JUMPDEST PUSH2 0xE2 DUP2 PUSH2 0xD0 JUMP JUMPDEST DUP2 EQ PUSH2 0xEC JUMPI PUSH0 PUSH0 REVERT JUMPDEST POP JUMP JUMPDEST PUSH0 DUP2 MLOAD SWAP1 POP PUSH2 0xFD DUP2 PUSH2 0xD9 JUMP JUMPDEST SWAP3 SWAP2 POP POP JUMP JUMPDEST PUSH0 PUSH0 PUSH1 0x40 DUP4 DUP6 SUB SLT ISZERO PUSH2 0x119 JUMPI PUSH2 0x118 PUSH2 0xCC JUMP JUMPDEST JUMPDEST PUSH0 PUSH2 0x126 DUP6 DUP3 DUP7 ADD PUSH2 0xEF JUMP JUMPDEST SWAP3 POP POP PUSH1 0x20 PUSH2 0x137 DUP6 DUP3 DUP7 ADD PUSH2 0xEF JUMP JUMPDEST SWAP2 POP POP SWAP3 POP SWAP3 SWAP1 POP JUMP JUMPDEST PUSH0 DUP3 DUP3 MSTORE PUSH1 0x20 DUP3 ADD SWAP1 POP SWAP3 SWAP2 POP POP JUMP JUMPDEST PUSH32 0x5769746864726177206C696D6974206D757374206265203E2030000000000000 PUSH0 DUP3 ADD MSTORE POP JUMP JUMPDEST PUSH0 PUSH2 0x185 PUSH1 0x1A DUP4 PUSH2 0x141 JUMP JUMPDEST SWAP2 POP PUSH2 0x190 DUP3 PUSH2 0x151 JUMP JUMPDEST PUSH1 0x20 DUP3 ADD SWAP1 POP SWAP2 SWAP1 POP JUMP JUMPDEST PUSH0 PUSH1 0x20 DUP3 ADD SWAP1 POP DUP2 DUP2 SUB PUSH0 DUP4 ADD MSTORE PUSH2 0x1B2 DUP2 PUSH2 0x179 JUMP JUMPDEST SWAP1 POP SWAP2 SWAP1 POP JUMP JUMPDEST PUSH32 0x42616E6B20636170206D757374206265203E2030000000000000000000000000 PUSH0 DUP3 ADD MSTORE POP JUMP JUMPDEST PUSH0 PUSH2 0x1ED PUSH1 0x14 DUP4 PUSH2 0x141 JUMP JUMPDEST SWAP2 POP PUSH2 0x1F8 DUP3 PUSH2 0x1B9 JUMP JUMPDEST PUSH1 0x20 DUP3 ADD SWAP1 POP SWAP2 SWAP1 POP JUMP JUMPDEST PUSH0 PUSH1 0x20 DUP3 ADD SWAP1 POP DUP2 DUP2 SUB PUSH0 DUP4 ADD MSTORE PUSH2 0x21A DUP2 PUSH2 0x1E1 JUMP JUMPDEST SWAP1 POP SWAP2 SWAP1 POP JUMP JUMPDEST PUSH1 0x80 MLOAD PUSH1 0xA0 MLOAD PUSH2 0x906 PUSH2 0x25E PUSH0 CODECOPY PUSH0 DUP2 DUP2 PUSH2 0x3ED ADD MSTORE DUP2 DUP2 PUSH2 0x426 ADD MSTORE PUSH2 0x599 ADD MSTORE PUSH0 DUP2 DUP2 PUSH2 0x1B8 ADD MSTORE DUP2 DUP2 PUSH2 0x1E1 ADD MSTORE PUSH2 0x5BD ADD MSTORE PUSH2 0x906 PUSH0 RETURN INVALID PUSH1 0x80 PUSH1 0x40 MSTORE PUSH1 0x4 CALLDATASIZE LT PUSH2 0x6F JUMPI PUSH0 CALLDATALOAD PUSH1 0xE0 SHR DUP1 PUSH4 0x4CC05A71 GT PUSH2 0x4D JUMPI DUP1 PUSH4 0x4CC05A71 EQ PUSH2 0xEF JUMPI DUP1 PUSH4 0xD0E30DB0 EQ PUSH2 0x119 JUMPI DUP1 PUSH4 0xECBEA24D EQ PUSH2 0x123 JUMPI DUP1 PUSH4 0xF848D541 EQ PUSH2 0x14D JUMPI PUSH2 0x6F JUMP JUMPDEST DUP1 PUSH4 0x2DFDF0B5 EQ PUSH2 0x73 JUMPI DUP1 PUSH4 0x2E1A7D4D EQ PUSH2 0x9D JUMPI DUP1 PUSH4 0x4C738909 EQ PUSH2 0xC5 JUMPI JUMPDEST PUSH0 PUSH0 REVERT JUMPDEST CALLVALUE DUP1 ISZERO PUSH2 0x7E JUMPI PUSH0 PUSH0 REVERT JUMPDEST POP PUSH2 0x87 PUSH2 0x177 JUMP JUMPDEST PUSH1 0x40 MLOAD PUSH2 0x94 SWAP2 SWAP1 PUSH2 0x6A4 JUMP JUMPDEST PUSH1 0x40 MLOAD DUP1 SWAP2 SUB SWAP1 RETURN JUMPDEST CALLVALUE DUP1 ISZERO PUSH2 0xA8 JUMPI PUSH0 PUSH0 REVERT JUMPDEST POP PUSH2 0xC3 PUSH1 0x4 DUP1 CALLDATASIZE SUB DUP2 ADD SWAP1 PUSH2 0xBE SWAP2 SWAP1 PUSH2 0x6EB JUMP JUMPDEST PUSH2 0x17D JUMP JUMPDEST STOP JUMPDEST CALLVALUE DUP1 ISZERO PUSH2 0xD0 JUMPI PUSH0 PUSH0 REVERT JUMPDEST POP PUSH2 0xD9 PUSH2 0x3A1 JUMP JUMPDEST PUSH1 0x40 MLOAD PUSH2 0xE6 SWAP2 SWAP1 PUSH2 0x6A4 JUMP JUMPDEST PUSH1 0x40 MLOAD DUP1 SWAP2 SUB SWAP1 RETURN JUMPDEST CALLVALUE DUP1 ISZERO PUSH2 0xFA JUMPI PUSH0 PUSH0 REVERT JUMPDEST POP PUSH2 0x103 PUSH2 0x3E4 JUMP JUMPDEST PUSH1 0x40 MLOAD PUSH2 0x110 SWAP2 SWAP1 PUSH2 0x6A4 JUMP JUMPDEST PUSH1 0x40 MLOAD DUP1 SWAP2 SUB SWAP1 RETURN JUMPDEST PUSH2 0x121 PUSH2 0x3EA JUMP JUMPDEST STOP JUMPDEST CALLVALUE DUP1 ISZERO PUSH2 0x12E JUMPI PUSH0 PUSH0 REVERT JUMPDEST POP PUSH2 0x137 PUSH2 0x597 JUMP JUMPDEST PUSH1 0x40 MLOAD PUSH2 0x144 SWAP2 SWAP1 PUSH2 0x6A4 JUMP JUMPDEST PUSH1 0x40 MLOAD DUP1 SWAP2 SUB SWAP1 RETURN JUMPDEST CALLVALUE DUP1 ISZERO PUSH2 0x158 JUMPI PUSH0 PUSH0 REVERT JUMPDEST POP PUSH2 0x161 PUSH2 0x5BB JUMP JUMPDEST PUSH1 0x40 MLOAD PUSH2 0x16E SWAP2 SWAP1 PUSH2 0x6A4 JUMP JUMPDEST PUSH1 0x40 MLOAD DUP1 SWAP2 SUB SWAP1 RETURN JUMPDEST PUSH1 0x2 SLOAD DUP2 JUMP JUMPDEST PUSH0 DUP2 SUB PUSH2 0x1B6 JUMPI PUSH1 0x40 MLOAD PUSH32 0xB8CB621900000000000000000000000000000000000000000000000000000000 DUP2 MSTORE PUSH1 0x4 ADD PUSH1 0x40 MLOAD DUP1 SWAP2 SUB SWAP1 REVERT JUMPDEST PUSH32 0x0 DUP2 GT ISZERO PUSH2 0x23D JUMPI DUP1 PUSH32 0x0 PUSH1 0x40 MLOAD PUSH32 0x49EEF9FD00000000000000000000000000000000000000000000000000000000 DUP2 MSTORE PUSH1 0x4 ADD PUSH2 0x234 SWAP3 SWAP2 SWAP1 PUSH2 0x716 JUMP JUMPDEST PUSH1 0x40 MLOAD DUP1 SWAP2 SUB SWAP1 REVERT JUMPDEST PUSH0 PUSH0 PUSH0 CALLER PUSH20 0xFFFFFFFFFFFFFFFFFFFFFFFFFFFFFFFFFFFFFFFF AND PUSH20 0xFFFFFFFFFFFFFFFFFFFFFFFFFFFFFFFFFFFFFFFF AND DUP2 MSTORE PUSH1 0x20 ADD SWAP1 DUP2 MSTORE PUSH1 0x20 ADD PUSH0 KECCAK256 SLOAD SWAP1 POP DUP1 DUP3 GT ISZERO PUSH2 0x2C4 JUMPI DUP1 DUP3 PUSH1 0x40 MLOAD PUSH32 0xCF47918100000000000000000000000000000000000000000000000000000000 DUP2 MSTORE PUSH1 0x4 ADD PUSH2 0x2BB SWAP3 SWAP2 SWAP1 PUSH2 0x716 JUMP JUMPDEST PUSH1 0x40 MLOAD DUP1 SWAP2 SUB SWAP1 REVERT JUMPDEST DUP2 PUSH0 PUSH0 CALLER PUSH20 0xFFFFFFFFFFFFFFFFFFFFFFFFFFFFFFFFFFFFFFFF AND PUSH20 0xFFFFFFFFFFFFFFFFFFFFFFFFFFFFFFFFFFFFFFFF AND DUP2 MSTORE PUSH1 0x20 ADD SWAP1 DUP2 MSTORE PUSH1 0x20 ADD PUSH0 KECCAK256 PUSH0 DUP3 DUP3 SLOAD PUSH2 0x30F SWAP2 SWAP1 PUSH2 0x76A JUMP JUMPDEST SWAP3 POP POP DUP2 SWAP1 SSTORE POP DUP2 PUSH1 0x1 PUSH0 DUP3 DUP3 SLOAD PUSH2 0x327 SWAP2 SWAP1 PUSH2 0x76A JUMP JUMPDEST SWAP3 POP POP DUP2 SWAP1 SSTORE POP PUSH1 0x3 PUSH0 DUP2 SLOAD DUP1 SWAP3 SWAP2 SWAP1 PUSH2 0x340 SWAP1 PUSH2 0x79D JUMP JUMPDEST SWAP2 SWAP1 POP SSTORE POP PUSH2 0x34F CALLER DUP4 PUSH2 0x5DF JUMP JUMPDEST CALLER PUSH20 0xFFFFFFFFFFFFFFFFFFFFFFFFFFFFFFFFFFFFFFFF AND PUSH32 0x7084F5476618D8E60B11EF0D7D3F06914655ADB8793E28FF7F018D4C76D505D5 DUP4 PUSH1 0x40 MLOAD PUSH2 0x395 SWAP2 SWAP1 PUSH2 0x6A4 JUMP JUMPDEST PUSH1 0x40 MLOAD DUP1 SWAP2 SUB SWAP1 LOG2 POP POP JUMP JUMPDEST PUSH0 PUSH0 PUSH0 CALLER PUSH20 0xFFFFFFFFFFFFFFFFFFFFFFFFFFFFFFFFFFFFFFFF AND PUSH20 0xFFFFFFFFFFFFFFFFFFFFFFFFFFFFFFFFFFFFFFFF AND DUP2 MSTORE PUSH1 0x20 ADD SWAP1 DUP2 MSTORE PUSH1 0x20 ADD PUSH0 KECCAK256 SLOAD SWAP1 POP SWAP1 JUMP JUMPDEST PUSH1 0x3 SLOAD DUP2 JUMP JUMPDEST CALLVALUE PUSH32 0x0 DUP2 PUSH1 0x1 SLOAD PUSH2 0x41A SWAP2 SWAP1 PUSH2 0x7E4 JUMP JUMPDEST GT ISZERO PUSH2 0x48C JUMPI DUP1 PUSH1 0x1 SLOAD PUSH32 0x0 PUSH2 0x44F SWAP2 SWAP1 PUSH2 0x76A JUMP JUMPDEST PUSH1 0x40 MLOAD PUSH32 0x31728A0500000000000000000000000000000000000000000000000000000000 DUP2 MSTORE PUSH1 0x4 ADD PUSH2 0x483 SWAP3 SWAP2 SWAP1 PUSH2 0x716 JUMP JUMPDEST PUSH1 0x40 MLOAD DUP1 SWAP2 SUB SWAP1 REVERT JUMPDEST PUSH0 CALLVALUE SUB PUSH2 0x4C5 JUMPI PUSH1 0x40 MLOAD PUSH32 0x56316E8700000000000000000000000000000000000000000000000000000000 DUP2 MSTORE PUSH1 0x4 ADD PUSH1 0x40 MLOAD DUP1 SWAP2 SUB SWAP1 REVERT JUMPDEST CALLVALUE PUSH0 PUSH0 CALLER PUSH20 0xFFFFFFFFFFFFFFFFFFFFFFFFFFFFFFFFFFFFFFFF AND PUSH20 0xFFFFFFFFFFFFFFFFFFFFFFFFFFFFFFFFFFFFFFFF AND DUP2 MSTORE PUSH1 0x20 ADD SWAP1 DUP2 MSTORE PUSH1 0x20 ADD PUSH0 KECCAK256 PUSH0 DUP3 DUP3 SLOAD PUSH2 0x510 SWAP2 SWAP1 PUSH2 0x7E4 JUMP JUMPDEST SWAP3 POP POP DUP2 SWAP1 SSTORE POP CALLVALUE PUSH1 0x1 PUSH0 DUP3 DUP3 SLOAD PUSH2 0x528 SWAP2 SWAP1 PUSH2 0x7E4 JUMP JUMPDEST SWAP3 POP POP DUP2 SWAP1 SSTORE POP PUSH1 0x2 PUSH0 DUP2 SLOAD DUP1 SWAP3 SWAP2 SWAP1 PUSH2 0x541 SWAP1 PUSH2 0x79D JUMP JUMPDEST SWAP2 SWAP1 POP SSTORE POP CALLER PUSH20 0xFFFFFFFFFFFFFFFFFFFFFFFFFFFFFFFFFFFFFFFF AND PUSH32 0x2DA466A7B24304F47E87FA2E1E5A81B9831CE54FEC19055CE277CA2F39BA42C4 CALLVALUE PUSH1 0x40 MLOAD PUSH2 0x58C SWAP2 SWAP1 PUSH2 0x6A4 JUMP JUMPDEST PUSH1 0x40 MLOAD DUP1 SWAP2 SUB SWAP1 LOG2 POP JUMP JUMPDEST PUSH32 0x0 DUP2 JUMP JUMPDEST PUSH32 0x0 DUP2 JUMP JUMPDEST PUSH0 DUP3 PUSH20 0xFFFFFFFFFFFFFFFFFFFFFFFFFFFFFFFFFFFFFFFF AND DUP3 PUSH1 0x40 MLOAD PUSH2 0x604 SWAP1 PUSH2 0x844 JUMP JUMPDEST PUSH0 PUSH1 0x40 MLOAD DUP1 DUP4 SUB DUP2 DUP6 DUP8 GAS CALL SWAP3 POP POP POP RETURNDATASIZE DUP1 PUSH0 DUP2 EQ PUSH2 0x63E JUMPI PUSH1 0x40 MLOAD SWAP2 POP PUSH1 0x1F NOT PUSH1 0x3F RETURNDATASIZE ADD AND DUP3 ADD PUSH1 0x40 MSTORE RETURNDATASIZE DUP3 MSTORE RETURNDATASIZE PUSH0 PUSH1 0x20 DUP5 ADD RETURNDATACOPY PUSH2 0x643 JUMP JUMPDEST PUSH1 0x60 SWAP2 POP JUMPDEST POP POP SWAP1 POP DUP1 PUSH2 0x687 JUMPI PUSH1 0x40 MLOAD PUSH32 0x8C379A000000000000000000000000000000000000000000000000000000000 DUP2 MSTORE PUSH1 0x4 ADD PUSH2 0x67E SWAP1 PUSH2 0x8B2 JUMP JUMPDEST PUSH1 0x40 MLOAD DUP1 SWAP2 SUB SWAP1 REVERT JUMPDEST POP POP POP JUMP JUMPDEST PUSH0 DUP2 SWAP1 POP SWAP2 SWAP1 POP JUMP JUMPDEST PUSH2 0x69E DUP2 PUSH2 0x68C JUMP JUMPDEST DUP3 MSTORE POP POP JUMP JUMPDEST PUSH0 PUSH1 0x20 DUP3 ADD SWAP1 POP PUSH2 0x6B7 PUSH0 DUP4 ADD DUP5 PUSH2 0x695 JUMP JUMPDEST SWAP3 SWAP2 POP POP JUMP JUMPDEST PUSH0 PUSH0 REVERT JUMPDEST PUSH2 0x6CA DUP2 PUSH2 0x68C JUMP JUMPDEST DUP2 EQ PUSH2 0x6D4 JUMPI PUSH0 PUSH0 REVERT JUMPDEST POP JUMP JUMPDEST PUSH0 DUP2 CALLDATALOAD SWAP1 POP PUSH2 0x6E5 DUP2 PUSH2 0x6C1 JUMP JUMPDEST SWAP3 SWAP2 POP POP JUMP JUMPDEST PUSH0 PUSH1 0x20 DUP3 DUP5 SUB SLT ISZERO PUSH2 0x700 JUMPI PUSH2 0x6FF PUSH2 0x6BD JUMP JUMPDEST JUMPDEST PUSH0 PUSH2 0x70D DUP5 DUP3 DUP6 ADD PUSH2 0x6D7 JUMP JUMPDEST SWAP2 POP POP SWAP3 SWAP2 POP POP JUMP JUMPDEST PUSH0 PUSH1 0x40 DUP3 ADD SWAP1 POP PUSH2 0x729 PUSH0 DUP4 ADD DUP6 PUSH2 0x695 JUMP JUMPDEST PUSH2 0x736 PUSH1 0x20 DUP4 ADD DUP5 PUSH2 0x695 JUMP JUMPDEST SWAP4 SWAP3 POP POP POP JUMP JUMPDEST PUSH32 0x4E487B7100000000000000000000000000000000000000000000000000000000 PUSH0 MSTORE PUSH1 0x11 PUSH1 0x4 MSTORE PUSH1 0x24 PUSH0 REVERT JUMPDEST PUSH0 PUSH2 0x774 DUP3 PUSH2 0x68C JUMP JUMPDEST SWAP2 POP PUSH2 0x77F DUP4 PUSH2 0x68C JUMP JUMPDEST SWAP3 POP DUP3 DUP3 SUB SWAP1 POP DUP2 DUP2 GT ISZERO PUSH2 0x797 JUMPI PUSH2 0x796 PUSH2 0x73D JUMP JUMPDEST JUMPDEST SWAP3 SWAP2 POP POP JUMP JUMPDEST PUSH0 PUSH2 0x7A7 DUP3 PUSH2 0x68C JUMP JUMPDEST SWAP2 POP PUSH32 0xFFFFFFFFFFFFFFFFFFFFFFFFFFFFFFFFFFFFFFFFFFFFFFFFFFFFFFFFFFFFFFFF DUP3 SUB PUSH2 0x7D9 JUMPI PUSH2 0x7D8 PUSH2 0x73D JUMP JUMPDEST JUMPDEST PUSH1 0x1 DUP3 ADD SWAP1 POP SWAP2 SWAP1 POP JUMP JUMPDEST PUSH0 PUSH2 0x7EE DUP3 PUSH2 0x68C JUMP JUMPDEST SWAP2 POP PUSH2 0x7F9 DUP4 PUSH2 0x68C JUMP JUMPDEST SWAP3 POP DUP3 DUP3 ADD SWAP1 POP DUP1 DUP3 GT ISZERO PUSH2 0x811 JUMPI PUSH2 0x810 PUSH2 0x73D JUMP JUMPDEST JUMPDEST SWAP3 SWAP2 POP POP JUMP JUMPDEST PUSH0 DUP2 SWAP1 POP SWAP3 SWAP2 POP POP JUMP JUMPDEST POP JUMP JUMPDEST PUSH0 PUSH2 0x82F PUSH0 DUP4 PUSH2 0x817 JUMP JUMPDEST SWAP2 POP PUSH2 0x83A DUP3 PUSH2 0x821 JUMP JUMPDEST PUSH0 DUP3 ADD SWAP1 POP SWAP2 SWAP1 POP JUMP JUMPDEST PUSH0 PUSH2 0x84E DUP3 PUSH2 0x824 JUMP JUMPDEST SWAP2 POP DUP2 SWAP1 POP SWAP2 SWAP1 POP JUMP JUMPDEST PUSH0 DUP3 DUP3 MSTORE PUSH1 0x20 DUP3 ADD SWAP1 POP SWAP3 SWAP2 POP POP JUMP JUMPDEST PUSH32 0x5472616E73666572206661696C65640000000000000000000000000000000000 PUSH0 DUP3 ADD MSTORE POP JUMP JUMPDEST PUSH0 PUSH2 0x89C PUSH1 0xF DUP4 PUSH2 0x858 JUMP JUMPDEST SWAP2 POP PUSH2 0x8A7 DUP3 PUSH2 0x868 JUMP JUMPDEST PUSH1 0x20 DUP3 ADD SWAP1 POP SWAP2 SWAP1 POP JUMP JUMPDEST PUSH0 PUSH1 0x20 DUP3 ADD SWAP1 POP DUP2 DUP2 SUB PUSH0 DUP4 ADD MSTORE PUSH2 0x8C9 DUP2 PUSH2 0x890 JUMP JUMPDEST SWAP1 POP SWAP2 SWAP1 POP JUMP INVALID LOG2 PUSH5 0x6970667358 0x22 SLT KECCAK256 PC RJUMP 0x7FE2 JUMPF 0x8CD7 0xB1 0x21 SWAPN 0x15 GT 0xC8 0xCA 0xEB GASLIMIT 0xCE SHR SWAP11 ORIGIN RETURNDATASIZE LT SLOAD TIMESTAMP 0xBD 0xFC SWAP13 GAS DIV BASEFEE PUSH19 0xD964736F6C634300081E003300000000000000 "
				},
				"gasEstimates": {
					"creation": {
						"codeDepositCost": "462000",
						"executionCost": "infinite",
						"totalCost": "infinite"
					},
					"external": {
						"bankCap()": "infinite",
						"deposit()": "infinite",
						"depositCount()": "2426",
						"getMyBalance()": "2563",
						"withdraw(uint256)": "infinite",
						"withdrawCount()": "2425",
						"withdrawLimit()": "infinite"
					},
					"internal": {
						"_safeTransfer(address,uint256)": "infinite"
					}
				},
				"methodIdentifiers": {
					"bankCap()": "ecbea24d",
					"deposit()": "d0e30db0",
					"depositCount()": "2dfdf0b5",
					"getMyBalance()": "4c738909",
					"withdraw(uint256)": "2e1a7d4d",
					"withdrawCount()": "4cc05a71",
					"withdrawLimit()": "f848d541"
				}
			},
			"storageLayout": {
				"storage": [
					{
						"astId": 49,
						"contract": "contracts/KipuBank.sol:KipuBank",
						"label": "balances",
						"offset": 0,
						"slot": "0",
						"type": "t_mapping(t_address,t_uint256)"
					},
					{
						"astId": 52,
						"contract": "contracts/KipuBank.sol:KipuBank",
						"label": "totalDeposited",
						"offset": 0,
						"slot": "1",
						"type": "t_uint256"
					},
					{
						"astId": 55,
						"contract": "contracts/KipuBank.sol:KipuBank",
						"label": "depositCount",
						"offset": 0,
						"slot": "2",
						"type": "t_uint256"
					},
					{
						"astId": 57,
						"contract": "contracts/KipuBank.sol:KipuBank",
						"label": "withdrawCount",
						"offset": 0,
						"slot": "3",
						"type": "t_uint256"
					}
				],
				"types": {
					"t_address": {
						"encoding": "inplace",
						"label": "address",
						"numberOfBytes": "20"
					},
					"t_mapping(t_address,t_uint256)": {
						"encoding": "mapping",
						"key": "t_address",
						"label": "mapping(address => uint256)",
						"numberOfBytes": "32",
						"value": "t_uint256"
					},
					"t_uint256": {
						"encoding": "inplace",
						"label": "uint256",
						"numberOfBytes": "32"
					}
				}
			},
			"userdoc": {
				"events": {
					"Deposited(address,uint256)": {
						"notice": "Se emite cuando un usuario deposita ETH"
					},
					"Withdrawn(address,uint256)": {
						"notice": "Se emite cuando un usuario retira ETH"
					}
				},
				"kind": "user",
				"methods": {
					"bankCap()": {
						"notice": "Capacidad máxima total del banco"
					},
					"deposit()": {
						"notice": "Deposita ETH al banco"
					},
					"depositCount()": {
						"notice": "Conteo de depósitos y retiros"
					},
					"getMyBalance()": {
						"notice": "Consulta el balance actual del usuario"
					},
					"withdraw(uint256)": {
						"notice": "Retira una cantidad de ETH de la bóveda del usuario"
					},
					"withdrawLimit()": {
						"notice": "Límite máximo de retiro por transacción"
					}
				},
				"notice": "Permite a los usuarios depositar y retirar ETH con límites establecidos.",
				"version": 1
			}
		}
	}
}