{
	"data": {
		"bytecode": {
			"linkReferences": {},
			"object": "60c060405234801561000f575f5ffd5b50604051610a2f380380610a2f8339818101604052810190610031919061007f565b81608081815250508060a0818152505050506100bd565b5f5ffd5b5f819050919050565b61005e8161004c565b8114610068575f5ffd5b50565b5f8151905061007981610055565b92915050565b5f5f6040838503121561009557610094610048565b5b5f6100a28582860161006b565b92505060206100b38582860161006b565b9150509250929050565b60805160a05161094a6100e55f395f6104c301525f81816103020152610352015261094a5ff3fe608060405260043610610085575f3560e01c8063c9578e1b11610058578063c9578e1b14610111578063cee902921461013b578063e3d670d714610165578063e8b1298f146101a1578063ecbea24d146101c957610085565b80633d922f901461008957806342cc9fdb146100935780635f0073d0146100bd5780638559126f146100e7575b5f5ffd5b6100916101f3565b005b34801561009e575f5ffd5b506100a7610300565b6040516100b491906105aa565b60405180910390f35b3480156100c8575f5ffd5b506100d1610324565b6040516100de91906105aa565b60405180910390f35b3480156100f2575f5ffd5b506100fb61032a565b60405161010891906105aa565b60405180910390f35b34801561011c575f5ffd5b5061012561032f565b60405161013291906105aa565b60405180910390f35b348015610146575f5ffd5b5061014f610335565b60405161015c91906105aa565b60405180910390f35b348015610170575f5ffd5b5061018b60048036038101906101869190610621565b61033b565b60405161019891906105aa565b60405180910390f35b3480156101ac575f5ffd5b506101c760048036038101906101c29190610676565b610350565b005b3480156101d4575f5ffd5b506101dd6104c1565b6040516101ea91906105aa565b60405180910390f35b5f5434111561022e576040517f1fe673dd00000000000000000000000000000000000000000000000000000000815260040160405180910390fd5b3460025f3373ffffffffffffffffffffffffffffffffffffffff1673ffffffffffffffffffffffffffffffffffffffff1681526020019081526020015f205f82825461027a91906106ce565b925050819055503460015f82825461029291906106ce565b925050819055503373ffffffffffffffffffffffffffffffffffffffff167f8e13c232b6ad491513c1540f8bc226e1c5072f2f8b9bcd13088a478c67fd5a49346040516102df91906105aa565b60405180910390a260035f8154809291906102f990610701565b9190505550565b7f000000000000000000000000000000000000000000000000000000000000000081565b60015481565b5f5481565b60035481565b60045481565b6002602052805f5260405f205f915090505481565b7f00000000000000000000000000000000000000000000000000000000000000008111156103b3576040517fe1edb10e0000000000000000000000000000000000000000000000000000000081526004016103aa906107a2565b60405180910390fd5b60025f3373ffffffffffffffffffffffffffffffffffffffff1673ffffffffffffffffffffffffffffffffffffffff1681526020019081526020015f2054811115610433576040517f08fe34f500000000000000000000000000000000000000000000000000000000815260040161042a9061080a565b60405180910390fd5b8060025f3373ffffffffffffffffffffffffffffffffffffffff1673ffffffffffffffffffffffffffffffffffffffff1681526020019081526020015f205f82825461047f9190610828565b92505081905550805f5f8282546104969190610828565b9250508190555060045f8154809291906104af90610701565b91905055506104be33826104e5565b50565b7f000000000000000000000000000000000000000000000000000000000000000081565b5f8273ffffffffffffffffffffffffffffffffffffffff168260405161050a90610888565b5f6040518083038185875af1925050503d805f8114610544576040519150601f19603f3d011682016040523d82523d5f602084013e610549565b606091505b505090508061058d576040517f08c379a0000000000000000000000000000000000000000000000000000000008152600401610584906108f6565b60405180910390fd5b505050565b5f819050919050565b6105a481610592565b82525050565b5f6020820190506105bd5f83018461059b565b92915050565b5f5ffd5b5f73ffffffffffffffffffffffffffffffffffffffff82169050919050565b5f6105f0826105c7565b9050919050565b610600816105e6565b811461060a575f5ffd5b50565b5f8135905061061b816105f7565b92915050565b5f60208284031215610636576106356105c3565b5b5f6106438482850161060d565b91505092915050565b61065581610592565b811461065f575f5ffd5b50565b5f813590506106708161064c565b92915050565b5f6020828403121561068b5761068a6105c3565b5b5f61069884828501610662565b91505092915050565b7f4e487b71000000000000000000000000000000000000000000000000000000005f52601160045260245ffd5b5f6106d882610592565b91506106e383610592565b92508282019050808211156106fb576106fa6106a1565b5b92915050565b5f61070b82610592565b91507fffffffffffffffffffffffffffffffffffffffffffffffffffffffffffffffff820361073d5761073c6106a1565b5b600182019050919050565b5f82825260208201905092915050565b7f43616e7469646164206d61796f7220616c20756d6272616c00000000000000005f82015250565b5f61078c601883610748565b915061079782610758565b602082019050919050565b5f6020820190508181035f8301526107b981610780565b9050919050565b7f42616c616e636520696e737566696369656e74650000000000000000000000005f82015250565b5f6107f4601483610748565b91506107ff826107c0565b602082019050919050565b5f6020820190508181035f830152610821816107e8565b9050919050565b5f61083282610592565b915061083d83610592565b9250828203905081811115610855576108546106a1565b5b92915050565b5f81905092915050565b50565b5f6108735f8361085b565b915061087e82610865565b5f82019050919050565b5f61089282610868565b9150819050919050565b5f82825260208201905092915050565b7f46616c6c6f206c61207472616e73666572656e636961000000000000000000005f82015250565b5f6108e060168361089c565b91506108eb826108ac565b602082019050919050565b5f6020820190508181035f83015261090d816108d4565b905091905056fea2646970667358221220284af3fa8a8f7eb864585662fd4e29bc2a24cf8b87b4954a1ca74ffeb7e78c9d64736f6c634300081e0033",
			"opcodes": "PUSH1 0xC0 PUSH1 0x40 MSTORE CALLVALUE DUP1 ISZERO PUSH2 0xF JUMPI PUSH0 PUSH0 REVERT JUMPDEST POP PUSH1 0x40 MLOAD PUSH2 0xA2F CODESIZE SUB DUP1 PUSH2 0xA2F DUP4 CODECOPY DUP2 DUP2 ADD PUSH1 0x40 MSTORE DUP2 ADD SWAP1 PUSH2 0x31 SWAP2 SWAP1 PUSH2 0x7F JUMP JUMPDEST DUP2 PUSH1 0x80 DUP2 DUP2 MSTORE POP POP DUP1 PUSH1 0xA0 DUP2 DUP2 MSTORE POP POP POP POP PUSH2 0xBD JUMP JUMPDEST PUSH0 PUSH0 REVERT JUMPDEST PUSH0 DUP2 SWAP1 POP SWAP2 SWAP1 POP JUMP JUMPDEST PUSH2 0x5E DUP2 PUSH2 0x4C JUMP JUMPDEST DUP2 EQ PUSH2 0x68 JUMPI PUSH0 PUSH0 REVERT JUMPDEST POP JUMP JUMPDEST PUSH0 DUP2 MLOAD SWAP1 POP PUSH2 0x79 DUP2 PUSH2 0x55 JUMP JUMPDEST SWAP3 SWAP2 POP POP JUMP JUMPDEST PUSH0 PUSH0 PUSH1 0x40 DUP4 DUP6 SUB SLT ISZERO PUSH2 0x95 JUMPI PUSH2 0x94 PUSH2 0x48 JUMP JUMPDEST JUMPDEST PUSH0 PUSH2 0xA2 DUP6 DUP3 DUP7 ADD PUSH2 0x6B JUMP JUMPDEST SWAP3 POP POP PUSH1 0x20 PUSH2 0xB3 DUP6 DUP3 DUP7 ADD PUSH2 0x6B JUMP JUMPDEST SWAP2 POP POP SWAP3 POP SWAP3 SWAP1 POP JUMP JUMPDEST PUSH1 0x80 MLOAD PUSH1 0xA0 MLOAD PUSH2 0x94A PUSH2 0xE5 PUSH0 CODECOPY PUSH0 PUSH2 0x4C3 ADD MSTORE PUSH0 DUP2 DUP2 PUSH2 0x302 ADD MSTORE PUSH2 0x352 ADD MSTORE PUSH2 0x94A PUSH0 RETURN INVALID PUSH1 0x80 PUSH1 0x40 MSTORE PUSH1 0x4 CALLDATASIZE LT PUSH2 0x85 JUMPI PUSH0 CALLDATALOAD PUSH1 0xE0 SHR DUP1 PUSH4 0xC9578E1B GT PUSH2 0x58 JUMPI DUP1 PUSH4 0xC9578E1B EQ PUSH2 0x111 JUMPI DUP1 PUSH4 0xCEE90292 EQ PUSH2 0x13B JUMPI DUP1 PUSH4 0xE3D670D7 EQ PUSH2 0x165 JUMPI DUP1 PUSH4 0xE8B1298F EQ PUSH2 0x1A1 JUMPI DUP1 PUSH4 0xECBEA24D EQ PUSH2 0x1C9 JUMPI PUSH2 0x85 JUMP JUMPDEST DUP1 PUSH4 0x3D922F90 EQ PUSH2 0x89 JUMPI DUP1 PUSH4 0x42CC9FDB EQ PUSH2 0x93 JUMPI DUP1 PUSH4 0x5F0073D0 EQ PUSH2 0xBD JUMPI DUP1 PUSH4 0x8559126F EQ PUSH2 0xE7 JUMPI JUMPDEST PUSH0 PUSH0 REVERT JUMPDEST PUSH2 0x91 PUSH2 0x1F3 JUMP JUMPDEST STOP JUMPDEST CALLVALUE DUP1 ISZERO PUSH2 0x9E JUMPI PUSH0 PUSH0 REVERT JUMPDEST POP PUSH2 0xA7 PUSH2 0x300 JUMP JUMPDEST PUSH1 0x40 MLOAD PUSH2 0xB4 SWAP2 SWAP1 PUSH2 0x5AA JUMP JUMPDEST PUSH1 0x40 MLOAD DUP1 SWAP2 SUB SWAP1 RETURN JUMPDEST CALLVALUE DUP1 ISZERO PUSH2 0xC8 JUMPI PUSH0 PUSH0 REVERT JUMPDEST POP PUSH2 0xD1 PUSH2 0x324 JUMP JUMPDEST PUSH1 0x40 MLOAD PUSH2 0xDE SWAP2 SWAP1 PUSH2 0x5AA JUMP JUMPDEST PUSH1 0x40 MLOAD DUP1 SWAP2 SUB SWAP1 RETURN JUMPDEST CALLVALUE DUP1 ISZERO PUSH2 0xF2 JUMPI PUSH0 PUSH0 REVERT JUMPDEST POP PUSH2 0xFB PUSH2 0x32A JUMP JUMPDEST PUSH1 0x40 MLOAD PUSH2 0x108 SWAP2 SWAP1 PUSH2 0x5AA JUMP JUMPDEST PUSH1 0x40 MLOAD DUP1 SWAP2 SUB SWAP1 RETURN JUMPDEST CALLVALUE DUP1 ISZERO PUSH2 0x11C JUMPI PUSH0 PUSH0 REVERT JUMPDEST POP PUSH2 0x125 PUSH2 0x32F JUMP JUMPDEST PUSH1 0x40 MLOAD PUSH2 0x132 SWAP2 SWAP1 PUSH2 0x5AA JUMP JUMPDEST PUSH1 0x40 MLOAD DUP1 SWAP2 SUB SWAP1 RETURN JUMPDEST CALLVALUE DUP1 ISZERO PUSH2 0x146 JUMPI PUSH0 PUSH0 REVERT JUMPDEST POP PUSH2 0x14F PUSH2 0x335 JUMP JUMPDEST PUSH1 0x40 MLOAD PUSH2 0x15C SWAP2 SWAP1 PUSH2 0x5AA JUMP JUMPDEST PUSH1 0x40 MLOAD DUP1 SWAP2 SUB SWAP1 RETURN JUMPDEST CALLVALUE DUP1 ISZERO PUSH2 0x170 JUMPI PUSH0 PUSH0 REVERT JUMPDEST POP PUSH2 0x18B PUSH1 0x4 DUP1 CALLDATASIZE SUB DUP2 ADD SWAP1 PUSH2 0x186 SWAP2 SWAP1 PUSH2 0x621 JUMP JUMPDEST PUSH2 0x33B JUMP JUMPDEST PUSH1 0x40 MLOAD PUSH2 0x198 SWAP2 SWAP1 PUSH2 0x5AA JUMP JUMPDEST PUSH1 0x40 MLOAD DUP1 SWAP2 SUB SWAP1 RETURN JUMPDEST CALLVALUE DUP1 ISZERO PUSH2 0x1AC JUMPI PUSH0 PUSH0 REVERT JUMPDEST POP PUSH2 0x1C7 PUSH1 0x4 DUP1 CALLDATASIZE SUB DUP2 ADD SWAP1 PUSH2 0x1C2 SWAP2 SWAP1 PUSH2 0x676 JUMP JUMPDEST PUSH2 0x350 JUMP JUMPDEST STOP JUMPDEST CALLVALUE DUP1 ISZERO PUSH2 0x1D4 JUMPI PUSH0 PUSH0 REVERT JUMPDEST POP PUSH2 0x1DD PUSH2 0x4C1 JUMP JUMPDEST PUSH1 0x40 MLOAD PUSH2 0x1EA SWAP2 SWAP1 PUSH2 0x5AA JUMP JUMPDEST PUSH1 0x40 MLOAD DUP1 SWAP2 SUB SWAP1 RETURN JUMPDEST PUSH0 SLOAD CALLVALUE GT ISZERO PUSH2 0x22E JUMPI PUSH1 0x40 MLOAD PUSH32 0x1FE673DD00000000000000000000000000000000000000000000000000000000 DUP2 MSTORE PUSH1 0x4 ADD PUSH1 0x40 MLOAD DUP1 SWAP2 SUB SWAP1 REVERT JUMPDEST CALLVALUE PUSH1 0x2 PUSH0 CALLER PUSH20 0xFFFFFFFFFFFFFFFFFFFFFFFFFFFFFFFFFFFFFFFF AND PUSH20 0xFFFFFFFFFFFFFFFFFFFFFFFFFFFFFFFFFFFFFFFF AND DUP2 MSTORE PUSH1 0x20 ADD SWAP1 DUP2 MSTORE PUSH1 0x20 ADD PUSH0 KECCAK256 PUSH0 DUP3 DUP3 SLOAD PUSH2 0x27A SWAP2 SWAP1 PUSH2 0x6CE JUMP JUMPDEST SWAP3 POP POP DUP2 SWAP1 SSTORE POP CALLVALUE PUSH1 0x1 PUSH0 DUP3 DUP3 SLOAD PUSH2 0x292 SWAP2 SWAP1 PUSH2 0x6CE JUMP JUMPDEST SWAP3 POP POP DUP2 SWAP1 SSTORE POP CALLER PUSH20 0xFFFFFFFFFFFFFFFFFFFFFFFFFFFFFFFFFFFFFFFF AND PUSH32 0x8E13C232B6AD491513C1540F8BC226E1C5072F2F8B9BCD13088A478C67FD5A49 CALLVALUE PUSH1 0x40 MLOAD PUSH2 0x2DF SWAP2 SWAP1 PUSH2 0x5AA JUMP JUMPDEST PUSH1 0x40 MLOAD DUP1 SWAP2 SUB SWAP1 LOG2 PUSH1 0x3 PUSH0 DUP2 SLOAD DUP1 SWAP3 SWAP2 SWAP1 PUSH2 0x2F9 SWAP1 PUSH2 0x701 JUMP JUMPDEST SWAP2 SWAP1 POP SSTORE POP JUMP JUMPDEST PUSH32 0x0 DUP2 JUMP JUMPDEST PUSH1 0x1 SLOAD DUP2 JUMP JUMPDEST PUSH0 SLOAD DUP2 JUMP JUMPDEST PUSH1 0x3 SLOAD DUP2 JUMP JUMPDEST PUSH1 0x4 SLOAD DUP2 JUMP JUMPDEST PUSH1 0x2 PUSH1 0x20 MSTORE DUP1 PUSH0 MSTORE PUSH1 0x40 PUSH0 KECCAK256 PUSH0 SWAP2 POP SWAP1 POP SLOAD DUP2 JUMP JUMPDEST PUSH32 0x0 DUP2 GT ISZERO PUSH2 0x3B3 JUMPI PUSH1 0x40 MLOAD PUSH32 0xE1EDB10E00000000000000000000000000000000000000000000000000000000 DUP2 MSTORE PUSH1 0x4 ADD PUSH2 0x3AA SWAP1 PUSH2 0x7A2 JUMP JUMPDEST PUSH1 0x40 MLOAD DUP1 SWAP2 SUB SWAP1 REVERT JUMPDEST PUSH1 0x2 PUSH0 CALLER PUSH20 0xFFFFFFFFFFFFFFFFFFFFFFFFFFFFFFFFFFFFFFFF AND PUSH20 0xFFFFFFFFFFFFFFFFFFFFFFFFFFFFFFFFFFFFFFFF AND DUP2 MSTORE PUSH1 0x20 ADD SWAP1 DUP2 MSTORE PUSH1 0x20 ADD PUSH0 KECCAK256 SLOAD DUP2 GT ISZERO PUSH2 0x433 JUMPI PUSH1 0x40 MLOAD PUSH32 0x8FE34F500000000000000000000000000000000000000000000000000000000 DUP2 MSTORE PUSH1 0x4 ADD PUSH2 0x42A SWAP1 PUSH2 0x80A JUMP JUMPDEST PUSH1 0x40 MLOAD DUP1 SWAP2 SUB SWAP1 REVERT JUMPDEST DUP1 PUSH1 0x2 PUSH0 CALLER PUSH20 0xFFFFFFFFFFFFFFFFFFFFFFFFFFFFFFFFFFFFFFFF AND PUSH20 0xFFFFFFFFFFFFFFFFFFFFFFFFFFFFFFFFFFFFFFFF AND DUP2 MSTORE PUSH1 0x20 ADD SWAP1 DUP2 MSTORE PUSH1 0x20 ADD PUSH0 KECCAK256 PUSH0 DUP3 DUP3 SLOAD PUSH2 0x47F SWAP2 SWAP1 PUSH2 0x828 JUMP JUMPDEST SWAP3 POP POP DUP2 SWAP1 SSTORE POP DUP1 PUSH0 PUSH0 DUP3 DUP3 SLOAD PUSH2 0x496 SWAP2 SWAP1 PUSH2 0x828 JUMP JUMPDEST SWAP3 POP POP DUP2 SWAP1 SSTORE POP PUSH1 0x4 PUSH0 DUP2 SLOAD DUP1 SWAP3 SWAP2 SWAP1 PUSH2 0x4AF SWAP1 PUSH2 0x701 JUMP JUMPDEST SWAP2 SWAP1 POP SSTORE POP PUSH2 0x4BE CALLER DUP3 PUSH2 0x4E5 JUMP JUMPDEST POP JUMP JUMPDEST PUSH32 0x0 DUP2 JUMP JUMPDEST PUSH0 DUP3 PUSH20 0xFFFFFFFFFFFFFFFFFFFFFFFFFFFFFFFFFFFFFFFF AND DUP3 PUSH1 0x40 MLOAD PUSH2 0x50A SWAP1 PUSH2 0x888 JUMP JUMPDEST PUSH0 PUSH1 0x40 MLOAD DUP1 DUP4 SUB DUP2 DUP6 DUP8 GAS CALL SWAP3 POP POP POP RETURNDATASIZE DUP1 PUSH0 DUP2 EQ PUSH2 0x544 JUMPI PUSH1 0x40 MLOAD SWAP2 POP PUSH1 0x1F NOT PUSH1 0x3F RETURNDATASIZE ADD AND DUP3 ADD PUSH1 0x40 MSTORE RETURNDATASIZE DUP3 MSTORE RETURNDATASIZE PUSH0 PUSH1 0x20 DUP5 ADD RETURNDATACOPY PUSH2 0x549 JUMP JUMPDEST PUSH1 0x60 SWAP2 POP JUMPDEST POP POP SWAP1 POP DUP1 PUSH2 0x58D JUMPI PUSH1 0x40 MLOAD PUSH32 0x8C379A000000000000000000000000000000000000000000000000000000000 DUP2 MSTORE PUSH1 0x4 ADD PUSH2 0x584 SWAP1 PUSH2 0x8F6 JUMP JUMPDEST PUSH1 0x40 MLOAD DUP1 SWAP2 SUB SWAP1 REVERT JUMPDEST POP POP POP JUMP JUMPDEST PUSH0 DUP2 SWAP1 POP SWAP2 SWAP1 POP JUMP JUMPDEST PUSH2 0x5A4 DUP2 PUSH2 0x592 JUMP JUMPDEST DUP3 MSTORE POP POP JUMP JUMPDEST PUSH0 PUSH1 0x20 DUP3 ADD SWAP1 POP PUSH2 0x5BD PUSH0 DUP4 ADD DUP5 PUSH2 0x59B JUMP JUMPDEST SWAP3 SWAP2 POP POP JUMP JUMPDEST PUSH0 PUSH0 REVERT JUMPDEST PUSH0 PUSH20 0xFFFFFFFFFFFFFFFFFFFFFFFFFFFFFFFFFFFFFFFF DUP3 AND SWAP1 POP SWAP2 SWAP1 POP JUMP JUMPDEST PUSH0 PUSH2 0x5F0 DUP3 PUSH2 0x5C7 JUMP JUMPDEST SWAP1 POP SWAP2 SWAP1 POP JUMP JUMPDEST PUSH2 0x600 DUP2 PUSH2 0x5E6 JUMP JUMPDEST DUP2 EQ PUSH2 0x60A JUMPI PUSH0 PUSH0 REVERT JUMPDEST POP JUMP JUMPDEST PUSH0 DUP2 CALLDATALOAD SWAP1 POP PUSH2 0x61B DUP2 PUSH2 0x5F7 JUMP JUMPDEST SWAP3 SWAP2 POP POP JUMP JUMPDEST PUSH0 PUSH1 0x20 DUP3 DUP5 SUB SLT ISZERO PUSH2 0x636 JUMPI PUSH2 0x635 PUSH2 0x5C3 JUMP JUMPDEST JUMPDEST PUSH0 PUSH2 0x643 DUP5 DUP3 DUP6 ADD PUSH2 0x60D JUMP JUMPDEST SWAP2 POP POP SWAP3 SWAP2 POP POP JUMP JUMPDEST PUSH2 0x655 DUP2 PUSH2 0x592 JUMP JUMPDEST DUP2 EQ PUSH2 0x65F JUMPI PUSH0 PUSH0 REVERT JUMPDEST POP JUMP JUMPDEST PUSH0 DUP2 CALLDATALOAD SWAP1 POP PUSH2 0x670 DUP2 PUSH2 0x64C JUMP JUMPDEST SWAP3 SWAP2 POP POP JUMP JUMPDEST PUSH0 PUSH1 0x20 DUP3 DUP5 SUB SLT ISZERO PUSH2 0x68B JUMPI PUSH2 0x68A PUSH2 0x5C3 JUMP JUMPDEST JUMPDEST PUSH0 PUSH2 0x698 DUP5 DUP3 DUP6 ADD PUSH2 0x662 JUMP JUMPDEST SWAP2 POP POP SWAP3 SWAP2 POP POP JUMP JUMPDEST PUSH32 0x4E487B7100000000000000000000000000000000000000000000000000000000 PUSH0 MSTORE PUSH1 0x11 PUSH1 0x4 MSTORE PUSH1 0x24 PUSH0 REVERT JUMPDEST PUSH0 PUSH2 0x6D8 DUP3 PUSH2 0x592 JUMP JUMPDEST SWAP2 POP PUSH2 0x6E3 DUP4 PUSH2 0x592 JUMP JUMPDEST SWAP3 POP DUP3 DUP3 ADD SWAP1 POP DUP1 DUP3 GT ISZERO PUSH2 0x6FB JUMPI PUSH2 0x6FA PUSH2 0x6A1 JUMP JUMPDEST JUMPDEST SWAP3 SWAP2 POP POP JUMP JUMPDEST PUSH0 PUSH2 0x70B DUP3 PUSH2 0x592 JUMP JUMPDEST SWAP2 POP PUSH32 0xFFFFFFFFFFFFFFFFFFFFFFFFFFFFFFFFFFFFFFFFFFFFFFFFFFFFFFFFFFFFFFFF DUP3 SUB PUSH2 0x73D JUMPI PUSH2 0x73C PUSH2 0x6A1 JUMP JUMPDEST JUMPDEST PUSH1 0x1 DUP3 ADD SWAP1 POP SWAP2 SWAP1 POP JUMP JUMPDEST PUSH0 DUP3 DUP3 MSTORE PUSH1 0x20 DUP3 ADD SWAP1 POP SWAP3 SWAP2 POP POP JUMP JUMPDEST PUSH32 0x43616E7469646164206D61796F7220616C20756D6272616C0000000000000000 PUSH0 DUP3 ADD MSTORE POP JUMP JUMPDEST PUSH0 PUSH2 0x78C PUSH1 0x18 DUP4 PUSH2 0x748 JUMP JUMPDEST SWAP2 POP PUSH2 0x797 DUP3 PUSH2 0x758 JUMP JUMPDEST PUSH1 0x20 DUP3 ADD SWAP1 POP SWAP2 SWAP1 POP JUMP JUMPDEST PUSH0 PUSH1 0x20 DUP3 ADD SWAP1 POP DUP2 DUP2 SUB PUSH0 DUP4 ADD MSTORE PUSH2 0x7B9 DUP2 PUSH2 0x780 JUMP JUMPDEST SWAP1 POP SWAP2 SWAP1 POP JUMP JUMPDEST PUSH32 0x42616C616E636520696E737566696369656E7465000000000000000000000000 PUSH0 DUP3 ADD MSTORE POP JUMP JUMPDEST PUSH0 PUSH2 0x7F4 PUSH1 0x14 DUP4 PUSH2 0x748 JUMP JUMPDEST SWAP2 POP PUSH2 0x7FF DUP3 PUSH2 0x7C0 JUMP JUMPDEST PUSH1 0x20 DUP3 ADD SWAP1 POP SWAP2 SWAP1 POP JUMP JUMPDEST PUSH0 PUSH1 0x20 DUP3 ADD SWAP1 POP DUP2 DUP2 SUB PUSH0 DUP4 ADD MSTORE PUSH2 0x821 DUP2 PUSH2 0x7E8 JUMP JUMPDEST SWAP1 POP SWAP2 SWAP1 POP JUMP JUMPDEST PUSH0 PUSH2 0x832 DUP3 PUSH2 0x592 JUMP JUMPDEST SWAP2 POP PUSH2 0x83D DUP4 PUSH2 0x592 JUMP JUMPDEST SWAP3 POP DUP3 DUP3 SUB SWAP1 POP DUP2 DUP2 GT ISZERO PUSH2 0x855 JUMPI PUSH2 0x854 PUSH2 0x6A1 JUMP JUMPDEST JUMPDEST SWAP3 SWAP2 POP POP JUMP JUMPDEST PUSH0 DUP2 SWAP1 POP SWAP3 SWAP2 POP POP JUMP JUMPDEST POP JUMP JUMPDEST PUSH0 PUSH2 0x873 PUSH0 DUP4 PUSH2 0x85B JUMP JUMPDEST SWAP2 POP PUSH2 0x87E DUP3 PUSH2 0x865 JUMP JUMPDEST PUSH0 DUP3 ADD SWAP1 POP SWAP2 SWAP1 POP JUMP JUMPDEST PUSH0 PUSH2 0x892 DUP3 PUSH2 0x868 JUMP JUMPDEST SWAP2 POP DUP2 SWAP1 POP SWAP2 SWAP1 POP JUMP JUMPDEST PUSH0 DUP3 DUP3 MSTORE PUSH1 0x20 DUP3 ADD SWAP1 POP SWAP3 SWAP2 POP POP JUMP JUMPDEST PUSH32 0x46616C6C6F206C61207472616E73666572656E63696100000000000000000000 PUSH0 DUP3 ADD MSTORE POP JUMP JUMPDEST PUSH0 PUSH2 0x8E0 PUSH1 0x16 DUP4 PUSH2 0x89C JUMP JUMPDEST SWAP2 POP PUSH2 0x8EB DUP3 PUSH2 0x8AC JUMP JUMPDEST PUSH1 0x20 DUP3 ADD SWAP1 POP SWAP2 SWAP1 POP JUMP JUMPDEST PUSH0 PUSH1 0x20 DUP3 ADD SWAP1 POP DUP2 DUP2 SUB PUSH0 DUP4 ADD MSTORE PUSH2 0x90D DUP2 PUSH2 0x8D4 JUMP JUMPDEST SWAP1 POP SWAP2 SWAP1 POP JUMP INVALID LOG2 PUSH5 0x6970667358 0x22 SLT KECCAK256 0x28 BLOBBASEFEE RETURN STATICCALL DUP11 DUP16 PUSH31 0xB864585662FD4E29BC2A24CF8B87B4954A1CA74FFEB7E78C9D64736F6C6343 STOP ADDMOD 0x1E STOP CALLER "
		},
		"gasEstimates": {
			"creation": {
				"codeDepositCost": "475600",
				"executionCost": "infinite",
				"totalCost": "infinite"
			},
			"external": {
				"balance(address)": "2846",
				"bankCap()": "infinite",
				"conteoDeposito()": "2425",
				"conteoRetiro()": "2447",
				"depositar()": "infinite",
				"retirar(uint256)": "infinite",
				"totalBanco()": "2491",
				"totalDepositado()": "2470",
				"umbralRetiros()": "infinite"
			},
			"internal": {
				"_transferir(address,uint256)": "infinite"
			}
		},
		"methodIdentifiers": {
			"balance(address)": "e3d670d7",
			"bankCap()": "ecbea24d",
			"conteoDeposito()": "c9578e1b",
			"conteoRetiro()": "cee90292",
			"depositar()": "3d922f90",
			"retirar(uint256)": "e8b1298f",
			"totalBanco()": "8559126f",
			"totalDepositado()": "5f0073d0",
			"umbralRetiros()": "42cc9fdb"
		}
	},
	"abi": [
		{
			"inputs": [
				{
					"internalType": "uint256",
					"name": "_umbralRetiros",
					"type": "uint256"
				},
				{
					"internalType": "uint256",
					"name": "_bankCap",
					"type": "uint256"
				}
			],
			"stateMutability": "nonpayable",
			"type": "constructor"
		},
		{
			"inputs": [
				{
					"internalType": "bytes",
					"name": "motivo",
					"type": "bytes"
				}
			],
			"name": "BalanceInsuficiente",
			"type": "error"
		},
		{
			"inputs": [],
			"name": "BancoLleno",
			"type": "error"
		},
		{
			"inputs": [],
			"name": "InvalidValue",
			"type": "error"
		},
		{
			"inputs": [
				{
					"internalType": "bytes",
					"name": "motivo",
					"type": "bytes"
				}
			],
			"name": "RetiroInvalido",
			"type": "error"
		},
		{
			"anonymous": false,
			"inputs": [
				{
					"indexed": true,
					"internalType": "address",
					"name": "desde",
					"type": "address"
				},
				{
					"indexed": false,
					"internalType": "uint256",
					"name": "cantidad",
					"type": "uint256"
				}
			],
			"name": "DepositoExitoso",
			"type": "event"
		},
		{
			"anonymous": false,
			"inputs": [
				{
					"indexed": true,
					"internalType": "address",
					"name": "desde",
					"type": "address"
				},
				{
					"indexed": false,
					"internalType": "uint256",
					"name": "cantidad",
					"type": "uint256"
				}
			],
			"name": "RetiroExitoso",
			"type": "event"
		},
		{
			"inputs": [
				{
					"internalType": "address",
					"name": "",
					"type": "address"
				}
			],
			"name": "balance",
			"outputs": [
				{
					"internalType": "uint256",
					"name": "",
					"type": "uint256"
				}
			],
			"stateMutability": "view",
			"type": "function"
		},
		{
			"inputs": [],
			"name": "bankCap",
			"outputs": [
				{
					"internalType": "uint256",
					"name": "",
					"type": "uint256"
				}
			],
			"stateMutability": "view",
			"type": "function"
		},
		{
			"inputs": [],
			"name": "conteoDeposito",
			"outputs": [
				{
					"internalType": "uint256",
					"name": "",
					"type": "uint256"
				}
			],
			"stateMutability": "view",
			"type": "function"
		},
		{
			"inputs": [],
			"name": "conteoRetiro",
			"outputs": [
				{
					"internalType": "uint256",
					"name": "",
					"type": "uint256"
				}
			],
			"stateMutability": "view",
			"type": "function"
		},
		{
			"inputs": [],
			"name": "depositar",
			"outputs": [],
			"stateMutability": "payable",
			"type": "function"
		},
		{
			"inputs": [
				{
					"internalType": "uint256",
					"name": "cantidad",
					"type": "uint256"
				}
			],
			"name": "retirar",
			"outputs": [],
			"stateMutability": "nonpayable",
			"type": "function"
		},
		{
			"inputs": [],
			"name": "totalBanco",
			"outputs": [
				{
					"internalType": "uint256",
					"name": "",
					"type": "uint256"
				}
			],
			"stateMutability": "view",
			"type": "function"
		},
		{
			"inputs": [],
			"name": "totalDepositado",
			"outputs": [
				{
					"internalType": "uint256",
					"name": "",
					"type": "uint256"
				}
			],
			"stateMutability": "view",
			"type": "function"
		},
		{
			"inputs": [],
			"name": "umbralRetiros",
			"outputs": [
				{
					"internalType": "uint256",
					"name": "",
					"type": "uint256"
				}
			],
			"stateMutability": "view",
			"type": "function"
		}
	]
}